{"contracts/Invoice.sol":{"Invoice":{"abi":[{"inputs":[],"stateMutability":"nonpayable","type":"constructor"},{"anonymous":false,"inputs":[{"indexed":true,"internalType":"address","name":"owner","type":"address"},{"indexed":true,"internalType":"address","name":"approved","type":"address"},{"indexed":true,"internalType":"uint256","name":"tokenId","type":"uint256"}],"name":"Approval","type":"event"},{"anonymous":false,"inputs":[{"indexed":true,"internalType":"address","name":"owner","type":"address"},{"indexed":true,"internalType":"address","name":"operator","type":"address"},{"indexed":false,"internalType":"bool","name":"approved","type":"bool"}],"name":"ApprovalForAll","type":"event"},{"anonymous":false,"inputs":[{"indexed":true,"internalType":"address","name":"from","type":"address"},{"indexed":true,"internalType":"address","name":"to","type":"address"},{"indexed":true,"internalType":"uint256","name":"tokenId","type":"uint256"}],"name":"Transfer","type":"event"},{"inputs":[{"internalType":"address","name":"to","type":"address"},{"internalType":"uint256","name":"tokenId","type":"uint256"}],"name":"approve","outputs":[],"stateMutability":"nonpayable","type":"function"},{"inputs":[{"internalType":"address","name":"owner","type":"address"}],"name":"balanceOf","outputs":[{"internalType":"uint256","name":"","type":"uint256"}],"stateMutability":"view","type":"function"},{"inputs":[{"internalType":"string","name":"metaDataURI","type":"string"},{"internalType":"uint256","name":"shipingFee","type":"uint256"},{"internalType":"address[4]","name":"approverAdd","type":"address[4]"}],"name":"createInvoiceToken","outputs":[{"internalType":"uint256","name":"","type":"uint256"}],"stateMutability":"payable","type":"function"},{"inputs":[{"internalType":"uint256","name":"milestoneID","type":"uint256"},{"internalType":"uint256","name":"shipingFee","type":"uint256"},{"internalType":"uint256","name":"invoiceID","type":"uint256"},{"internalType":"bool","name":"isOkay","type":"bool"}],"name":"createMilestoneTransaction","outputs":[],"stateMutability":"payable","type":"function"},{"inputs":[],"name":"fetchInvoices","outputs":[{"components":[{"internalType":"uint256","name":"invoiceID","type":"uint256"},{"internalType":"uint256","name":"shipingFee","type":"uint256"},{"internalType":"address payable","name":"invoiceOwner","type":"address"},{"internalType":"address","name":"escrowContractAddress","type":"address"},{"internalType":"bool","name":"isCompleted","type":"bool"},{"internalType":"uint256","name":"timeStamp","type":"uint256"},{"internalType":"string","name":"pdfURI","type":"string"},{"components":[{"internalType":"address","name":"approverAddress","type":"address"},{"internalType":"uint256","name":"approveTimeStamp","type":"uint256"},{"internalType":"uint256","name":"atWhichMilestone","type":"uint256"},{"internalType":"string","name":"transactionHash","type":"string"},{"internalType":"uint256","name":"amount","type":"uint256"},{"internalType":"bool","name":"isOkay","type":"bool"},{"internalType":"bool","name":"isDone","type":"bool"}],"internalType":"struct Invoice.milestoneData[4]","name":"milestoneArray","type":"tuple[4]"}],"internalType":"struct Invoice.InvoiceNFT[]","name":"","type":"tuple[]"}],"stateMutability":"view","type":"function"},{"inputs":[{"internalType":"uint256","name":"invoiceID","type":"uint256"}],"name":"fetchSingleInvoice","outputs":[{"components":[{"internalType":"uint256","name":"invoiceID","type":"uint256"},{"internalType":"uint256","name":"shipingFee","type":"uint256"},{"internalType":"address payable","name":"invoiceOwner","type":"address"},{"internalType":"address","name":"escrowContractAddress","type":"address"},{"internalType":"bool","name":"isCompleted","type":"bool"},{"internalType":"uint256","name":"timeStamp","type":"uint256"},{"internalType":"string","name":"pdfURI","type":"string"},{"components":[{"internalType":"address","name":"approverAddress","type":"address"},{"internalType":"uint256","name":"approveTimeStamp","type":"uint256"},{"internalType":"uint256","name":"atWhichMilestone","type":"uint256"},{"internalType":"string","name":"transactionHash","type":"string"},{"internalType":"uint256","name":"amount","type":"uint256"},{"internalType":"bool","name":"isOkay","type":"bool"},{"internalType":"bool","name":"isDone","type":"bool"}],"internalType":"struct Invoice.milestoneData[4]","name":"milestoneArray","type":"tuple[4]"}],"internalType":"struct Invoice.InvoiceNFT","name":"","type":"tuple"}],"stateMutability":"view","type":"function"},{"inputs":[{"internalType":"uint256","name":"tokenId","type":"uint256"}],"name":"getApproved","outputs":[{"internalType":"address","name":"","type":"address"}],"stateMutability":"view","type":"function"},{"inputs":[{"internalType":"uint256","name":"invoiceID","type":"uint256"}],"name":"getCurrentStatusOfInvoice","outputs":[{"internalType":"uint256","name":"","type":"uint256"},{"internalType":"uint256","name":"","type":"uint256"},{"internalType":"address","name":"","type":"address"},{"internalType":"bool","name":"","type":"bool"},{"components":[{"internalType":"address","name":"approverAddress","type":"address"},{"internalType":"uint256","name":"approveTimeStamp","type":"uint256"},{"internalType":"uint256","name":"atWhichMilestone","type":"uint256"},{"internalType":"string","name":"transactionHash","type":"string"},{"internalType":"uint256","name":"amount","type":"uint256"},{"internalType":"bool","name":"isOkay","type":"bool"},{"internalType":"bool","name":"isDone","type":"bool"}],"internalType":"struct Invoice.milestoneData[4]","name":"","type":"tuple[4]"}],"stateMutability":"view","type":"function"},{"inputs":[{"internalType":"uint256","name":"invoiceID","type":"uint256"}],"name":"getEscrowContractAddress","outputs":[{"internalType":"address","name":"","type":"address"}],"stateMutability":"view","type":"function"},{"inputs":[{"internalType":"address","name":"owner","type":"address"},{"internalType":"address","name":"operator","type":"address"}],"name":"isApprovedForAll","outputs":[{"internalType":"bool","name":"","type":"bool"}],"stateMutability":"view","type":"function"},{"inputs":[],"name":"name","outputs":[{"internalType":"string","name":"","type":"string"}],"stateMutability":"view","type":"function"},{"inputs":[{"internalType":"uint256","name":"tokenId","type":"uint256"}],"name":"ownerOf","outputs":[{"internalType":"address","name":"","type":"address"}],"stateMutability":"view","type":"function"},{"inputs":[{"internalType":"address","name":"from","type":"address"},{"internalType":"address","name":"to","type":"address"},{"internalType":"uint256","name":"tokenId","type":"uint256"}],"name":"safeTransferFrom","outputs":[],"stateMutability":"nonpayable","type":"function"},{"inputs":[{"internalType":"address","name":"from","type":"address"},{"internalType":"address","name":"to","type":"address"},{"internalType":"uint256","name":"tokenId","type":"uint256"},{"internalType":"bytes","name":"data","type":"bytes"}],"name":"safeTransferFrom","outputs":[],"stateMutability":"nonpayable","type":"function"},{"inputs":[{"internalType":"address","name":"operator","type":"address"},{"internalType":"bool","name":"approved","type":"bool"}],"name":"setApprovalForAll","outputs":[],"stateMutability":"nonpayable","type":"function"},{"inputs":[{"internalType":"string","name":"pdfURI","type":"string"},{"internalType":"uint256","name":"invoiceID","type":"uint256"}],"name":"setPdfURI","outputs":[],"stateMutability":"nonpayable","type":"function"},{"inputs":[{"internalType":"string","name":"transactionHash","type":"string"},{"internalType":"uint256","name":"invoiceID","type":"uint256"},{"internalType":"uint256","name":"milestoneID","type":"uint256"}],"name":"setTxHash","outputs":[],"stateMutability":"nonpayable","type":"function"},{"inputs":[{"internalType":"bytes4","name":"interfaceId","type":"bytes4"}],"name":"supportsInterface","outputs":[{"internalType":"bool","name":"","type":"bool"}],"stateMutability":"view","type":"function"},{"inputs":[],"name":"symbol","outputs":[{"internalType":"string","name":"","type":"string"}],"stateMutability":"view","type":"function"},{"inputs":[{"internalType":"uint256","name":"tokenId","type":"uint256"}],"name":"tokenURI","outputs":[{"internalType":"string","name":"","type":"string"}],"stateMutability":"view","type":"function"},{"inputs":[{"internalType":"address","name":"from","type":"address"},{"internalType":"address","name":"to","type":"address"},{"internalType":"uint256","name":"tokenId","type":"uint256"}],"name":"transferFrom","outputs":[],"stateMutability":"nonpayable","type":"function"}],"evm":{"bytecode":{"linkReferences":{},"object":"60806040523480156200001157600080fd5b506040518060400160405280600b81526020017f496e766f696365204e46540000000000000000000000000000000000000000008152506040518060400160405280600681526020017f494e564e4654000000000000000000000000000000000000000000000000000081525081600090816200008f919062000365565b508060019081620000a1919062000365565b50505033600860006101000a81548173ffffffffffffffffffffffffffffffffffffffff021916908373ffffffffffffffffffffffffffffffffffffffff1602179055506200044c565b600081519050919050565b7f4e487b7100000000000000000000000000000000000000000000000000000000600052604160045260246000fd5b7f4e487b7100000000000000000000000000000000000000000000000000000000600052602260045260246000fd5b600060028204905060018216806200016d57607f821691505b60208210810362000183576200018262000125565b5b50919050565b60008190508160005260206000209050919050565b60006020601f8301049050919050565b600082821b905092915050565b600060088302620001ed7fffffffffffffffffffffffffffffffffffffffffffffffffffffffffffffffff82620001ae565b620001f98683620001ae565b95508019841693508086168417925050509392505050565b6000819050919050565b6000819050919050565b600062000246620002406200023a8462000211565b6200021b565b62000211565b9050919050565b6000819050919050565b620002628362000225565b6200027a62000271826200024d565b848454620001bb565b825550505050565b600090565b6200029162000282565b6200029e81848462000257565b505050565b5b81811015620002c657620002ba60008262000287565b600181019050620002a4565b5050565b601f8211156200031557620002df8162000189565b620002ea846200019e565b81016020851015620002fa578190505b6200031262000309856200019e565b830182620002a3565b50505b505050565b600082821c905092915050565b60006200033a600019846008026200031a565b1980831691505092915050565b600062000355838362000327565b9150826002028217905092915050565b6200037082620000eb565b67ffffffffffffffff8111156200038c576200038b620000f6565b5b62000398825462000154565b620003a5828285620002ca565b600060209050601f831160018114620003dd5760008415620003c8578287015190505b620003d4858262000347565b86555062000444565b601f198416620003ed8662000189565b60005b828110156200041757848901518255600182019150602085019450602081019050620003f0565b8683101562000437578489015162000433601f89168262000327565b8355505b6001600288020188555050505b505050505050565b615830806200045c6000396000f3fe608060405260043610620001465760003560e01c806370a0823111620000bb578063b88d4fde1162000079578063b88d4fde146200046b578063bd6624971462000499578063c7db36b914620004c7578063c87b56dd146200050f578063d425e9911462000553578063e985e9c514620005975762000146565b806370a08231146200035757806390c148f2146200039b57806392ba905c14620003df57806395d89b41146200040d578063a22cb465146200043d5762000146565b806323b872dd116200010957806323b872dd146200026157806331163c66146200028f5780633f68026c14620002af57806342842e0e14620002e55780636352211e14620003135762000146565b806301ffc9a7146200014b57806306fdde03146200018f578063081812fc14620001bf578063095ea7b3146200020357806315751a141462000231575b600080fd5b3480156200015857600080fd5b506200017760048036038101906200017191906200383c565b620005db565b6040516200018691906200388b565b60405180910390f35b3480156200019c57600080fd5b50620001a7620006c1565b604051620001b6919062003942565b60405180910390f35b348015620001cc57600080fd5b50620001eb6004803603810190620001e59190620039a1565b6200075b565b604051620001fa919062003a18565b60405180910390f35b3480156200021057600080fd5b506200022f600480360381019062000229919062003a66565b620007a3565b005b3480156200023e57600080fd5b5062000249620008cb565b60405162000258919062003e5c565b60405180910390f35b3480156200026e57600080fd5b506200028d600480360381019062000287919062003e80565b62000ce4565b005b620002ad6004803603810190620002a7919062003f0d565b62000d4d565b005b620002cd6004803603810190620002c7919062004199565b6200188d565b604051620002dc919062004225565b60405180910390f35b348015620002f257600080fd5b506200031160048036038101906200030b919062003e80565b62001a54565b005b3480156200032057600080fd5b506200033f6004803603810190620003399190620039a1565b62001a76565b6040516200034e919062003a18565b60405180910390f35b3480156200036457600080fd5b506200038360048036038101906200037d919062004242565b62001b01565b60405162000392919062004225565b60405180910390f35b348015620003a857600080fd5b50620003c76004803603810190620003c19190620039a1565b62001bbb565b604051620003d6919062003a18565b60405180910390f35b348015620003ec57600080fd5b506200040b600480360381019062000405919062004274565b62001c00565b005b3480156200041a57600080fd5b506200042562001c4d565b60405162000434919062003942565b60405180910390f35b3480156200044a57600080fd5b50620004696004803603810190620004639190620042ef565b62001ce7565b005b3480156200047857600080fd5b50620004976004803603810190620004919190620043ea565b62001d01565b005b348015620004a657600080fd5b50620004c56004803603810190620004bf91906200447b565b62001d6c565b005b348015620004d457600080fd5b50620004f36004803603810190620004ed9190620039a1565b62001df1565b604051620005069594939291906200456d565b60405180910390f35b3480156200051c57600080fd5b506200053b6004803603810190620005359190620039a1565b62001ffd565b6040516200054a919062003942565b60405180910390f35b3480156200056057600080fd5b506200057f6004803603810190620005799190620039a1565b62002123565b6040516200058e919062004698565b60405180910390f35b348015620005a457600080fd5b50620005c36004803603810190620005bd9190620046bc565b620024c5565b604051620005d291906200388b565b60405180910390f35b60007f80ac58cd000000000000000000000000000000000000000000000000000000007bffffffffffffffffffffffffffffffffffffffffffffffffffffffff1916827bffffffffffffffffffffffffffffffffffffffffffffffffffffffff19161480620006a757507f5b5e139f000000000000000000000000000000000000000000000000000000007bffffffffffffffffffffffffffffffffffffffffffffffffffffffff1916827bffffffffffffffffffffffffffffffffffffffffffffffffffffffff1916145b80620006ba5750620006b98262002559565b5b9050919050565b606060008054620006d29062004732565b80601f0160208091040260200160405190810160405280929190818152602001828054620007009062004732565b8015620007515780601f10620007255761010080835404028352916020019162000751565b820191906000526020600020905b8154815290600101906020018083116200073357829003601f168201915b5050505050905090565b60006200076882620025c3565b6004600083815260200190815260200160002060009054906101000a900473ffffffffffffffffffffffffffffffffffffffff169050919050565b6000620007b08262001a76565b90508073ffffffffffffffffffffffffffffffffffffffff168373ffffffffffffffffffffffffffffffffffffffff160362000823576040517f08c379a00000000000000000000000000000000000000000000000000000000081526004016200081a90620047dd565b60405180910390fd5b8073ffffffffffffffffffffffffffffffffffffffff166200084462002613565b73ffffffffffffffffffffffffffffffffffffffff16148062000878575062000877816200087162002613565b620024c5565b5b620008ba576040517f08c379a0000000000000000000000000000000000000000000000000000000008152600401620008b19062004875565b60405180910390fd5b620008c683836200261b565b505050565b60606000620008db6007620026d6565b90506000808267ffffffffffffffff811115620008fd57620008fc62003f89565b5b6040519080825280602002602001820160405280156200093a57816020015b62000926620036bb565b8152602001906001900390816200091c5790505b50905060005b8381101562000cda5760006001826200095a9190620048c6565b90506000600960008381526020019081526020016000209050806040518061010001604052908160008201548152602001600182015481526020016002820160009054906101000a900473ffffffffffffffffffffffffffffffffffffffff1673ffffffffffffffffffffffffffffffffffffffff1673ffffffffffffffffffffffffffffffffffffffff1681526020016003820160009054906101000a900473ffffffffffffffffffffffffffffffffffffffff1673ffffffffffffffffffffffffffffffffffffffff1673ffffffffffffffffffffffffffffffffffffffff1681526020016003820160149054906101000a900460ff161515151581526020016004820154815260200160058201805462000a779062004732565b80601f016020809104026020016040519081016040528092919081815260200182805462000aa59062004732565b801562000af65780601f1062000aca5761010080835404028352916020019162000af6565b820191906000526020600020905b81548152906001019060200180831162000ad857829003601f168201915b5050505050815260200160068201600480602002604051908101604052809291906000905b8282101562000c89578382600602016040518060e00160405290816000820160009054906101000a900473ffffffffffffffffffffffffffffffffffffffff1673ffffffffffffffffffffffffffffffffffffffff1673ffffffffffffffffffffffffffffffffffffffff168152602001600182015481526020016002820154815260200160038201805462000bb19062004732565b80601f016020809104026020016040519081016040528092919081815260200182805462000bdf9062004732565b801562000c305780601f1062000c045761010080835404028352916020019162000c30565b820191906000526020600020905b81548152906001019060200180831162000c1257829003601f168201915b50505050508152602001600482015481526020016005820160009054906101000a900460ff161515151581526020016005820160019054906101000a900460ff1615151515815250508152602001906001019062000b1b565b505050508152505084868151811062000ca75762000ca662004901565b5b6020026020010181905250848062000cbf9062004930565b9550505050808062000cd19062004930565b91505062000940565b5080935050505090565b62000cf962000cf262002613565b82620026e4565b62000d3b576040517f08c379a000000000000000000000000000000000000000000000000000000000815260040162000d3290620049f3565b60405180910390fd5b62000d4883838362002781565b505050565b60006009600084815260200190815260200160002090508060030160149054906101000a900460ff161562000db9576040517f08c379a000000000000000000000000000000000000000000000000000000000815260040162000db09062004a8b565b60405180910390fd5b600080600080600189036200105b578460060160006004811062000de25762000de162004901565b5b6006020160000160009054906101000a900473ffffffffffffffffffffffffffffffffffffffff1673ffffffffffffffffffffffffffffffffffffffff163373ffffffffffffffffffffffffffffffffffffffff161462000e7a576040517f08c379a000000000000000000000000000000000000000000000000000000000815260040162000e719062004afd565b60405180910390fd5b858560060160006004811062000e955762000e9462004901565b5b6006020160050160006101000a81548160ff02191690831515021790555060008560030160009054906101000a900473ffffffffffffffffffffffffffffffffffffffff169050600115158660060160006004811062000efa5762000ef962004901565b5b6006020160050160009054906101000a900460ff16151503620010595760018660060160006004811062000f335762000f3262004901565b5b6006020160020181905550612710808a62000f4f919062004b4e565b62000f5b919062004b86565b9450848660060160006004811062000f785762000f7762004901565b5b600602016004018190555060008190508073ffffffffffffffffffffffffffffffffffffffff1663fd72b6e9876040518263ffffffff1660e01b815260040162000fc3919062004225565b600060405180830381600087803b15801562000fde57600080fd5b505af115801562000ff3573d6000803e3d6000fd5b50505050428760060160006004811062001012576200101162004901565b5b600602016001018190555060018760060160006004811062001039576200103862004901565b5b6006020160050160016101000a81548160ff021916908315150217905550505b505b600289036200130657846006016001600481106200107e576200107d62004901565b5b6006020160000160009054906101000a900473ffffffffffffffffffffffffffffffffffffffff1673ffffffffffffffffffffffffffffffffffffffff163373ffffffffffffffffffffffffffffffffffffffff161462001116576040517f08c379a00000000000000000000000000000000000000000000000000000000081526004016200110d9062004afd565b60405180910390fd5b858560060160016004811062001131576200113062004901565b5b6006020160050160006101000a81548160ff02191690831515021790555060008560030160009054906101000a900473ffffffffffffffffffffffffffffffffffffffff169050600115158660060160016004811062001196576200119562004901565b5b6006020160050160009054906101000a900460ff161515036200130457600286600601600160048110620011cf57620011ce62004901565b5b6006020160020181905550846127106175308b620011ee919062004b4e565b620011fa919062004b86565b62001206919062004bd1565b9350838660060160016004811062001223576200122262004901565b5b600602016004018190555060008190508073ffffffffffffffffffffffffffffffffffffffff1663fd72b6e9866040518263ffffffff1660e01b81526004016200126e919062004225565b600060405180830381600087803b1580156200128957600080fd5b505af11580156200129e573d6000803e3d6000fd5b505050504287600601600160048110620012bd57620012bc62004901565b5b6006020160010181905550600187600601600160048110620012e457620012e362004901565b5b6006020160050160016101000a81548160ff021916908315150217905550505b505b60038903620015b1578460060160026004811062001329576200132862004901565b5b6006020160000160009054906101000a900473ffffffffffffffffffffffffffffffffffffffff1673ffffffffffffffffffffffffffffffffffffffff163373ffffffffffffffffffffffffffffffffffffffff1614620013c1576040517f08c379a0000000000000000000000000000000000000000000000000000000008152600401620013b89062004afd565b60405180910390fd5b8585600601600260048110620013dc57620013db62004901565b5b6006020160050160006101000a81548160ff02191690831515021790555060008560030160009054906101000a900473ffffffffffffffffffffffffffffffffffffffff169050600115158660060160026004811062001441576200144062004901565b5b6006020160050160009054906101000a900460ff16151503620015af576003866006016002600481106200147a576200147962004901565b5b60060201600201819055508361271061c3508b62001499919062004b4e565b620014a5919062004b86565b620014b1919062004bd1565b93508286600601600260048110620014ce57620014cd62004901565b5b600602016004018190555060008190508073ffffffffffffffffffffffffffffffffffffffff1663fd72b6e9856040518263ffffffff1660e01b815260040162001519919062004225565b600060405180830381600087803b1580156200153457600080fd5b505af115801562001549573d6000803e3d6000fd5b50505050428760060160026004811062001568576200156762004901565b5b60060201600101819055506001876006016002600481106200158f576200158e62004901565b5b6006020160050160016101000a81548160ff021916908315150217905550505b505b60048903620018825784600601600360048110620015d457620015d362004901565b5b6006020160000160009054906101000a900473ffffffffffffffffffffffffffffffffffffffff1673ffffffffffffffffffffffffffffffffffffffff163373ffffffffffffffffffffffffffffffffffffffff16146200166c576040517f08c379a0000000000000000000000000000000000000000000000000000000008152600401620016639062004afd565b60405180910390fd5b858560060160036004811062001687576200168662004901565b5b6006020160050160006101000a81548160ff02191690831515021790555060008560030160009054906101000a900473ffffffffffffffffffffffffffffffffffffffff1690506001151586600601600360048110620016ec57620016eb62004901565b5b6006020160050160009054906101000a900460ff16151503620018805760048660060160026004811062001725576200172462004901565b5b60060201600201819055508284866200173f9190620048c6565b6200174b9190620048c6565b86600101546200175c919062004bd1565b9150818660060160036004811062001779576200177862004901565b5b600602016004018190555060008190508073ffffffffffffffffffffffffffffffffffffffff1663fd72b6e9846040518263ffffffff1660e01b8152600401620017c4919062004225565b600060405180830381600087803b158015620017df57600080fd5b505af1158015620017f4573d6000803e3d6000fd5b50505050428760060160036004811062001813576200181262004901565b5b600602016001018190555042876004018190555060018760060160036004811062001843576200184262004901565b5b6006020160050160016101000a81548160ff02191690831515021790555060018760030160146101000a81548160ff021916908315150217905550505b505b505050505050505050565b6000600860009054906101000a900473ffffffffffffffffffffffffffffffffffffffff1673ffffffffffffffffffffffffffffffffffffffff163373ffffffffffffffffffffffffffffffffffffffff161462001922576040517f08c379a0000000000000000000000000000000000000000000000000000000008152600401620019199062004c5c565b60405180910390fd5b6000604051620019329062003736565b604051809103906000f0801580156200194f573d6000803e3d6000fd5b509050600081905062001963600762002a8b565b6000620019716007620026d6565b90506200197f338262002aa1565b6200198b818862002ccf565b60005b600481101562001a3957858160048110620019ae57620019ad62004901565b5b6020020151600960008481526020019081526020016000206006018260048110620019de57620019dd62004901565b5b6006020160000160006101000a81548173ffffffffffffffffffffffffffffffffffffffff021916908373ffffffffffffffffffffffffffffffffffffffff160217905550808062001a309062004930565b9150506200198e565b5062001a4781878462002d43565b8093505050509392505050565b62001a718383836040518060200160405280600081525062001d01565b505050565b60008062001a848362002eab565b9050600073ffffffffffffffffffffffffffffffffffffffff168173ffffffffffffffffffffffffffffffffffffffff160362001af8576040517f08c379a000000000000000000000000000000000000000000000000000000000815260040162001aef9062004cce565b60405180910390fd5b80915050919050565b60008073ffffffffffffffffffffffffffffffffffffffff168273ffffffffffffffffffffffffffffffffffffffff160362001b74576040517f08c379a000000000000000000000000000000000000000000000000000000000815260040162001b6b9062004d66565b60405180910390fd5b600360008373ffffffffffffffffffffffffffffffffffffffff1673ffffffffffffffffffffffffffffffffffffffff168152602001908152602001600020549050919050565b6000806009600084815260200190815260200160002090508060030160009054906101000a900473ffffffffffffffffffffffffffffffffffffffff16915050919050565b60006009600084815260200190815260200160002090508381600601836004811062001c315762001c3062004901565b5b60060201600301908162001c46919062004f5a565b5050505050565b60606001805462001c5e9062004732565b80601f016020809104026020016040519081016040528092919081815260200182805462001c8c9062004732565b801562001cdd5780601f1062001cb15761010080835404028352916020019162001cdd565b820191906000526020600020905b81548152906001019060200180831162001cbf57829003601f168201915b5050505050905090565b62001cfd62001cf562002613565b838362002ee8565b5050565b62001d1662001d0f62002613565b83620026e4565b62001d58576040517f08c379a000000000000000000000000000000000000000000000000000000000815260040162001d4f90620049f3565b60405180910390fd5b62001d668484848462003059565b50505050565b60006009600083815260200190815260200160002090508060030160149054906101000a900460ff161562001dd8576040517f08c379a000000000000000000000000000000000000000000000000000000000815260040162001dcf9062004a8b565b60405180910390fd5b8281600501908162001deb919062004f5a565b50505050565b60008060008062001e0162003744565b6000600960008881526020019081526020016000209050806000015481600101548260030160009054906101000a900473ffffffffffffffffffffffffffffffffffffffff168360030160149054906101000a900460ff168460060180600480602002604051908101604052809291906000905b8282101562001fe3578382600602016040518060e00160405290816000820160009054906101000a900473ffffffffffffffffffffffffffffffffffffffff1673ffffffffffffffffffffffffffffffffffffffff1673ffffffffffffffffffffffffffffffffffffffff168152602001600182015481526020016002820154815260200160038201805462001f0b9062004732565b80601f016020809104026020016040519081016040528092919081815260200182805462001f399062004732565b801562001f8a5780601f1062001f5e5761010080835404028352916020019162001f8a565b820191906000526020600020905b81548152906001019060200180831162001f6c57829003601f168201915b50505050508152602001600482015481526020016005820160009054906101000a900460ff161515151581526020016005820160019054906101000a900460ff1615151515815250508152602001906001019062001e75565b505050509050955095509550955095505091939590929450565b60606200200a82620025c3565b60006006600084815260200190815260200160002080546200202c9062004732565b80601f01602080910402602001604051908101604052809291908181526020018280546200205a9062004732565b8015620020ab5780601f106200207f57610100808354040283529160200191620020ab565b820191906000526020600020905b8154815290600101906020018083116200208d57829003601f168201915b505050505090506000620020be620030bc565b90506000815103620020d55781925050506200211e565b6000825111156200210e578082604051602001620020f592919062005083565b604051602081830303815290604052925050506200211e565b6200211984620030d3565b925050505b919050565b6200212d620036bb565b6000600960008481526020019081526020016000209050600115158160030160149054906101000a900460ff161515036200219f576040517f08c379a00000000000000000000000000000000000000000000000000000000081526004016200219690620050fb565b60405180910390fd5b806040518061010001604052908160008201548152602001600182015481526020016002820160009054906101000a900473ffffffffffffffffffffffffffffffffffffffff1673ffffffffffffffffffffffffffffffffffffffff1673ffffffffffffffffffffffffffffffffffffffff1681526020016003820160009054906101000a900473ffffffffffffffffffffffffffffffffffffffff1673ffffffffffffffffffffffffffffffffffffffff1673ffffffffffffffffffffffffffffffffffffffff1681526020016003820160149054906101000a900460ff1615151515815260200160048201548152602001600582018054620022a39062004732565b80601f0160208091040260200160405190810160405280929190818152602001828054620022d19062004732565b8015620023225780601f10620022f65761010080835404028352916020019162002322565b820191906000526020600020905b8154815290600101906020018083116200230457829003601f168201915b5050505050815260200160068201600480602002604051908101604052809291906000905b82821015620024b5578382600602016040518060e00160405290816000820160009054906101000a900473ffffffffffffffffffffffffffffffffffffffff1673ffffffffffffffffffffffffffffffffffffffff1673ffffffffffffffffffffffffffffffffffffffff1681526020016001820154815260200160028201548152602001600382018054620023dd9062004732565b80601f01602080910402602001604051908101604052809291908181526020018280546200240b9062004732565b80156200245c5780601f1062002430576101008083540402835291602001916200245c565b820191906000526020600020905b8154815290600101906020018083116200243e57829003601f168201915b50505050508152602001600482015481526020016005820160009054906101000a900460ff161515151581526020016005820160019054906101000a900460ff1615151515815250508152602001906001019062002347565b5050505081525050915050919050565b6000600560008473ffffffffffffffffffffffffffffffffffffffff1673ffffffffffffffffffffffffffffffffffffffff16815260200190815260200160002060008373ffffffffffffffffffffffffffffffffffffffff1673ffffffffffffffffffffffffffffffffffffffff16815260200190815260200160002060009054906101000a900460ff16905092915050565b60007f01ffc9a7000000000000000000000000000000000000000000000000000000007bffffffffffffffffffffffffffffffffffffffffffffffffffffffff1916827bffffffffffffffffffffffffffffffffffffffffffffffffffffffff1916149050919050565b620025ce8162003145565b62002610576040517f08c379a0000000000000000000000000000000000000000000000000000000008152600401620026079062004cce565b60405180910390fd5b50565b600033905090565b816004600083815260200190815260200160002060006101000a81548173ffffffffffffffffffffffffffffffffffffffff021916908373ffffffffffffffffffffffffffffffffffffffff160217905550808273ffffffffffffffffffffffffffffffffffffffff16620026908362001a76565b73ffffffffffffffffffffffffffffffffffffffff167f8c5be1e5ebec7d5bd14f71427d1e84f3dd0314c0f7b2291e5b200ac8c7c3b92560405160405180910390a45050565b600081600001549050919050565b600080620026f28362001a76565b90508073ffffffffffffffffffffffffffffffffffffffff168473ffffffffffffffffffffffffffffffffffffffff161480620027375750620027368185620024c5565b5b806200277857508373ffffffffffffffffffffffffffffffffffffffff1662002760846200075b565b73ffffffffffffffffffffffffffffffffffffffff16145b91505092915050565b8273ffffffffffffffffffffffffffffffffffffffff16620027a38262001a76565b73ffffffffffffffffffffffffffffffffffffffff1614620027fc576040517f08c379a0000000000000000000000000000000000000000000000000000000008152600401620027f39062005193565b60405180910390fd5b600073ffffffffffffffffffffffffffffffffffffffff168273ffffffffffffffffffffffffffffffffffffffff16036200286e576040517f08c379a000000000000000000000000000000000000000000000000000000000815260040162002865906200522b565b60405180910390fd5b6200287d838383600162003188565b8273ffffffffffffffffffffffffffffffffffffffff166200289f8262001a76565b73ffffffffffffffffffffffffffffffffffffffff1614620028f8576040517f08c379a0000000000000000000000000000000000000000000000000000000008152600401620028ef9062005193565b60405180910390fd5b6004600082815260200190815260200160002060006101000a81549073ffffffffffffffffffffffffffffffffffffffff02191690556001600360008573ffffffffffffffffffffffffffffffffffffffff1673ffffffffffffffffffffffffffffffffffffffff168152602001908152602001600020600082825403925050819055506001600360008473ffffffffffffffffffffffffffffffffffffffff1673ffffffffffffffffffffffffffffffffffffffff16815260200190815260200160002060008282540192505081905550816002600083815260200190815260200160002060006101000a81548173ffffffffffffffffffffffffffffffffffffffff021916908373ffffffffffffffffffffffffffffffffffffffff160217905550808273ffffffffffffffffffffffffffffffffffffffff168473ffffffffffffffffffffffffffffffffffffffff167fddf252ad1be2c89b69c2b068fc378daa952ba7f163c4a11628f55a4df523b3ef60405160405180910390a462002a868383836001620032b5565b505050565b6001816000016000828254019250508190555050565b600073ffffffffffffffffffffffffffffffffffffffff168273ffffffffffffffffffffffffffffffffffffffff160362002b13576040517f08c379a000000000000000000000000000000000000000000000000000000000815260040162002b0a906200529d565b60405180910390fd5b62002b1e8162003145565b1562002b61576040517f08c379a000000000000000000000000000000000000000000000000000000000815260040162002b58906200530f565b60405180910390fd5b62002b7160008383600162003188565b62002b7c8162003145565b1562002bbf576040517f08c379a000000000000000000000000000000000000000000000000000000000815260040162002bb6906200530f565b60405180910390fd5b6001600360008473ffffffffffffffffffffffffffffffffffffffff1673ffffffffffffffffffffffffffffffffffffffff16815260200190815260200160002060008282540192505081905550816002600083815260200190815260200160002060006101000a81548173ffffffffffffffffffffffffffffffffffffffff021916908373ffffffffffffffffffffffffffffffffffffffff160217905550808273ffffffffffffffffffffffffffffffffffffffff16600073ffffffffffffffffffffffffffffffffffffffff167fddf252ad1be2c89b69c2b068fc378daa952ba7f163c4a11628f55a4df523b3ef60405160405180910390a462002ccb600083836001620032b5565b5050565b62002cda8262003145565b62002d1c576040517f08c379a000000000000000000000000000000000000000000000000000000000815260040162002d1390620053a7565b60405180910390fd5b8060066000848152602001908152602001600020908162002d3e919062004f5a565b505050565b6000821162002d89576040517f08c379a000000000000000000000000000000000000000000000000000000000815260040162002d809062005419565b60405180910390fd5b826009600085815260200190815260200160002060000181905550816009600085815260200190815260200160002060010181905550426009600085815260200190815260200160002060040181905550806009600085815260200190815260200160002060030160006101000a81548173ffffffffffffffffffffffffffffffffffffffff021916908373ffffffffffffffffffffffffffffffffffffffff160217905550600860009054906101000a900473ffffffffffffffffffffffffffffffffffffffff166009600085815260200190815260200160002060020160006101000a81548173ffffffffffffffffffffffffffffffffffffffff021916908373ffffffffffffffffffffffffffffffffffffffff160217905550505050565b60006002600083815260200190815260200160002060009054906101000a900473ffffffffffffffffffffffffffffffffffffffff169050919050565b8173ffffffffffffffffffffffffffffffffffffffff168373ffffffffffffffffffffffffffffffffffffffff160362002f59576040517f08c379a000000000000000000000000000000000000000000000000000000000815260040162002f50906200548b565b60405180910390fd5b80600560008573ffffffffffffffffffffffffffffffffffffffff1673ffffffffffffffffffffffffffffffffffffffff16815260200190815260200160002060008473ffffffffffffffffffffffffffffffffffffffff1673ffffffffffffffffffffffffffffffffffffffff16815260200190815260200160002060006101000a81548160ff0219169083151502179055508173ffffffffffffffffffffffffffffffffffffffff168373ffffffffffffffffffffffffffffffffffffffff167f17307eab39ab6107e8899845ad3d59bd9653f200f220920489ca2b5937696c31836040516200304c91906200388b565b60405180910390a3505050565b6200306684848462002781565b6200307484848484620032bb565b620030b6576040517f08c379a0000000000000000000000000000000000000000000000000000000008152600401620030ad9062005523565b60405180910390fd5b50505050565b606060405180602001604052806000815250905090565b6060620030e082620025c3565b6000620030ec620030bc565b905060008151116200310e57604051806020016040528060008152506200313d565b806200311a8462003453565b6040516020016200312d92919062005083565b6040516020818303038152906040525b915050919050565b60008073ffffffffffffffffffffffffffffffffffffffff16620031698362002eab565b73ffffffffffffffffffffffffffffffffffffffff1614159050919050565b6001811115620032af57600073ffffffffffffffffffffffffffffffffffffffff168473ffffffffffffffffffffffffffffffffffffffff1614620032205780600360008673ffffffffffffffffffffffffffffffffffffffff1673ffffffffffffffffffffffffffffffffffffffff168152602001908152602001600020600082825462003218919062004bd1565b925050819055505b600073ffffffffffffffffffffffffffffffffffffffff168373ffffffffffffffffffffffffffffffffffffffff1614620032ae5780600360008573ffffffffffffffffffffffffffffffffffffffff1673ffffffffffffffffffffffffffffffffffffffff1681526020019081526020016000206000828254620032a69190620048c6565b925050819055505b5b50505050565b50505050565b6000620032de8473ffffffffffffffffffffffffffffffffffffffff166200352c565b1562003446578373ffffffffffffffffffffffffffffffffffffffff1663150b7a026200330a62002613565b8786866040518563ffffffff1660e01b81526004016200332e9493929190620055a2565b6020604051808303816000875af19250505080156200336d57506040513d601f19601f820116820180604052508101906200336a91906200560d565b60015b620033f5573d8060008114620033a0576040519150601f19603f3d011682016040523d82523d6000602084013e620033a5565b606091505b506000815103620033ed576040517f08c379a0000000000000000000000000000000000000000000000000000000008152600401620033e49062005523565b60405180910390fd5b805181602001fd5b63150b7a0260e01b7bffffffffffffffffffffffffffffffffffffffffffffffffffffffff1916817bffffffffffffffffffffffffffffffffffffffffffffffffffffffff1916149150506200344b565b600190505b949350505050565b60606000600162003464846200354f565b01905060008167ffffffffffffffff81111562003486576200348562003f89565b5b6040519080825280601f01601f191660200182016040528015620034b95781602001600182028036833780820191505090505b509050600082602001820190505b60011562003521578080600190039150507f3031323334353637383961626364656600000000000000000000000000000000600a86061a8153600a858162003514576200351362004b1f565b5b04945060008503620034c7575b819350505050919050565b6000808273ffffffffffffffffffffffffffffffffffffffff163b119050919050565b600080600090507a184f03e93ff9f4daa797ed6e38ed64bf6a1f0100000000000000008310620035b1577a184f03e93ff9f4daa797ed6e38ed64bf6a1f0100000000000000008381620035a757620035a662004b1f565b5b0492506040810190505b6d04ee2d6d415b85acef81000000008310620035f2576d04ee2d6d415b85acef81000000008381620035e857620035e762004b1f565b5b0492506020810190505b662386f26fc1000083106200362557662386f26fc1000083816200361b576200361a62004b1f565b5b0492506010810190505b6305f5e100831062003652576305f5e100838162003648576200364762004b1f565b5b0492506008810190505b61271083106200367b57612710838162003671576200367062004b1f565b5b0492506004810190505b60648310620036a2576064838162003698576200369762004b1f565b5b0492506002810190505b600a8310620036b2576001810190505b80915050919050565b6040518061010001604052806000815260200160008152602001600073ffffffffffffffffffffffffffffffffffffffff168152602001600073ffffffffffffffffffffffffffffffffffffffff16815260200160001515815260200160008152602001606081526020016200373062003744565b81525090565b6101bb806200564083390190565b60405180608001604052806004905b6200375d62003774565b815260200190600190039081620037535790505090565b6040518060e00160405280600073ffffffffffffffffffffffffffffffffffffffff168152602001600081526020016000815260200160608152602001600081526020016000151581526020016000151581525090565b6000604051905090565b600080fd5b600080fd5b60007fffffffff0000000000000000000000000000000000000000000000000000000082169050919050565b6200381681620037df565b81146200382257600080fd5b50565b60008135905062003836816200380b565b92915050565b600060208284031215620038555762003854620037d5565b5b6000620038658482850162003825565b91505092915050565b60008115159050919050565b62003885816200386e565b82525050565b6000602082019050620038a260008301846200387a565b92915050565b600081519050919050565b600082825260208201905092915050565b60005b83811015620038e4578082015181840152602081019050620038c7565b60008484015250505050565b6000601f19601f8301169050919050565b60006200390e82620038a8565b6200391a8185620038b3565b93506200392c818560208601620038c4565b6200393781620038f0565b840191505092915050565b600060208201905081810360008301526200395e818462003901565b905092915050565b6000819050919050565b6200397b8162003966565b81146200398757600080fd5b50565b6000813590506200399b8162003970565b92915050565b600060208284031215620039ba57620039b9620037d5565b5b6000620039ca848285016200398a565b91505092915050565b600073ffffffffffffffffffffffffffffffffffffffff82169050919050565b600062003a0082620039d3565b9050919050565b62003a1281620039f3565b82525050565b600060208201905062003a2f600083018462003a07565b92915050565b62003a4081620039f3565b811462003a4c57600080fd5b50565b60008135905062003a608162003a35565b92915050565b6000806040838503121562003a805762003a7f620037d5565b5b600062003a908582860162003a4f565b925050602062003aa3858286016200398a565b9150509250929050565b600081519050919050565b600082825260208201905092915050565b6000819050602082019050919050565b62003ae48162003966565b82525050565b600062003af782620039d3565b9050919050565b62003b098162003aea565b82525050565b62003b1a81620039f3565b82525050565b62003b2b816200386e565b82525050565b600082825260208201905092915050565b600062003b4f82620038a8565b62003b5b818562003b31565b935062003b6d818560208601620038c4565b62003b7881620038f0565b840191505092915050565b600060049050919050565b600081905092915050565b6000819050919050565b600060e08301600083015162003bbd600086018262003b0f565b50602083015162003bd2602086018262003ad9565b50604083015162003be7604086018262003ad9565b506060830151848203606086015262003c01828262003b42565b915050608083015162003c18608086018262003ad9565b5060a083015162003c2d60a086018262003b20565b5060c083015162003c4260c086018262003b20565b508091505092915050565b600062003c5b838362003ba3565b905092915050565b6000602082019050919050565b600062003c7d8262003b83565b62003c89818562003b8e565b93508360208202850162003c9d8562003b99565b8060005b8581101562003cdf578484038952815162003cbd858262003c4d565b945062003cca8362003c63565b925060208a0199505060018101905062003ca1565b50829750879550505050505092915050565b60006101008301600083015162003d0c600086018262003ad9565b50602083015162003d21602086018262003ad9565b50604083015162003d36604086018262003afe565b50606083015162003d4b606086018262003b0f565b50608083015162003d60608086018262003b20565b5060a083015162003d7560a086018262003ad9565b5060c083015184820360c086015262003d8f828262003b42565b91505060e083015184820360e086015262003dab828262003c70565b9150508091505092915050565b600062003dc6838362003cf1565b905092915050565b6000602082019050919050565b600062003de88262003aad565b62003df4818562003ab8565b93508360208202850162003e088562003ac9565b8060005b8581101562003e4a578484038952815162003e28858262003db8565b945062003e358362003dce565b925060208a0199505060018101905062003e0c565b50829750879550505050505092915050565b6000602082019050818103600083015262003e78818462003ddb565b905092915050565b60008060006060848603121562003e9c5762003e9b620037d5565b5b600062003eac8682870162003a4f565b935050602062003ebf8682870162003a4f565b925050604062003ed2868287016200398a565b9150509250925092565b62003ee7816200386e565b811462003ef357600080fd5b50565b60008135905062003f078162003edc565b92915050565b6000806000806080858703121562003f2a5762003f29620037d5565b5b600062003f3a878288016200398a565b945050602062003f4d878288016200398a565b935050604062003f60878288016200398a565b925050606062003f738782880162003ef6565b91505092959194509250565b600080fd5b600080fd5b7f4e487b7100000000000000000000000000000000000000000000000000000000600052604160045260246000fd5b62003fc382620038f0565b810181811067ffffffffffffffff8211171562003fe55762003fe462003f89565b5b80604052505050565b600062003ffa620037cb565b905062004008828262003fb8565b919050565b600067ffffffffffffffff8211156200402b576200402a62003f89565b5b6200403682620038f0565b9050602081019050919050565b82818337600083830152505050565b60006200406962004063846200400d565b62003fee565b90508281526020810184848401111562004088576200408762003f84565b5b6200409584828562004043565b509392505050565b600082601f830112620040b557620040b462003f7f565b5b8135620040c784826020860162004052565b91505092915050565b600067ffffffffffffffff821115620040ee57620040ed62003f89565b5b602082029050919050565b600080fd5b6000620041156200410f84620040d0565b62003fee565b90508060208402830185811115620041325762004131620040f9565b5b835b818110156200415f57806200414a888262003a4f565b84526020840193505060208101905062004134565b5050509392505050565b600082601f83011262004181576200418062003f7f565b5b600462004190848285620040fe565b91505092915050565b600080600060c08486031215620041b557620041b4620037d5565b5b600084013567ffffffffffffffff811115620041d657620041d5620037da565b5b620041e4868287016200409d565b9350506020620041f7868287016200398a565b92505060406200420a8682870162004169565b9150509250925092565b6200421f8162003966565b82525050565b60006020820190506200423c600083018462004214565b92915050565b6000602082840312156200425b576200425a620037d5565b5b60006200426b8482850162003a4f565b91505092915050565b60008060006060848603121562004290576200428f620037d5565b5b600084013567ffffffffffffffff811115620042b157620042b0620037da565b5b620042bf868287016200409d565b9350506020620042d2868287016200398a565b9250506040620042e5868287016200398a565b9150509250925092565b60008060408385031215620043095762004308620037d5565b5b6000620043198582860162003a4f565b92505060206200432c8582860162003ef6565b9150509250929050565b600067ffffffffffffffff82111562004354576200435362003f89565b5b6200435f82620038f0565b9050602081019050919050565b6000620043836200437d8462004336565b62003fee565b905082815260208101848484011115620043a257620043a162003f84565b5b620043af84828562004043565b509392505050565b600082601f830112620043cf57620043ce62003f7f565b5b8135620043e18482602086016200436c565b91505092915050565b60008060008060808587031215620044075762004406620037d5565b5b6000620044178782880162003a4f565b94505060206200442a8782880162003a4f565b93505060406200443d878288016200398a565b925050606085013567ffffffffffffffff811115620044615762004460620037da565b5b6200446f87828801620043b7565b91505092959194509250565b60008060408385031215620044955762004494620037d5565b5b600083013567ffffffffffffffff811115620044b657620044b5620037da565b5b620044c4858286016200409d565b9250506020620044d7858286016200398a565b9150509250929050565b600081905092915050565b6000620044f98262003b83565b620045058185620044e1565b935083602082028501620045198562003b99565b8060005b858110156200455b578484038952815162004539858262003c4d565b9450620045468362003c63565b925060208a019950506001810190506200451d565b50829750879550505050505092915050565b600060a08201905062004584600083018862004214565b62004593602083018762004214565b620045a2604083018662003a07565b620045b160608301856200387a565b8181036080830152620045c58184620044ec565b90509695505050505050565b600061010083016000830151620045ec600086018262003ad9565b50602083015162004601602086018262003ad9565b50604083015162004616604086018262003afe565b5060608301516200462b606086018262003b0f565b50608083015162004640608086018262003b20565b5060a08301516200465560a086018262003ad9565b5060c083015184820360c08601526200466f828262003b42565b91505060e083015184820360e08601526200468b828262003c70565b9150508091505092915050565b60006020820190508181036000830152620046b48184620045d1565b905092915050565b60008060408385031215620046d657620046d5620037d5565b5b6000620046e68582860162003a4f565b9250506020620046f98582860162003a4f565b9150509250929050565b7f4e487b7100000000000000000000000000000000000000000000000000000000600052602260045260246000fd5b600060028204905060018216806200474b57607f821691505b60208210810362004761576200476062004703565b5b50919050565b7f4552433732313a20617070726f76616c20746f2063757272656e74206f776e6560008201527f7200000000000000000000000000000000000000000000000000000000000000602082015250565b6000620047c5602183620038b3565b9150620047d28262004767565b604082019050919050565b60006020820190508181036000830152620047f881620047b6565b9050919050565b7f4552433732313a20617070726f76652063616c6c6572206973206e6f7420746f60008201527f6b656e206f776e6572206f7220617070726f76656420666f7220616c6c000000602082015250565b60006200485d603d83620038b3565b91506200486a82620047ff565b604082019050919050565b6000602082019050818103600083015262004890816200484e565b9050919050565b7f4e487b7100000000000000000000000000000000000000000000000000000000600052601160045260246000fd5b6000620048d38262003966565b9150620048e08362003966565b9250828201905080821115620048fb57620048fa62004897565b5b92915050565b7f4e487b7100000000000000000000000000000000000000000000000000000000600052603260045260246000fd5b60006200493d8262003966565b91507fffffffffffffffffffffffffffffffffffffffffffffffffffffffffffffffff820362004972576200497162004897565b5b600182019050919050565b7f4552433732313a2063616c6c6572206973206e6f7420746f6b656e206f776e6560008201527f72206f7220617070726f76656400000000000000000000000000000000000000602082015250565b6000620049db602d83620038b3565b9150620049e8826200497d565b604082019050919050565b6000602082019050818103600083015262004a0e81620049cc565b9050919050565b7f46696e616c20696e766f69636520697320616c72656164792067656e6572617460008201527f65642e0000000000000000000000000000000000000000000000000000000000602082015250565b600062004a73602383620038b3565b915062004a808262004a15565b604082019050919050565b6000602082019050818103600083015262004aa68162004a64565b9050919050565b7f61646472657373206973206e6f7420617070726f7665722e0000000000000000600082015250565b600062004ae5601883620038b3565b915062004af28262004aad565b602082019050919050565b6000602082019050818103600083015262004b188162004ad6565b9050919050565b7f4e487b7100000000000000000000000000000000000000000000000000000000600052601260045260246000fd5b600062004b5b8262003966565b915062004b688362003966565b92508262004b7b5762004b7a62004b1f565b5b828204905092915050565b600062004b938262003966565b915062004ba08362003966565b925082820262004bb08162003966565b9150828204841483151762004bca5762004bc962004897565b5b5092915050565b600062004bde8262003966565b915062004beb8362003966565b925082820390508181111562004c065762004c0562004897565b5b92915050565b7f4e6f74206f776e65720000000000000000000000000000000000000000000000600082015250565b600062004c44600983620038b3565b915062004c518262004c0c565b602082019050919050565b6000602082019050818103600083015262004c778162004c35565b9050919050565b7f4552433732313a20696e76616c696420746f6b656e2049440000000000000000600082015250565b600062004cb6601883620038b3565b915062004cc38262004c7e565b602082019050919050565b6000602082019050818103600083015262004ce98162004ca7565b9050919050565b7f4552433732313a2061646472657373207a65726f206973206e6f74206120766160008201527f6c6964206f776e65720000000000000000000000000000000000000000000000602082015250565b600062004d4e602983620038b3565b915062004d5b8262004cf0565b604082019050919050565b6000602082019050818103600083015262004d818162004d3f565b9050919050565b60008190508160005260206000209050919050565b60006020601f8301049050919050565b600082821b905092915050565b60006008830262004dec7fffffffffffffffffffffffffffffffffffffffffffffffffffffffffffffffff8262004dad565b62004df8868362004dad565b95508019841693508086168417925050509392505050565b6000819050919050565b600062004e3b62004e3562004e2f8462003966565b62004e10565b62003966565b9050919050565b6000819050919050565b62004e578362004e1a565b62004e6f62004e668262004e42565b84845462004dba565b825550505050565b600090565b62004e8662004e77565b62004e9381848462004e4c565b505050565b5b8181101562004ebb5762004eaf60008262004e7c565b60018101905062004e99565b5050565b601f82111562004f0a5762004ed48162004d88565b62004edf8462004d9d565b8101602085101562004eef578190505b62004f0762004efe8562004d9d565b83018262004e98565b50505b505050565b600082821c905092915050565b600062004f2f6000198460080262004f0f565b1980831691505092915050565b600062004f4a838362004f1c565b9150826002028217905092915050565b62004f6582620038a8565b67ffffffffffffffff81111562004f815762004f8062003f89565b5b62004f8d825462004732565b62004f9a82828562004ebf565b600060209050601f83116001811462004fd2576000841562004fbd578287015190505b62004fc9858262004f3c565b86555062005039565b601f19841662004fe28662004d88565b60005b828110156200500c5784890151825560018201915060208501945060208101905062004fe5565b868310156200502c578489015162005028601f89168262004f1c565b8355505b6001600288020188555050505b505050505050565b600081905092915050565b60006200505982620038a8565b62005065818562005041565b935062005077818560208601620038c4565b80840191505092915050565b60006200509182856200504c565b91506200509f82846200504c565b91508190509392505050565b7f496e766f696365206973206e6f742066756c6c7920636f6d706c657465642e00600082015250565b6000620050e3601f83620038b3565b9150620050f082620050ab565b602082019050919050565b600060208201905081810360008301526200511681620050d4565b9050919050565b7f4552433732313a207472616e736665722066726f6d20696e636f72726563742060008201527f6f776e6572000000000000000000000000000000000000000000000000000000602082015250565b60006200517b602583620038b3565b915062005188826200511d565b604082019050919050565b60006020820190508181036000830152620051ae816200516c565b9050919050565b7f4552433732313a207472616e7366657220746f20746865207a65726f2061646460008201527f7265737300000000000000000000000000000000000000000000000000000000602082015250565b600062005213602483620038b3565b91506200522082620051b5565b604082019050919050565b60006020820190508181036000830152620052468162005204565b9050919050565b7f4552433732313a206d696e7420746f20746865207a65726f2061646472657373600082015250565b600062005285602083620038b3565b915062005292826200524d565b602082019050919050565b60006020820190508181036000830152620052b88162005276565b9050919050565b7f4552433732313a20746f6b656e20616c7265616479206d696e74656400000000600082015250565b6000620052f7601c83620038b3565b91506200530482620052bf565b602082019050919050565b600060208201905081810360008301526200532a81620052e8565b9050919050565b7f45524337323155524953746f726167653a2055524920736574206f66206e6f6e60008201527f6578697374656e7420746f6b656e000000000000000000000000000000000000602082015250565b60006200538f602e83620038b3565b91506200539c8262005331565b604082019050919050565b60006020820190508181036000830152620053c28162005380565b9050919050565b7f73686970696e67466565206973207a65726f2e00000000000000000000000000600082015250565b600062005401601383620038b3565b91506200540e82620053c9565b602082019050919050565b600060208201905081810360008301526200543481620053f2565b9050919050565b7f4552433732313a20617070726f766520746f2063616c6c657200000000000000600082015250565b600062005473601983620038b3565b915062005480826200543b565b602082019050919050565b60006020820190508181036000830152620054a68162005464565b9050919050565b7f4552433732313a207472616e7366657220746f206e6f6e20455243373231526560008201527f63656976657220696d706c656d656e7465720000000000000000000000000000602082015250565b60006200550b603283620038b3565b91506200551882620054ad565b604082019050919050565b600060208201905081810360008301526200553e81620054fc565b9050919050565b600081519050919050565b600082825260208201905092915050565b60006200556e8262005545565b6200557a818562005550565b93506200558c818560208601620038c4565b6200559781620038f0565b840191505092915050565b6000608082019050620055b9600083018762003a07565b620055c8602083018662003a07565b620055d7604083018562004214565b8181036060830152620055eb818462005561565b905095945050505050565b60008151905062005607816200380b565b92915050565b600060208284031215620056265762005625620037d5565b5b60006200563684828501620055f6565b9150509291505056fe60806040527322b6dd4d6d818e2ebce3d2e009a249f8fbf4e9656000806101000a81548173ffffffffffffffffffffffffffffffffffffffff021916908373ffffffffffffffffffffffffffffffffffffffff16021790555034801561006457600080fd5b50610147806100746000396000f3fe60806040526004361061001e5760003560e01c8063fd72b6e914610023575b600080fd5b61003d600480360381019061003891906100e4565b61003f565b005b60008054906101000a900473ffffffffffffffffffffffffffffffffffffffff1673ffffffffffffffffffffffffffffffffffffffff166108fc829081150290604051600060405180830381858888f193505050501580156100a5573d6000803e3d6000fd5b5050565b600080fd5b6000819050919050565b6100c1816100ae565b81146100cc57600080fd5b50565b6000813590506100de816100b8565b92915050565b6000602082840312156100fa576100f96100a9565b5b6000610108848285016100cf565b9150509291505056fea2646970667358221220a0c75722b70a7cfa226c2a1aa5e5afe41985828409997955aec6abafdc202fb364736f6c63430008110033a2646970667358221220a41bca0a712fbf5b3d7db468950aa09d549fa8bd8573c9dd9b1cf86be0664f5c64736f6c63430008110033","opcodes":"PUSH1 0x80 PUSH1 0x40 MSTORE CALLVALUE DUP1 ISZERO PUSH3 0x11 JUMPI PUSH1 0x0 DUP1 REVERT JUMPDEST POP PUSH1 0x40 MLOAD DUP1 PUSH1 0x40 ADD PUSH1 0x40 MSTORE DUP1 PUSH1 0xB DUP2 MSTORE PUSH1 0x20 ADD PUSH32 0x496E766F696365204E4654000000000000000000000000000000000000000000 DUP2 MSTORE POP PUSH1 0x40 MLOAD DUP1 PUSH1 0x40 ADD PUSH1 0x40 MSTORE DUP1 PUSH1 0x6 DUP2 MSTORE PUSH1 0x20 ADD PUSH32 0x494E564E46540000000000000000000000000000000000000000000000000000 DUP2 MSTORE POP DUP2 PUSH1 0x0 SWAP1 DUP2 PUSH3 0x8F SWAP2 SWAP1 PUSH3 0x365 JUMP JUMPDEST POP DUP1 PUSH1 0x1 SWAP1 DUP2 PUSH3 0xA1 SWAP2 SWAP1 PUSH3 0x365 JUMP JUMPDEST POP POP POP CALLER PUSH1 0x8 PUSH1 0x0 PUSH2 0x100 EXP DUP2 SLOAD DUP2 PUSH20 0xFFFFFFFFFFFFFFFFFFFFFFFFFFFFFFFFFFFFFFFF MUL NOT AND SWAP1 DUP4 PUSH20 0xFFFFFFFFFFFFFFFFFFFFFFFFFFFFFFFFFFFFFFFF AND MUL OR SWAP1 SSTORE POP PUSH3 0x44C JUMP JUMPDEST PUSH1 0x0 DUP2 MLOAD SWAP1 POP SWAP2 SWAP1 POP JUMP JUMPDEST PUSH32 0x4E487B7100000000000000000000000000000000000000000000000000000000 PUSH1 0x0 MSTORE PUSH1 0x41 PUSH1 0x4 MSTORE PUSH1 0x24 PUSH1 0x0 REVERT JUMPDEST PUSH32 0x4E487B7100000000000000000000000000000000000000000000000000000000 PUSH1 0x0 MSTORE PUSH1 0x22 PUSH1 0x4 MSTORE PUSH1 0x24 PUSH1 0x0 REVERT JUMPDEST PUSH1 0x0 PUSH1 0x2 DUP3 DIV SWAP1 POP PUSH1 0x1 DUP3 AND DUP1 PUSH3 0x16D JUMPI PUSH1 0x7F DUP3 AND SWAP2 POP JUMPDEST PUSH1 0x20 DUP3 LT DUP2 SUB PUSH3 0x183 JUMPI PUSH3 0x182 PUSH3 0x125 JUMP JUMPDEST JUMPDEST POP SWAP2 SWAP1 POP JUMP JUMPDEST PUSH1 0x0 DUP2 SWAP1 POP DUP2 PUSH1 0x0 MSTORE PUSH1 0x20 PUSH1 0x0 KECCAK256 SWAP1 POP SWAP2 SWAP1 POP JUMP JUMPDEST PUSH1 0x0 PUSH1 0x20 PUSH1 0x1F DUP4 ADD DIV SWAP1 POP SWAP2 SWAP1 POP JUMP JUMPDEST PUSH1 0x0 DUP3 DUP3 SHL SWAP1 POP SWAP3 SWAP2 POP POP JUMP JUMPDEST PUSH1 0x0 PUSH1 0x8 DUP4 MUL PUSH3 0x1ED PUSH32 0xFFFFFFFFFFFFFFFFFFFFFFFFFFFFFFFFFFFFFFFFFFFFFFFFFFFFFFFFFFFFFFFF DUP3 PUSH3 0x1AE JUMP JUMPDEST PUSH3 0x1F9 DUP7 DUP4 PUSH3 0x1AE JUMP JUMPDEST SWAP6 POP DUP1 NOT DUP5 AND SWAP4 POP DUP1 DUP7 AND DUP5 OR SWAP3 POP POP POP SWAP4 SWAP3 POP POP POP JUMP JUMPDEST PUSH1 0x0 DUP2 SWAP1 POP SWAP2 SWAP1 POP JUMP JUMPDEST PUSH1 0x0 DUP2 SWAP1 POP SWAP2 SWAP1 POP JUMP JUMPDEST PUSH1 0x0 PUSH3 0x246 PUSH3 0x240 PUSH3 0x23A DUP5 PUSH3 0x211 JUMP JUMPDEST PUSH3 0x21B JUMP JUMPDEST PUSH3 0x211 JUMP JUMPDEST SWAP1 POP SWAP2 SWAP1 POP JUMP JUMPDEST PUSH1 0x0 DUP2 SWAP1 POP SWAP2 SWAP1 POP JUMP JUMPDEST PUSH3 0x262 DUP4 PUSH3 0x225 JUMP JUMPDEST PUSH3 0x27A PUSH3 0x271 DUP3 PUSH3 0x24D JUMP JUMPDEST DUP5 DUP5 SLOAD PUSH3 0x1BB JUMP JUMPDEST DUP3 SSTORE POP POP POP POP JUMP JUMPDEST PUSH1 0x0 SWAP1 JUMP JUMPDEST PUSH3 0x291 PUSH3 0x282 JUMP JUMPDEST PUSH3 0x29E DUP2 DUP5 DUP5 PUSH3 0x257 JUMP JUMPDEST POP POP POP JUMP JUMPDEST JUMPDEST DUP2 DUP2 LT ISZERO PUSH3 0x2C6 JUMPI PUSH3 0x2BA PUSH1 0x0 DUP3 PUSH3 0x287 JUMP JUMPDEST PUSH1 0x1 DUP2 ADD SWAP1 POP PUSH3 0x2A4 JUMP JUMPDEST POP POP JUMP JUMPDEST PUSH1 0x1F DUP3 GT ISZERO PUSH3 0x315 JUMPI PUSH3 0x2DF DUP2 PUSH3 0x189 JUMP JUMPDEST PUSH3 0x2EA DUP5 PUSH3 0x19E JUMP JUMPDEST DUP2 ADD PUSH1 0x20 DUP6 LT ISZERO PUSH3 0x2FA JUMPI DUP2 SWAP1 POP JUMPDEST PUSH3 0x312 PUSH3 0x309 DUP6 PUSH3 0x19E JUMP JUMPDEST DUP4 ADD DUP3 PUSH3 0x2A3 JUMP JUMPDEST POP POP JUMPDEST POP POP POP JUMP JUMPDEST PUSH1 0x0 DUP3 DUP3 SHR SWAP1 POP SWAP3 SWAP2 POP POP JUMP JUMPDEST PUSH1 0x0 PUSH3 0x33A PUSH1 0x0 NOT DUP5 PUSH1 0x8 MUL PUSH3 0x31A JUMP JUMPDEST NOT DUP1 DUP4 AND SWAP2 POP POP SWAP3 SWAP2 POP POP JUMP JUMPDEST PUSH1 0x0 PUSH3 0x355 DUP4 DUP4 PUSH3 0x327 JUMP JUMPDEST SWAP2 POP DUP3 PUSH1 0x2 MUL DUP3 OR SWAP1 POP SWAP3 SWAP2 POP POP JUMP JUMPDEST PUSH3 0x370 DUP3 PUSH3 0xEB JUMP JUMPDEST PUSH8 0xFFFFFFFFFFFFFFFF DUP2 GT ISZERO PUSH3 0x38C JUMPI PUSH3 0x38B PUSH3 0xF6 JUMP JUMPDEST JUMPDEST PUSH3 0x398 DUP3 SLOAD PUSH3 0x154 JUMP JUMPDEST PUSH3 0x3A5 DUP3 DUP3 DUP6 PUSH3 0x2CA JUMP JUMPDEST PUSH1 0x0 PUSH1 0x20 SWAP1 POP PUSH1 0x1F DUP4 GT PUSH1 0x1 DUP2 EQ PUSH3 0x3DD JUMPI PUSH1 0x0 DUP5 ISZERO PUSH3 0x3C8 JUMPI DUP3 DUP8 ADD MLOAD SWAP1 POP JUMPDEST PUSH3 0x3D4 DUP6 DUP3 PUSH3 0x347 JUMP JUMPDEST DUP7 SSTORE POP PUSH3 0x444 JUMP JUMPDEST PUSH1 0x1F NOT DUP5 AND PUSH3 0x3ED DUP7 PUSH3 0x189 JUMP JUMPDEST PUSH1 0x0 JUMPDEST DUP3 DUP2 LT ISZERO PUSH3 0x417 JUMPI DUP5 DUP10 ADD MLOAD DUP3 SSTORE PUSH1 0x1 DUP3 ADD SWAP2 POP PUSH1 0x20 DUP6 ADD SWAP5 POP PUSH1 0x20 DUP2 ADD SWAP1 POP PUSH3 0x3F0 JUMP JUMPDEST DUP7 DUP4 LT ISZERO PUSH3 0x437 JUMPI DUP5 DUP10 ADD MLOAD PUSH3 0x433 PUSH1 0x1F DUP10 AND DUP3 PUSH3 0x327 JUMP JUMPDEST DUP4 SSTORE POP JUMPDEST PUSH1 0x1 PUSH1 0x2 DUP9 MUL ADD DUP9 SSTORE POP POP POP JUMPDEST POP POP POP POP POP POP JUMP JUMPDEST PUSH2 0x5830 DUP1 PUSH3 0x45C PUSH1 0x0 CODECOPY PUSH1 0x0 RETURN INVALID PUSH1 0x80 PUSH1 0x40 MSTORE PUSH1 0x4 CALLDATASIZE LT PUSH3 0x146 JUMPI PUSH1 0x0 CALLDATALOAD PUSH1 0xE0 SHR DUP1 PUSH4 0x70A08231 GT PUSH3 0xBB JUMPI DUP1 PUSH4 0xB88D4FDE GT PUSH3 0x79 JUMPI DUP1 PUSH4 0xB88D4FDE EQ PUSH3 0x46B JUMPI DUP1 PUSH4 0xBD662497 EQ PUSH3 0x499 JUMPI DUP1 PUSH4 0xC7DB36B9 EQ PUSH3 0x4C7 JUMPI DUP1 PUSH4 0xC87B56DD EQ PUSH3 0x50F JUMPI DUP1 PUSH4 0xD425E991 EQ PUSH3 0x553 JUMPI DUP1 PUSH4 0xE985E9C5 EQ PUSH3 0x597 JUMPI PUSH3 0x146 JUMP JUMPDEST DUP1 PUSH4 0x70A08231 EQ PUSH3 0x357 JUMPI DUP1 PUSH4 0x90C148F2 EQ PUSH3 0x39B JUMPI DUP1 PUSH4 0x92BA905C EQ PUSH3 0x3DF JUMPI DUP1 PUSH4 0x95D89B41 EQ PUSH3 0x40D JUMPI DUP1 PUSH4 0xA22CB465 EQ PUSH3 0x43D JUMPI PUSH3 0x146 JUMP JUMPDEST DUP1 PUSH4 0x23B872DD GT PUSH3 0x109 JUMPI DUP1 PUSH4 0x23B872DD EQ PUSH3 0x261 JUMPI DUP1 PUSH4 0x31163C66 EQ PUSH3 0x28F JUMPI DUP1 PUSH4 0x3F68026C EQ PUSH3 0x2AF JUMPI DUP1 PUSH4 0x42842E0E EQ PUSH3 0x2E5 JUMPI DUP1 PUSH4 0x6352211E EQ PUSH3 0x313 JUMPI PUSH3 0x146 JUMP JUMPDEST DUP1 PUSH4 0x1FFC9A7 EQ PUSH3 0x14B JUMPI DUP1 PUSH4 0x6FDDE03 EQ PUSH3 0x18F JUMPI DUP1 PUSH4 0x81812FC EQ PUSH3 0x1BF JUMPI DUP1 PUSH4 0x95EA7B3 EQ PUSH3 0x203 JUMPI DUP1 PUSH4 0x15751A14 EQ PUSH3 0x231 JUMPI JUMPDEST PUSH1 0x0 DUP1 REVERT JUMPDEST CALLVALUE DUP1 ISZERO PUSH3 0x158 JUMPI PUSH1 0x0 DUP1 REVERT JUMPDEST POP PUSH3 0x177 PUSH1 0x4 DUP1 CALLDATASIZE SUB DUP2 ADD SWAP1 PUSH3 0x171 SWAP2 SWAP1 PUSH3 0x383C JUMP JUMPDEST PUSH3 0x5DB JUMP JUMPDEST PUSH1 0x40 MLOAD PUSH3 0x186 SWAP2 SWAP1 PUSH3 0x388B JUMP JUMPDEST PUSH1 0x40 MLOAD DUP1 SWAP2 SUB SWAP1 RETURN JUMPDEST CALLVALUE DUP1 ISZERO PUSH3 0x19C JUMPI PUSH1 0x0 DUP1 REVERT JUMPDEST POP PUSH3 0x1A7 PUSH3 0x6C1 JUMP JUMPDEST PUSH1 0x40 MLOAD PUSH3 0x1B6 SWAP2 SWAP1 PUSH3 0x3942 JUMP JUMPDEST PUSH1 0x40 MLOAD DUP1 SWAP2 SUB SWAP1 RETURN JUMPDEST CALLVALUE DUP1 ISZERO PUSH3 0x1CC JUMPI PUSH1 0x0 DUP1 REVERT JUMPDEST POP PUSH3 0x1EB PUSH1 0x4 DUP1 CALLDATASIZE SUB DUP2 ADD SWAP1 PUSH3 0x1E5 SWAP2 SWAP1 PUSH3 0x39A1 JUMP JUMPDEST PUSH3 0x75B JUMP JUMPDEST PUSH1 0x40 MLOAD PUSH3 0x1FA SWAP2 SWAP1 PUSH3 0x3A18 JUMP JUMPDEST PUSH1 0x40 MLOAD DUP1 SWAP2 SUB SWAP1 RETURN JUMPDEST CALLVALUE DUP1 ISZERO PUSH3 0x210 JUMPI PUSH1 0x0 DUP1 REVERT JUMPDEST POP PUSH3 0x22F PUSH1 0x4 DUP1 CALLDATASIZE SUB DUP2 ADD SWAP1 PUSH3 0x229 SWAP2 SWAP1 PUSH3 0x3A66 JUMP JUMPDEST PUSH3 0x7A3 JUMP JUMPDEST STOP JUMPDEST CALLVALUE DUP1 ISZERO PUSH3 0x23E JUMPI PUSH1 0x0 DUP1 REVERT JUMPDEST POP PUSH3 0x249 PUSH3 0x8CB JUMP JUMPDEST PUSH1 0x40 MLOAD PUSH3 0x258 SWAP2 SWAP1 PUSH3 0x3E5C JUMP JUMPDEST PUSH1 0x40 MLOAD DUP1 SWAP2 SUB SWAP1 RETURN JUMPDEST CALLVALUE DUP1 ISZERO PUSH3 0x26E JUMPI PUSH1 0x0 DUP1 REVERT JUMPDEST POP PUSH3 0x28D PUSH1 0x4 DUP1 CALLDATASIZE SUB DUP2 ADD SWAP1 PUSH3 0x287 SWAP2 SWAP1 PUSH3 0x3E80 JUMP JUMPDEST PUSH3 0xCE4 JUMP JUMPDEST STOP JUMPDEST PUSH3 0x2AD PUSH1 0x4 DUP1 CALLDATASIZE SUB DUP2 ADD SWAP1 PUSH3 0x2A7 SWAP2 SWAP1 PUSH3 0x3F0D JUMP JUMPDEST PUSH3 0xD4D JUMP JUMPDEST STOP JUMPDEST PUSH3 0x2CD PUSH1 0x4 DUP1 CALLDATASIZE SUB DUP2 ADD SWAP1 PUSH3 0x2C7 SWAP2 SWAP1 PUSH3 0x4199 JUMP JUMPDEST PUSH3 0x188D JUMP JUMPDEST PUSH1 0x40 MLOAD PUSH3 0x2DC SWAP2 SWAP1 PUSH3 0x4225 JUMP JUMPDEST PUSH1 0x40 MLOAD DUP1 SWAP2 SUB SWAP1 RETURN JUMPDEST CALLVALUE DUP1 ISZERO PUSH3 0x2F2 JUMPI PUSH1 0x0 DUP1 REVERT JUMPDEST POP PUSH3 0x311 PUSH1 0x4 DUP1 CALLDATASIZE SUB DUP2 ADD SWAP1 PUSH3 0x30B SWAP2 SWAP1 PUSH3 0x3E80 JUMP JUMPDEST PUSH3 0x1A54 JUMP JUMPDEST STOP JUMPDEST CALLVALUE DUP1 ISZERO PUSH3 0x320 JUMPI PUSH1 0x0 DUP1 REVERT JUMPDEST POP PUSH3 0x33F PUSH1 0x4 DUP1 CALLDATASIZE SUB DUP2 ADD SWAP1 PUSH3 0x339 SWAP2 SWAP1 PUSH3 0x39A1 JUMP JUMPDEST PUSH3 0x1A76 JUMP JUMPDEST PUSH1 0x40 MLOAD PUSH3 0x34E SWAP2 SWAP1 PUSH3 0x3A18 JUMP JUMPDEST PUSH1 0x40 MLOAD DUP1 SWAP2 SUB SWAP1 RETURN JUMPDEST CALLVALUE DUP1 ISZERO PUSH3 0x364 JUMPI PUSH1 0x0 DUP1 REVERT JUMPDEST POP PUSH3 0x383 PUSH1 0x4 DUP1 CALLDATASIZE SUB DUP2 ADD SWAP1 PUSH3 0x37D SWAP2 SWAP1 PUSH3 0x4242 JUMP JUMPDEST PUSH3 0x1B01 JUMP JUMPDEST PUSH1 0x40 MLOAD PUSH3 0x392 SWAP2 SWAP1 PUSH3 0x4225 JUMP JUMPDEST PUSH1 0x40 MLOAD DUP1 SWAP2 SUB SWAP1 RETURN JUMPDEST CALLVALUE DUP1 ISZERO PUSH3 0x3A8 JUMPI PUSH1 0x0 DUP1 REVERT JUMPDEST POP PUSH3 0x3C7 PUSH1 0x4 DUP1 CALLDATASIZE SUB DUP2 ADD SWAP1 PUSH3 0x3C1 SWAP2 SWAP1 PUSH3 0x39A1 JUMP JUMPDEST PUSH3 0x1BBB JUMP JUMPDEST PUSH1 0x40 MLOAD PUSH3 0x3D6 SWAP2 SWAP1 PUSH3 0x3A18 JUMP JUMPDEST PUSH1 0x40 MLOAD DUP1 SWAP2 SUB SWAP1 RETURN JUMPDEST CALLVALUE DUP1 ISZERO PUSH3 0x3EC JUMPI PUSH1 0x0 DUP1 REVERT JUMPDEST POP PUSH3 0x40B PUSH1 0x4 DUP1 CALLDATASIZE SUB DUP2 ADD SWAP1 PUSH3 0x405 SWAP2 SWAP1 PUSH3 0x4274 JUMP JUMPDEST PUSH3 0x1C00 JUMP JUMPDEST STOP JUMPDEST CALLVALUE DUP1 ISZERO PUSH3 0x41A JUMPI PUSH1 0x0 DUP1 REVERT JUMPDEST POP PUSH3 0x425 PUSH3 0x1C4D JUMP JUMPDEST PUSH1 0x40 MLOAD PUSH3 0x434 SWAP2 SWAP1 PUSH3 0x3942 JUMP JUMPDEST PUSH1 0x40 MLOAD DUP1 SWAP2 SUB SWAP1 RETURN JUMPDEST CALLVALUE DUP1 ISZERO PUSH3 0x44A JUMPI PUSH1 0x0 DUP1 REVERT JUMPDEST POP PUSH3 0x469 PUSH1 0x4 DUP1 CALLDATASIZE SUB DUP2 ADD SWAP1 PUSH3 0x463 SWAP2 SWAP1 PUSH3 0x42EF JUMP JUMPDEST PUSH3 0x1CE7 JUMP JUMPDEST STOP JUMPDEST CALLVALUE DUP1 ISZERO PUSH3 0x478 JUMPI PUSH1 0x0 DUP1 REVERT JUMPDEST POP PUSH3 0x497 PUSH1 0x4 DUP1 CALLDATASIZE SUB DUP2 ADD SWAP1 PUSH3 0x491 SWAP2 SWAP1 PUSH3 0x43EA JUMP JUMPDEST PUSH3 0x1D01 JUMP JUMPDEST STOP JUMPDEST CALLVALUE DUP1 ISZERO PUSH3 0x4A6 JUMPI PUSH1 0x0 DUP1 REVERT JUMPDEST POP PUSH3 0x4C5 PUSH1 0x4 DUP1 CALLDATASIZE SUB DUP2 ADD SWAP1 PUSH3 0x4BF SWAP2 SWAP1 PUSH3 0x447B JUMP JUMPDEST PUSH3 0x1D6C JUMP JUMPDEST STOP JUMPDEST CALLVALUE DUP1 ISZERO PUSH3 0x4D4 JUMPI PUSH1 0x0 DUP1 REVERT JUMPDEST POP PUSH3 0x4F3 PUSH1 0x4 DUP1 CALLDATASIZE SUB DUP2 ADD SWAP1 PUSH3 0x4ED SWAP2 SWAP1 PUSH3 0x39A1 JUMP JUMPDEST PUSH3 0x1DF1 JUMP JUMPDEST PUSH1 0x40 MLOAD PUSH3 0x506 SWAP6 SWAP5 SWAP4 SWAP3 SWAP2 SWAP1 PUSH3 0x456D JUMP JUMPDEST PUSH1 0x40 MLOAD DUP1 SWAP2 SUB SWAP1 RETURN JUMPDEST CALLVALUE DUP1 ISZERO PUSH3 0x51C JUMPI PUSH1 0x0 DUP1 REVERT JUMPDEST POP PUSH3 0x53B PUSH1 0x4 DUP1 CALLDATASIZE SUB DUP2 ADD SWAP1 PUSH3 0x535 SWAP2 SWAP1 PUSH3 0x39A1 JUMP JUMPDEST PUSH3 0x1FFD JUMP JUMPDEST PUSH1 0x40 MLOAD PUSH3 0x54A SWAP2 SWAP1 PUSH3 0x3942 JUMP JUMPDEST PUSH1 0x40 MLOAD DUP1 SWAP2 SUB SWAP1 RETURN JUMPDEST CALLVALUE DUP1 ISZERO PUSH3 0x560 JUMPI PUSH1 0x0 DUP1 REVERT JUMPDEST POP PUSH3 0x57F PUSH1 0x4 DUP1 CALLDATASIZE SUB DUP2 ADD SWAP1 PUSH3 0x579 SWAP2 SWAP1 PUSH3 0x39A1 JUMP JUMPDEST PUSH3 0x2123 JUMP JUMPDEST PUSH1 0x40 MLOAD PUSH3 0x58E SWAP2 SWAP1 PUSH3 0x4698 JUMP JUMPDEST PUSH1 0x40 MLOAD DUP1 SWAP2 SUB SWAP1 RETURN JUMPDEST CALLVALUE DUP1 ISZERO PUSH3 0x5A4 JUMPI PUSH1 0x0 DUP1 REVERT JUMPDEST POP PUSH3 0x5C3 PUSH1 0x4 DUP1 CALLDATASIZE SUB DUP2 ADD SWAP1 PUSH3 0x5BD SWAP2 SWAP1 PUSH3 0x46BC JUMP JUMPDEST PUSH3 0x24C5 JUMP JUMPDEST PUSH1 0x40 MLOAD PUSH3 0x5D2 SWAP2 SWAP1 PUSH3 0x388B JUMP JUMPDEST PUSH1 0x40 MLOAD DUP1 SWAP2 SUB SWAP1 RETURN JUMPDEST PUSH1 0x0 PUSH32 0x80AC58CD00000000000000000000000000000000000000000000000000000000 PUSH28 0xFFFFFFFFFFFFFFFFFFFFFFFFFFFFFFFFFFFFFFFFFFFFFFFFFFFFFFFF NOT AND DUP3 PUSH28 0xFFFFFFFFFFFFFFFFFFFFFFFFFFFFFFFFFFFFFFFFFFFFFFFFFFFFFFFF NOT AND EQ DUP1 PUSH3 0x6A7 JUMPI POP PUSH32 0x5B5E139F00000000000000000000000000000000000000000000000000000000 PUSH28 0xFFFFFFFFFFFFFFFFFFFFFFFFFFFFFFFFFFFFFFFFFFFFFFFFFFFFFFFF NOT AND DUP3 PUSH28 0xFFFFFFFFFFFFFFFFFFFFFFFFFFFFFFFFFFFFFFFFFFFFFFFFFFFFFFFF NOT AND EQ JUMPDEST DUP1 PUSH3 0x6BA JUMPI POP PUSH3 0x6B9 DUP3 PUSH3 0x2559 JUMP JUMPDEST JUMPDEST SWAP1 POP SWAP2 SWAP1 POP JUMP JUMPDEST PUSH1 0x60 PUSH1 0x0 DUP1 SLOAD PUSH3 0x6D2 SWAP1 PUSH3 0x4732 JUMP JUMPDEST DUP1 PUSH1 0x1F ADD PUSH1 0x20 DUP1 SWAP2 DIV MUL PUSH1 0x20 ADD PUSH1 0x40 MLOAD SWAP1 DUP2 ADD PUSH1 0x40 MSTORE DUP1 SWAP3 SWAP2 SWAP1 DUP2 DUP2 MSTORE PUSH1 0x20 ADD DUP3 DUP1 SLOAD PUSH3 0x700 SWAP1 PUSH3 0x4732 JUMP JUMPDEST DUP1 ISZERO PUSH3 0x751 JUMPI DUP1 PUSH1 0x1F LT PUSH3 0x725 JUMPI PUSH2 0x100 DUP1 DUP4 SLOAD DIV MUL DUP4 MSTORE SWAP2 PUSH1 0x20 ADD SWAP2 PUSH3 0x751 JUMP JUMPDEST DUP3 ADD SWAP2 SWAP1 PUSH1 0x0 MSTORE PUSH1 0x20 PUSH1 0x0 KECCAK256 SWAP1 JUMPDEST DUP2 SLOAD DUP2 MSTORE SWAP1 PUSH1 0x1 ADD SWAP1 PUSH1 0x20 ADD DUP1 DUP4 GT PUSH3 0x733 JUMPI DUP3 SWAP1 SUB PUSH1 0x1F AND DUP3 ADD SWAP2 JUMPDEST POP POP POP POP POP SWAP1 POP SWAP1 JUMP JUMPDEST PUSH1 0x0 PUSH3 0x768 DUP3 PUSH3 0x25C3 JUMP JUMPDEST PUSH1 0x4 PUSH1 0x0 DUP4 DUP2 MSTORE PUSH1 0x20 ADD SWAP1 DUP2 MSTORE PUSH1 0x20 ADD PUSH1 0x0 KECCAK256 PUSH1 0x0 SWAP1 SLOAD SWAP1 PUSH2 0x100 EXP SWAP1 DIV PUSH20 0xFFFFFFFFFFFFFFFFFFFFFFFFFFFFFFFFFFFFFFFF AND SWAP1 POP SWAP2 SWAP1 POP JUMP JUMPDEST PUSH1 0x0 PUSH3 0x7B0 DUP3 PUSH3 0x1A76 JUMP JUMPDEST SWAP1 POP DUP1 PUSH20 0xFFFFFFFFFFFFFFFFFFFFFFFFFFFFFFFFFFFFFFFF AND DUP4 PUSH20 0xFFFFFFFFFFFFFFFFFFFFFFFFFFFFFFFFFFFFFFFF AND SUB PUSH3 0x823 JUMPI PUSH1 0x40 MLOAD PUSH32 0x8C379A000000000000000000000000000000000000000000000000000000000 DUP2 MSTORE PUSH1 0x4 ADD PUSH3 0x81A SWAP1 PUSH3 0x47DD JUMP JUMPDEST PUSH1 0x40 MLOAD DUP1 SWAP2 SUB SWAP1 REVERT JUMPDEST DUP1 PUSH20 0xFFFFFFFFFFFFFFFFFFFFFFFFFFFFFFFFFFFFFFFF AND PUSH3 0x844 PUSH3 0x2613 JUMP JUMPDEST PUSH20 0xFFFFFFFFFFFFFFFFFFFFFFFFFFFFFFFFFFFFFFFF AND EQ DUP1 PUSH3 0x878 JUMPI POP PUSH3 0x877 DUP2 PUSH3 0x871 PUSH3 0x2613 JUMP JUMPDEST PUSH3 0x24C5 JUMP JUMPDEST JUMPDEST PUSH3 0x8BA JUMPI PUSH1 0x40 MLOAD PUSH32 0x8C379A000000000000000000000000000000000000000000000000000000000 DUP2 MSTORE PUSH1 0x4 ADD PUSH3 0x8B1 SWAP1 PUSH3 0x4875 JUMP JUMPDEST PUSH1 0x40 MLOAD DUP1 SWAP2 SUB SWAP1 REVERT JUMPDEST PUSH3 0x8C6 DUP4 DUP4 PUSH3 0x261B JUMP JUMPDEST POP POP POP JUMP JUMPDEST PUSH1 0x60 PUSH1 0x0 PUSH3 0x8DB PUSH1 0x7 PUSH3 0x26D6 JUMP JUMPDEST SWAP1 POP PUSH1 0x0 DUP1 DUP3 PUSH8 0xFFFFFFFFFFFFFFFF DUP2 GT ISZERO PUSH3 0x8FD JUMPI PUSH3 0x8FC PUSH3 0x3F89 JUMP JUMPDEST JUMPDEST PUSH1 0x40 MLOAD SWAP1 DUP1 DUP3 MSTORE DUP1 PUSH1 0x20 MUL PUSH1 0x20 ADD DUP3 ADD PUSH1 0x40 MSTORE DUP1 ISZERO PUSH3 0x93A JUMPI DUP2 PUSH1 0x20 ADD JUMPDEST PUSH3 0x926 PUSH3 0x36BB JUMP JUMPDEST DUP2 MSTORE PUSH1 0x20 ADD SWAP1 PUSH1 0x1 SWAP1 SUB SWAP1 DUP2 PUSH3 0x91C JUMPI SWAP1 POP JUMPDEST POP SWAP1 POP PUSH1 0x0 JUMPDEST DUP4 DUP2 LT ISZERO PUSH3 0xCDA JUMPI PUSH1 0x0 PUSH1 0x1 DUP3 PUSH3 0x95A SWAP2 SWAP1 PUSH3 0x48C6 JUMP JUMPDEST SWAP1 POP PUSH1 0x0 PUSH1 0x9 PUSH1 0x0 DUP4 DUP2 MSTORE PUSH1 0x20 ADD SWAP1 DUP2 MSTORE PUSH1 0x20 ADD PUSH1 0x0 KECCAK256 SWAP1 POP DUP1 PUSH1 0x40 MLOAD DUP1 PUSH2 0x100 ADD PUSH1 0x40 MSTORE SWAP1 DUP2 PUSH1 0x0 DUP3 ADD SLOAD DUP2 MSTORE PUSH1 0x20 ADD PUSH1 0x1 DUP3 ADD SLOAD DUP2 MSTORE PUSH1 0x20 ADD PUSH1 0x2 DUP3 ADD PUSH1 0x0 SWAP1 SLOAD SWAP1 PUSH2 0x100 EXP SWAP1 DIV PUSH20 0xFFFFFFFFFFFFFFFFFFFFFFFFFFFFFFFFFFFFFFFF AND PUSH20 0xFFFFFFFFFFFFFFFFFFFFFFFFFFFFFFFFFFFFFFFF AND PUSH20 0xFFFFFFFFFFFFFFFFFFFFFFFFFFFFFFFFFFFFFFFF AND DUP2 MSTORE PUSH1 0x20 ADD PUSH1 0x3 DUP3 ADD PUSH1 0x0 SWAP1 SLOAD SWAP1 PUSH2 0x100 EXP SWAP1 DIV PUSH20 0xFFFFFFFFFFFFFFFFFFFFFFFFFFFFFFFFFFFFFFFF AND PUSH20 0xFFFFFFFFFFFFFFFFFFFFFFFFFFFFFFFFFFFFFFFF AND PUSH20 0xFFFFFFFFFFFFFFFFFFFFFFFFFFFFFFFFFFFFFFFF AND DUP2 MSTORE PUSH1 0x20 ADD PUSH1 0x3 DUP3 ADD PUSH1 0x14 SWAP1 SLOAD SWAP1 PUSH2 0x100 EXP SWAP1 DIV PUSH1 0xFF AND ISZERO ISZERO ISZERO ISZERO DUP2 MSTORE PUSH1 0x20 ADD PUSH1 0x4 DUP3 ADD SLOAD DUP2 MSTORE PUSH1 0x20 ADD PUSH1 0x5 DUP3 ADD DUP1 SLOAD PUSH3 0xA77 SWAP1 PUSH3 0x4732 JUMP JUMPDEST DUP1 PUSH1 0x1F ADD PUSH1 0x20 DUP1 SWAP2 DIV MUL PUSH1 0x20 ADD PUSH1 0x40 MLOAD SWAP1 DUP2 ADD PUSH1 0x40 MSTORE DUP1 SWAP3 SWAP2 SWAP1 DUP2 DUP2 MSTORE PUSH1 0x20 ADD DUP3 DUP1 SLOAD PUSH3 0xAA5 SWAP1 PUSH3 0x4732 JUMP JUMPDEST DUP1 ISZERO PUSH3 0xAF6 JUMPI DUP1 PUSH1 0x1F LT PUSH3 0xACA JUMPI PUSH2 0x100 DUP1 DUP4 SLOAD DIV MUL DUP4 MSTORE SWAP2 PUSH1 0x20 ADD SWAP2 PUSH3 0xAF6 JUMP JUMPDEST DUP3 ADD SWAP2 SWAP1 PUSH1 0x0 MSTORE PUSH1 0x20 PUSH1 0x0 KECCAK256 SWAP1 JUMPDEST DUP2 SLOAD DUP2 MSTORE SWAP1 PUSH1 0x1 ADD SWAP1 PUSH1 0x20 ADD DUP1 DUP4 GT PUSH3 0xAD8 JUMPI DUP3 SWAP1 SUB PUSH1 0x1F AND DUP3 ADD SWAP2 JUMPDEST POP POP POP POP POP DUP2 MSTORE PUSH1 0x20 ADD PUSH1 0x6 DUP3 ADD PUSH1 0x4 DUP1 PUSH1 0x20 MUL PUSH1 0x40 MLOAD SWAP1 DUP2 ADD PUSH1 0x40 MSTORE DUP1 SWAP3 SWAP2 SWAP1 PUSH1 0x0 SWAP1 JUMPDEST DUP3 DUP3 LT ISZERO PUSH3 0xC89 JUMPI DUP4 DUP3 PUSH1 0x6 MUL ADD PUSH1 0x40 MLOAD DUP1 PUSH1 0xE0 ADD PUSH1 0x40 MSTORE SWAP1 DUP2 PUSH1 0x0 DUP3 ADD PUSH1 0x0 SWAP1 SLOAD SWAP1 PUSH2 0x100 EXP SWAP1 DIV PUSH20 0xFFFFFFFFFFFFFFFFFFFFFFFFFFFFFFFFFFFFFFFF AND PUSH20 0xFFFFFFFFFFFFFFFFFFFFFFFFFFFFFFFFFFFFFFFF AND PUSH20 0xFFFFFFFFFFFFFFFFFFFFFFFFFFFFFFFFFFFFFFFF AND DUP2 MSTORE PUSH1 0x20 ADD PUSH1 0x1 DUP3 ADD SLOAD DUP2 MSTORE PUSH1 0x20 ADD PUSH1 0x2 DUP3 ADD SLOAD DUP2 MSTORE PUSH1 0x20 ADD PUSH1 0x3 DUP3 ADD DUP1 SLOAD PUSH3 0xBB1 SWAP1 PUSH3 0x4732 JUMP JUMPDEST DUP1 PUSH1 0x1F ADD PUSH1 0x20 DUP1 SWAP2 DIV MUL PUSH1 0x20 ADD PUSH1 0x40 MLOAD SWAP1 DUP2 ADD PUSH1 0x40 MSTORE DUP1 SWAP3 SWAP2 SWAP1 DUP2 DUP2 MSTORE PUSH1 0x20 ADD DUP3 DUP1 SLOAD PUSH3 0xBDF SWAP1 PUSH3 0x4732 JUMP JUMPDEST DUP1 ISZERO PUSH3 0xC30 JUMPI DUP1 PUSH1 0x1F LT PUSH3 0xC04 JUMPI PUSH2 0x100 DUP1 DUP4 SLOAD DIV MUL DUP4 MSTORE SWAP2 PUSH1 0x20 ADD SWAP2 PUSH3 0xC30 JUMP JUMPDEST DUP3 ADD SWAP2 SWAP1 PUSH1 0x0 MSTORE PUSH1 0x20 PUSH1 0x0 KECCAK256 SWAP1 JUMPDEST DUP2 SLOAD DUP2 MSTORE SWAP1 PUSH1 0x1 ADD SWAP1 PUSH1 0x20 ADD DUP1 DUP4 GT PUSH3 0xC12 JUMPI DUP3 SWAP1 SUB PUSH1 0x1F AND DUP3 ADD SWAP2 JUMPDEST POP POP POP POP POP DUP2 MSTORE PUSH1 0x20 ADD PUSH1 0x4 DUP3 ADD SLOAD DUP2 MSTORE PUSH1 0x20 ADD PUSH1 0x5 DUP3 ADD PUSH1 0x0 SWAP1 SLOAD SWAP1 PUSH2 0x100 EXP SWAP1 DIV PUSH1 0xFF AND ISZERO ISZERO ISZERO ISZERO DUP2 MSTORE PUSH1 0x20 ADD PUSH1 0x5 DUP3 ADD PUSH1 0x1 SWAP1 SLOAD SWAP1 PUSH2 0x100 EXP SWAP1 DIV PUSH1 0xFF AND ISZERO ISZERO ISZERO ISZERO DUP2 MSTORE POP POP DUP2 MSTORE PUSH1 0x20 ADD SWAP1 PUSH1 0x1 ADD SWAP1 PUSH3 0xB1B JUMP JUMPDEST POP POP POP POP DUP2 MSTORE POP POP DUP5 DUP7 DUP2 MLOAD DUP2 LT PUSH3 0xCA7 JUMPI PUSH3 0xCA6 PUSH3 0x4901 JUMP JUMPDEST JUMPDEST PUSH1 0x20 MUL PUSH1 0x20 ADD ADD DUP2 SWAP1 MSTORE POP DUP5 DUP1 PUSH3 0xCBF SWAP1 PUSH3 0x4930 JUMP JUMPDEST SWAP6 POP POP POP POP DUP1 DUP1 PUSH3 0xCD1 SWAP1 PUSH3 0x4930 JUMP JUMPDEST SWAP2 POP POP PUSH3 0x940 JUMP JUMPDEST POP DUP1 SWAP4 POP POP POP POP SWAP1 JUMP JUMPDEST PUSH3 0xCF9 PUSH3 0xCF2 PUSH3 0x2613 JUMP JUMPDEST DUP3 PUSH3 0x26E4 JUMP JUMPDEST PUSH3 0xD3B JUMPI PUSH1 0x40 MLOAD PUSH32 0x8C379A000000000000000000000000000000000000000000000000000000000 DUP2 MSTORE PUSH1 0x4 ADD PUSH3 0xD32 SWAP1 PUSH3 0x49F3 JUMP JUMPDEST PUSH1 0x40 MLOAD DUP1 SWAP2 SUB SWAP1 REVERT JUMPDEST PUSH3 0xD48 DUP4 DUP4 DUP4 PUSH3 0x2781 JUMP JUMPDEST POP POP POP JUMP JUMPDEST PUSH1 0x0 PUSH1 0x9 PUSH1 0x0 DUP5 DUP2 MSTORE PUSH1 0x20 ADD SWAP1 DUP2 MSTORE PUSH1 0x20 ADD PUSH1 0x0 KECCAK256 SWAP1 POP DUP1 PUSH1 0x3 ADD PUSH1 0x14 SWAP1 SLOAD SWAP1 PUSH2 0x100 EXP SWAP1 DIV PUSH1 0xFF AND ISZERO PUSH3 0xDB9 JUMPI PUSH1 0x40 MLOAD PUSH32 0x8C379A000000000000000000000000000000000000000000000000000000000 DUP2 MSTORE PUSH1 0x4 ADD PUSH3 0xDB0 SWAP1 PUSH3 0x4A8B JUMP JUMPDEST PUSH1 0x40 MLOAD DUP1 SWAP2 SUB SWAP1 REVERT JUMPDEST PUSH1 0x0 DUP1 PUSH1 0x0 DUP1 PUSH1 0x1 DUP10 SUB PUSH3 0x105B JUMPI DUP5 PUSH1 0x6 ADD PUSH1 0x0 PUSH1 0x4 DUP2 LT PUSH3 0xDE2 JUMPI PUSH3 0xDE1 PUSH3 0x4901 JUMP JUMPDEST JUMPDEST PUSH1 0x6 MUL ADD PUSH1 0x0 ADD PUSH1 0x0 SWAP1 SLOAD SWAP1 PUSH2 0x100 EXP SWAP1 DIV PUSH20 0xFFFFFFFFFFFFFFFFFFFFFFFFFFFFFFFFFFFFFFFF AND PUSH20 0xFFFFFFFFFFFFFFFFFFFFFFFFFFFFFFFFFFFFFFFF AND CALLER PUSH20 0xFFFFFFFFFFFFFFFFFFFFFFFFFFFFFFFFFFFFFFFF AND EQ PUSH3 0xE7A JUMPI PUSH1 0x40 MLOAD PUSH32 0x8C379A000000000000000000000000000000000000000000000000000000000 DUP2 MSTORE PUSH1 0x4 ADD PUSH3 0xE71 SWAP1 PUSH3 0x4AFD JUMP JUMPDEST PUSH1 0x40 MLOAD DUP1 SWAP2 SUB SWAP1 REVERT JUMPDEST DUP6 DUP6 PUSH1 0x6 ADD PUSH1 0x0 PUSH1 0x4 DUP2 LT PUSH3 0xE95 JUMPI PUSH3 0xE94 PUSH3 0x4901 JUMP JUMPDEST JUMPDEST PUSH1 0x6 MUL ADD PUSH1 0x5 ADD PUSH1 0x0 PUSH2 0x100 EXP DUP2 SLOAD DUP2 PUSH1 0xFF MUL NOT AND SWAP1 DUP4 ISZERO ISZERO MUL OR SWAP1 SSTORE POP PUSH1 0x0 DUP6 PUSH1 0x3 ADD PUSH1 0x0 SWAP1 SLOAD SWAP1 PUSH2 0x100 EXP SWAP1 DIV PUSH20 0xFFFFFFFFFFFFFFFFFFFFFFFFFFFFFFFFFFFFFFFF AND SWAP1 POP PUSH1 0x1 ISZERO ISZERO DUP7 PUSH1 0x6 ADD PUSH1 0x0 PUSH1 0x4 DUP2 LT PUSH3 0xEFA JUMPI PUSH3 0xEF9 PUSH3 0x4901 JUMP JUMPDEST JUMPDEST PUSH1 0x6 MUL ADD PUSH1 0x5 ADD PUSH1 0x0 SWAP1 SLOAD SWAP1 PUSH2 0x100 EXP SWAP1 DIV PUSH1 0xFF AND ISZERO ISZERO SUB PUSH3 0x1059 JUMPI PUSH1 0x1 DUP7 PUSH1 0x6 ADD PUSH1 0x0 PUSH1 0x4 DUP2 LT PUSH3 0xF33 JUMPI PUSH3 0xF32 PUSH3 0x4901 JUMP JUMPDEST JUMPDEST PUSH1 0x6 MUL ADD PUSH1 0x2 ADD DUP2 SWAP1 SSTORE POP PUSH2 0x2710 DUP1 DUP11 PUSH3 0xF4F SWAP2 SWAP1 PUSH3 0x4B4E JUMP JUMPDEST PUSH3 0xF5B SWAP2 SWAP1 PUSH3 0x4B86 JUMP JUMPDEST SWAP5 POP DUP5 DUP7 PUSH1 0x6 ADD PUSH1 0x0 PUSH1 0x4 DUP2 LT PUSH3 0xF78 JUMPI PUSH3 0xF77 PUSH3 0x4901 JUMP JUMPDEST JUMPDEST PUSH1 0x6 MUL ADD PUSH1 0x4 ADD DUP2 SWAP1 SSTORE POP PUSH1 0x0 DUP2 SWAP1 POP DUP1 PUSH20 0xFFFFFFFFFFFFFFFFFFFFFFFFFFFFFFFFFFFFFFFF AND PUSH4 0xFD72B6E9 DUP8 PUSH1 0x40 MLOAD DUP3 PUSH4 0xFFFFFFFF AND PUSH1 0xE0 SHL DUP2 MSTORE PUSH1 0x4 ADD PUSH3 0xFC3 SWAP2 SWAP1 PUSH3 0x4225 JUMP JUMPDEST PUSH1 0x0 PUSH1 0x40 MLOAD DUP1 DUP4 SUB DUP2 PUSH1 0x0 DUP8 DUP1 EXTCODESIZE ISZERO DUP1 ISZERO PUSH3 0xFDE JUMPI PUSH1 0x0 DUP1 REVERT JUMPDEST POP GAS CALL ISZERO DUP1 ISZERO PUSH3 0xFF3 JUMPI RETURNDATASIZE PUSH1 0x0 DUP1 RETURNDATACOPY RETURNDATASIZE PUSH1 0x0 REVERT JUMPDEST POP POP POP POP TIMESTAMP DUP8 PUSH1 0x6 ADD PUSH1 0x0 PUSH1 0x4 DUP2 LT PUSH3 0x1012 JUMPI PUSH3 0x1011 PUSH3 0x4901 JUMP JUMPDEST JUMPDEST PUSH1 0x6 MUL ADD PUSH1 0x1 ADD DUP2 SWAP1 SSTORE POP PUSH1 0x1 DUP8 PUSH1 0x6 ADD PUSH1 0x0 PUSH1 0x4 DUP2 LT PUSH3 0x1039 JUMPI PUSH3 0x1038 PUSH3 0x4901 JUMP JUMPDEST JUMPDEST PUSH1 0x6 MUL ADD PUSH1 0x5 ADD PUSH1 0x1 PUSH2 0x100 EXP DUP2 SLOAD DUP2 PUSH1 0xFF MUL NOT AND SWAP1 DUP4 ISZERO ISZERO MUL OR SWAP1 SSTORE POP POP JUMPDEST POP JUMPDEST PUSH1 0x2 DUP10 SUB PUSH3 0x1306 JUMPI DUP5 PUSH1 0x6 ADD PUSH1 0x1 PUSH1 0x4 DUP2 LT PUSH3 0x107E JUMPI PUSH3 0x107D PUSH3 0x4901 JUMP JUMPDEST JUMPDEST PUSH1 0x6 MUL ADD PUSH1 0x0 ADD PUSH1 0x0 SWAP1 SLOAD SWAP1 PUSH2 0x100 EXP SWAP1 DIV PUSH20 0xFFFFFFFFFFFFFFFFFFFFFFFFFFFFFFFFFFFFFFFF AND PUSH20 0xFFFFFFFFFFFFFFFFFFFFFFFFFFFFFFFFFFFFFFFF AND CALLER PUSH20 0xFFFFFFFFFFFFFFFFFFFFFFFFFFFFFFFFFFFFFFFF AND EQ PUSH3 0x1116 JUMPI PUSH1 0x40 MLOAD PUSH32 0x8C379A000000000000000000000000000000000000000000000000000000000 DUP2 MSTORE PUSH1 0x4 ADD PUSH3 0x110D SWAP1 PUSH3 0x4AFD JUMP JUMPDEST PUSH1 0x40 MLOAD DUP1 SWAP2 SUB SWAP1 REVERT JUMPDEST DUP6 DUP6 PUSH1 0x6 ADD PUSH1 0x1 PUSH1 0x4 DUP2 LT PUSH3 0x1131 JUMPI PUSH3 0x1130 PUSH3 0x4901 JUMP JUMPDEST JUMPDEST PUSH1 0x6 MUL ADD PUSH1 0x5 ADD PUSH1 0x0 PUSH2 0x100 EXP DUP2 SLOAD DUP2 PUSH1 0xFF MUL NOT AND SWAP1 DUP4 ISZERO ISZERO MUL OR SWAP1 SSTORE POP PUSH1 0x0 DUP6 PUSH1 0x3 ADD PUSH1 0x0 SWAP1 SLOAD SWAP1 PUSH2 0x100 EXP SWAP1 DIV PUSH20 0xFFFFFFFFFFFFFFFFFFFFFFFFFFFFFFFFFFFFFFFF AND SWAP1 POP PUSH1 0x1 ISZERO ISZERO DUP7 PUSH1 0x6 ADD PUSH1 0x1 PUSH1 0x4 DUP2 LT PUSH3 0x1196 JUMPI PUSH3 0x1195 PUSH3 0x4901 JUMP JUMPDEST JUMPDEST PUSH1 0x6 MUL ADD PUSH1 0x5 ADD PUSH1 0x0 SWAP1 SLOAD SWAP1 PUSH2 0x100 EXP SWAP1 DIV PUSH1 0xFF AND ISZERO ISZERO SUB PUSH3 0x1304 JUMPI PUSH1 0x2 DUP7 PUSH1 0x6 ADD PUSH1 0x1 PUSH1 0x4 DUP2 LT PUSH3 0x11CF JUMPI PUSH3 0x11CE PUSH3 0x4901 JUMP JUMPDEST JUMPDEST PUSH1 0x6 MUL ADD PUSH1 0x2 ADD DUP2 SWAP1 SSTORE POP DUP5 PUSH2 0x2710 PUSH2 0x7530 DUP12 PUSH3 0x11EE SWAP2 SWAP1 PUSH3 0x4B4E JUMP JUMPDEST PUSH3 0x11FA SWAP2 SWAP1 PUSH3 0x4B86 JUMP JUMPDEST PUSH3 0x1206 SWAP2 SWAP1 PUSH3 0x4BD1 JUMP JUMPDEST SWAP4 POP DUP4 DUP7 PUSH1 0x6 ADD PUSH1 0x1 PUSH1 0x4 DUP2 LT PUSH3 0x1223 JUMPI PUSH3 0x1222 PUSH3 0x4901 JUMP JUMPDEST JUMPDEST PUSH1 0x6 MUL ADD PUSH1 0x4 ADD DUP2 SWAP1 SSTORE POP PUSH1 0x0 DUP2 SWAP1 POP DUP1 PUSH20 0xFFFFFFFFFFFFFFFFFFFFFFFFFFFFFFFFFFFFFFFF AND PUSH4 0xFD72B6E9 DUP7 PUSH1 0x40 MLOAD DUP3 PUSH4 0xFFFFFFFF AND PUSH1 0xE0 SHL DUP2 MSTORE PUSH1 0x4 ADD PUSH3 0x126E SWAP2 SWAP1 PUSH3 0x4225 JUMP JUMPDEST PUSH1 0x0 PUSH1 0x40 MLOAD DUP1 DUP4 SUB DUP2 PUSH1 0x0 DUP8 DUP1 EXTCODESIZE ISZERO DUP1 ISZERO PUSH3 0x1289 JUMPI PUSH1 0x0 DUP1 REVERT JUMPDEST POP GAS CALL ISZERO DUP1 ISZERO PUSH3 0x129E JUMPI RETURNDATASIZE PUSH1 0x0 DUP1 RETURNDATACOPY RETURNDATASIZE PUSH1 0x0 REVERT JUMPDEST POP POP POP POP TIMESTAMP DUP8 PUSH1 0x6 ADD PUSH1 0x1 PUSH1 0x4 DUP2 LT PUSH3 0x12BD JUMPI PUSH3 0x12BC PUSH3 0x4901 JUMP JUMPDEST JUMPDEST PUSH1 0x6 MUL ADD PUSH1 0x1 ADD DUP2 SWAP1 SSTORE POP PUSH1 0x1 DUP8 PUSH1 0x6 ADD PUSH1 0x1 PUSH1 0x4 DUP2 LT PUSH3 0x12E4 JUMPI PUSH3 0x12E3 PUSH3 0x4901 JUMP JUMPDEST JUMPDEST PUSH1 0x6 MUL ADD PUSH1 0x5 ADD PUSH1 0x1 PUSH2 0x100 EXP DUP2 SLOAD DUP2 PUSH1 0xFF MUL NOT AND SWAP1 DUP4 ISZERO ISZERO MUL OR SWAP1 SSTORE POP POP JUMPDEST POP JUMPDEST PUSH1 0x3 DUP10 SUB PUSH3 0x15B1 JUMPI DUP5 PUSH1 0x6 ADD PUSH1 0x2 PUSH1 0x4 DUP2 LT PUSH3 0x1329 JUMPI PUSH3 0x1328 PUSH3 0x4901 JUMP JUMPDEST JUMPDEST PUSH1 0x6 MUL ADD PUSH1 0x0 ADD PUSH1 0x0 SWAP1 SLOAD SWAP1 PUSH2 0x100 EXP SWAP1 DIV PUSH20 0xFFFFFFFFFFFFFFFFFFFFFFFFFFFFFFFFFFFFFFFF AND PUSH20 0xFFFFFFFFFFFFFFFFFFFFFFFFFFFFFFFFFFFFFFFF AND CALLER PUSH20 0xFFFFFFFFFFFFFFFFFFFFFFFFFFFFFFFFFFFFFFFF AND EQ PUSH3 0x13C1 JUMPI PUSH1 0x40 MLOAD PUSH32 0x8C379A000000000000000000000000000000000000000000000000000000000 DUP2 MSTORE PUSH1 0x4 ADD PUSH3 0x13B8 SWAP1 PUSH3 0x4AFD JUMP JUMPDEST PUSH1 0x40 MLOAD DUP1 SWAP2 SUB SWAP1 REVERT JUMPDEST DUP6 DUP6 PUSH1 0x6 ADD PUSH1 0x2 PUSH1 0x4 DUP2 LT PUSH3 0x13DC JUMPI PUSH3 0x13DB PUSH3 0x4901 JUMP JUMPDEST JUMPDEST PUSH1 0x6 MUL ADD PUSH1 0x5 ADD PUSH1 0x0 PUSH2 0x100 EXP DUP2 SLOAD DUP2 PUSH1 0xFF MUL NOT AND SWAP1 DUP4 ISZERO ISZERO MUL OR SWAP1 SSTORE POP PUSH1 0x0 DUP6 PUSH1 0x3 ADD PUSH1 0x0 SWAP1 SLOAD SWAP1 PUSH2 0x100 EXP SWAP1 DIV PUSH20 0xFFFFFFFFFFFFFFFFFFFFFFFFFFFFFFFFFFFFFFFF AND SWAP1 POP PUSH1 0x1 ISZERO ISZERO DUP7 PUSH1 0x6 ADD PUSH1 0x2 PUSH1 0x4 DUP2 LT PUSH3 0x1441 JUMPI PUSH3 0x1440 PUSH3 0x4901 JUMP JUMPDEST JUMPDEST PUSH1 0x6 MUL ADD PUSH1 0x5 ADD PUSH1 0x0 SWAP1 SLOAD SWAP1 PUSH2 0x100 EXP SWAP1 DIV PUSH1 0xFF AND ISZERO ISZERO SUB PUSH3 0x15AF JUMPI PUSH1 0x3 DUP7 PUSH1 0x6 ADD PUSH1 0x2 PUSH1 0x4 DUP2 LT PUSH3 0x147A JUMPI PUSH3 0x1479 PUSH3 0x4901 JUMP JUMPDEST JUMPDEST PUSH1 0x6 MUL ADD PUSH1 0x2 ADD DUP2 SWAP1 SSTORE POP DUP4 PUSH2 0x2710 PUSH2 0xC350 DUP12 PUSH3 0x1499 SWAP2 SWAP1 PUSH3 0x4B4E JUMP JUMPDEST PUSH3 0x14A5 SWAP2 SWAP1 PUSH3 0x4B86 JUMP JUMPDEST PUSH3 0x14B1 SWAP2 SWAP1 PUSH3 0x4BD1 JUMP JUMPDEST SWAP4 POP DUP3 DUP7 PUSH1 0x6 ADD PUSH1 0x2 PUSH1 0x4 DUP2 LT PUSH3 0x14CE JUMPI PUSH3 0x14CD PUSH3 0x4901 JUMP JUMPDEST JUMPDEST PUSH1 0x6 MUL ADD PUSH1 0x4 ADD DUP2 SWAP1 SSTORE POP PUSH1 0x0 DUP2 SWAP1 POP DUP1 PUSH20 0xFFFFFFFFFFFFFFFFFFFFFFFFFFFFFFFFFFFFFFFF AND PUSH4 0xFD72B6E9 DUP6 PUSH1 0x40 MLOAD DUP3 PUSH4 0xFFFFFFFF AND PUSH1 0xE0 SHL DUP2 MSTORE PUSH1 0x4 ADD PUSH3 0x1519 SWAP2 SWAP1 PUSH3 0x4225 JUMP JUMPDEST PUSH1 0x0 PUSH1 0x40 MLOAD DUP1 DUP4 SUB DUP2 PUSH1 0x0 DUP8 DUP1 EXTCODESIZE ISZERO DUP1 ISZERO PUSH3 0x1534 JUMPI PUSH1 0x0 DUP1 REVERT JUMPDEST POP GAS CALL ISZERO DUP1 ISZERO PUSH3 0x1549 JUMPI RETURNDATASIZE PUSH1 0x0 DUP1 RETURNDATACOPY RETURNDATASIZE PUSH1 0x0 REVERT JUMPDEST POP POP POP POP TIMESTAMP DUP8 PUSH1 0x6 ADD PUSH1 0x2 PUSH1 0x4 DUP2 LT PUSH3 0x1568 JUMPI PUSH3 0x1567 PUSH3 0x4901 JUMP JUMPDEST JUMPDEST PUSH1 0x6 MUL ADD PUSH1 0x1 ADD DUP2 SWAP1 SSTORE POP PUSH1 0x1 DUP8 PUSH1 0x6 ADD PUSH1 0x2 PUSH1 0x4 DUP2 LT PUSH3 0x158F JUMPI PUSH3 0x158E PUSH3 0x4901 JUMP JUMPDEST JUMPDEST PUSH1 0x6 MUL ADD PUSH1 0x5 ADD PUSH1 0x1 PUSH2 0x100 EXP DUP2 SLOAD DUP2 PUSH1 0xFF MUL NOT AND SWAP1 DUP4 ISZERO ISZERO MUL OR SWAP1 SSTORE POP POP JUMPDEST POP JUMPDEST PUSH1 0x4 DUP10 SUB PUSH3 0x1882 JUMPI DUP5 PUSH1 0x6 ADD PUSH1 0x3 PUSH1 0x4 DUP2 LT PUSH3 0x15D4 JUMPI PUSH3 0x15D3 PUSH3 0x4901 JUMP JUMPDEST JUMPDEST PUSH1 0x6 MUL ADD PUSH1 0x0 ADD PUSH1 0x0 SWAP1 SLOAD SWAP1 PUSH2 0x100 EXP SWAP1 DIV PUSH20 0xFFFFFFFFFFFFFFFFFFFFFFFFFFFFFFFFFFFFFFFF AND PUSH20 0xFFFFFFFFFFFFFFFFFFFFFFFFFFFFFFFFFFFFFFFF AND CALLER PUSH20 0xFFFFFFFFFFFFFFFFFFFFFFFFFFFFFFFFFFFFFFFF AND EQ PUSH3 0x166C JUMPI PUSH1 0x40 MLOAD PUSH32 0x8C379A000000000000000000000000000000000000000000000000000000000 DUP2 MSTORE PUSH1 0x4 ADD PUSH3 0x1663 SWAP1 PUSH3 0x4AFD JUMP JUMPDEST PUSH1 0x40 MLOAD DUP1 SWAP2 SUB SWAP1 REVERT JUMPDEST DUP6 DUP6 PUSH1 0x6 ADD PUSH1 0x3 PUSH1 0x4 DUP2 LT PUSH3 0x1687 JUMPI PUSH3 0x1686 PUSH3 0x4901 JUMP JUMPDEST JUMPDEST PUSH1 0x6 MUL ADD PUSH1 0x5 ADD PUSH1 0x0 PUSH2 0x100 EXP DUP2 SLOAD DUP2 PUSH1 0xFF MUL NOT AND SWAP1 DUP4 ISZERO ISZERO MUL OR SWAP1 SSTORE POP PUSH1 0x0 DUP6 PUSH1 0x3 ADD PUSH1 0x0 SWAP1 SLOAD SWAP1 PUSH2 0x100 EXP SWAP1 DIV PUSH20 0xFFFFFFFFFFFFFFFFFFFFFFFFFFFFFFFFFFFFFFFF AND SWAP1 POP PUSH1 0x1 ISZERO ISZERO DUP7 PUSH1 0x6 ADD PUSH1 0x3 PUSH1 0x4 DUP2 LT PUSH3 0x16EC JUMPI PUSH3 0x16EB PUSH3 0x4901 JUMP JUMPDEST JUMPDEST PUSH1 0x6 MUL ADD PUSH1 0x5 ADD PUSH1 0x0 SWAP1 SLOAD SWAP1 PUSH2 0x100 EXP SWAP1 DIV PUSH1 0xFF AND ISZERO ISZERO SUB PUSH3 0x1880 JUMPI PUSH1 0x4 DUP7 PUSH1 0x6 ADD PUSH1 0x2 PUSH1 0x4 DUP2 LT PUSH3 0x1725 JUMPI PUSH3 0x1724 PUSH3 0x4901 JUMP JUMPDEST JUMPDEST PUSH1 0x6 MUL ADD PUSH1 0x2 ADD DUP2 SWAP1 SSTORE POP DUP3 DUP5 DUP7 PUSH3 0x173F SWAP2 SWAP1 PUSH3 0x48C6 JUMP JUMPDEST PUSH3 0x174B SWAP2 SWAP1 PUSH3 0x48C6 JUMP JUMPDEST DUP7 PUSH1 0x1 ADD SLOAD PUSH3 0x175C SWAP2 SWAP1 PUSH3 0x4BD1 JUMP JUMPDEST SWAP2 POP DUP2 DUP7 PUSH1 0x6 ADD PUSH1 0x3 PUSH1 0x4 DUP2 LT PUSH3 0x1779 JUMPI PUSH3 0x1778 PUSH3 0x4901 JUMP JUMPDEST JUMPDEST PUSH1 0x6 MUL ADD PUSH1 0x4 ADD DUP2 SWAP1 SSTORE POP PUSH1 0x0 DUP2 SWAP1 POP DUP1 PUSH20 0xFFFFFFFFFFFFFFFFFFFFFFFFFFFFFFFFFFFFFFFF AND PUSH4 0xFD72B6E9 DUP5 PUSH1 0x40 MLOAD DUP3 PUSH4 0xFFFFFFFF AND PUSH1 0xE0 SHL DUP2 MSTORE PUSH1 0x4 ADD PUSH3 0x17C4 SWAP2 SWAP1 PUSH3 0x4225 JUMP JUMPDEST PUSH1 0x0 PUSH1 0x40 MLOAD DUP1 DUP4 SUB DUP2 PUSH1 0x0 DUP8 DUP1 EXTCODESIZE ISZERO DUP1 ISZERO PUSH3 0x17DF JUMPI PUSH1 0x0 DUP1 REVERT JUMPDEST POP GAS CALL ISZERO DUP1 ISZERO PUSH3 0x17F4 JUMPI RETURNDATASIZE PUSH1 0x0 DUP1 RETURNDATACOPY RETURNDATASIZE PUSH1 0x0 REVERT JUMPDEST POP POP POP POP TIMESTAMP DUP8 PUSH1 0x6 ADD PUSH1 0x3 PUSH1 0x4 DUP2 LT PUSH3 0x1813 JUMPI PUSH3 0x1812 PUSH3 0x4901 JUMP JUMPDEST JUMPDEST PUSH1 0x6 MUL ADD PUSH1 0x1 ADD DUP2 SWAP1 SSTORE POP TIMESTAMP DUP8 PUSH1 0x4 ADD DUP2 SWAP1 SSTORE POP PUSH1 0x1 DUP8 PUSH1 0x6 ADD PUSH1 0x3 PUSH1 0x4 DUP2 LT PUSH3 0x1843 JUMPI PUSH3 0x1842 PUSH3 0x4901 JUMP JUMPDEST JUMPDEST PUSH1 0x6 MUL ADD PUSH1 0x5 ADD PUSH1 0x1 PUSH2 0x100 EXP DUP2 SLOAD DUP2 PUSH1 0xFF MUL NOT AND SWAP1 DUP4 ISZERO ISZERO MUL OR SWAP1 SSTORE POP PUSH1 0x1 DUP8 PUSH1 0x3 ADD PUSH1 0x14 PUSH2 0x100 EXP DUP2 SLOAD DUP2 PUSH1 0xFF MUL NOT AND SWAP1 DUP4 ISZERO ISZERO MUL OR SWAP1 SSTORE POP POP JUMPDEST POP JUMPDEST POP POP POP POP POP POP POP POP POP JUMP JUMPDEST PUSH1 0x0 PUSH1 0x8 PUSH1 0x0 SWAP1 SLOAD SWAP1 PUSH2 0x100 EXP SWAP1 DIV PUSH20 0xFFFFFFFFFFFFFFFFFFFFFFFFFFFFFFFFFFFFFFFF AND PUSH20 0xFFFFFFFFFFFFFFFFFFFFFFFFFFFFFFFFFFFFFFFF AND CALLER PUSH20 0xFFFFFFFFFFFFFFFFFFFFFFFFFFFFFFFFFFFFFFFF AND EQ PUSH3 0x1922 JUMPI PUSH1 0x40 MLOAD PUSH32 0x8C379A000000000000000000000000000000000000000000000000000000000 DUP2 MSTORE PUSH1 0x4 ADD PUSH3 0x1919 SWAP1 PUSH3 0x4C5C JUMP JUMPDEST PUSH1 0x40 MLOAD DUP1 SWAP2 SUB SWAP1 REVERT JUMPDEST PUSH1 0x0 PUSH1 0x40 MLOAD PUSH3 0x1932 SWAP1 PUSH3 0x3736 JUMP JUMPDEST PUSH1 0x40 MLOAD DUP1 SWAP2 SUB SWAP1 PUSH1 0x0 CREATE DUP1 ISZERO DUP1 ISZERO PUSH3 0x194F JUMPI RETURNDATASIZE PUSH1 0x0 DUP1 RETURNDATACOPY RETURNDATASIZE PUSH1 0x0 REVERT JUMPDEST POP SWAP1 POP PUSH1 0x0 DUP2 SWAP1 POP PUSH3 0x1963 PUSH1 0x7 PUSH3 0x2A8B JUMP JUMPDEST PUSH1 0x0 PUSH3 0x1971 PUSH1 0x7 PUSH3 0x26D6 JUMP JUMPDEST SWAP1 POP PUSH3 0x197F CALLER DUP3 PUSH3 0x2AA1 JUMP JUMPDEST PUSH3 0x198B DUP2 DUP9 PUSH3 0x2CCF JUMP JUMPDEST PUSH1 0x0 JUMPDEST PUSH1 0x4 DUP2 LT ISZERO PUSH3 0x1A39 JUMPI DUP6 DUP2 PUSH1 0x4 DUP2 LT PUSH3 0x19AE JUMPI PUSH3 0x19AD PUSH3 0x4901 JUMP JUMPDEST JUMPDEST PUSH1 0x20 MUL ADD MLOAD PUSH1 0x9 PUSH1 0x0 DUP5 DUP2 MSTORE PUSH1 0x20 ADD SWAP1 DUP2 MSTORE PUSH1 0x20 ADD PUSH1 0x0 KECCAK256 PUSH1 0x6 ADD DUP3 PUSH1 0x4 DUP2 LT PUSH3 0x19DE JUMPI PUSH3 0x19DD PUSH3 0x4901 JUMP JUMPDEST JUMPDEST PUSH1 0x6 MUL ADD PUSH1 0x0 ADD PUSH1 0x0 PUSH2 0x100 EXP DUP2 SLOAD DUP2 PUSH20 0xFFFFFFFFFFFFFFFFFFFFFFFFFFFFFFFFFFFFFFFF MUL NOT AND SWAP1 DUP4 PUSH20 0xFFFFFFFFFFFFFFFFFFFFFFFFFFFFFFFFFFFFFFFF AND MUL OR SWAP1 SSTORE POP DUP1 DUP1 PUSH3 0x1A30 SWAP1 PUSH3 0x4930 JUMP JUMPDEST SWAP2 POP POP PUSH3 0x198E JUMP JUMPDEST POP PUSH3 0x1A47 DUP2 DUP8 DUP5 PUSH3 0x2D43 JUMP JUMPDEST DUP1 SWAP4 POP POP POP POP SWAP4 SWAP3 POP POP POP JUMP JUMPDEST PUSH3 0x1A71 DUP4 DUP4 DUP4 PUSH1 0x40 MLOAD DUP1 PUSH1 0x20 ADD PUSH1 0x40 MSTORE DUP1 PUSH1 0x0 DUP2 MSTORE POP PUSH3 0x1D01 JUMP JUMPDEST POP POP POP JUMP JUMPDEST PUSH1 0x0 DUP1 PUSH3 0x1A84 DUP4 PUSH3 0x2EAB JUMP JUMPDEST SWAP1 POP PUSH1 0x0 PUSH20 0xFFFFFFFFFFFFFFFFFFFFFFFFFFFFFFFFFFFFFFFF AND DUP2 PUSH20 0xFFFFFFFFFFFFFFFFFFFFFFFFFFFFFFFFFFFFFFFF AND SUB PUSH3 0x1AF8 JUMPI PUSH1 0x40 MLOAD PUSH32 0x8C379A000000000000000000000000000000000000000000000000000000000 DUP2 MSTORE PUSH1 0x4 ADD PUSH3 0x1AEF SWAP1 PUSH3 0x4CCE JUMP JUMPDEST PUSH1 0x40 MLOAD DUP1 SWAP2 SUB SWAP1 REVERT JUMPDEST DUP1 SWAP2 POP POP SWAP2 SWAP1 POP JUMP JUMPDEST PUSH1 0x0 DUP1 PUSH20 0xFFFFFFFFFFFFFFFFFFFFFFFFFFFFFFFFFFFFFFFF AND DUP3 PUSH20 0xFFFFFFFFFFFFFFFFFFFFFFFFFFFFFFFFFFFFFFFF AND SUB PUSH3 0x1B74 JUMPI PUSH1 0x40 MLOAD PUSH32 0x8C379A000000000000000000000000000000000000000000000000000000000 DUP2 MSTORE PUSH1 0x4 ADD PUSH3 0x1B6B SWAP1 PUSH3 0x4D66 JUMP JUMPDEST PUSH1 0x40 MLOAD DUP1 SWAP2 SUB SWAP1 REVERT JUMPDEST PUSH1 0x3 PUSH1 0x0 DUP4 PUSH20 0xFFFFFFFFFFFFFFFFFFFFFFFFFFFFFFFFFFFFFFFF AND PUSH20 0xFFFFFFFFFFFFFFFFFFFFFFFFFFFFFFFFFFFFFFFF AND DUP2 MSTORE PUSH1 0x20 ADD SWAP1 DUP2 MSTORE PUSH1 0x20 ADD PUSH1 0x0 KECCAK256 SLOAD SWAP1 POP SWAP2 SWAP1 POP JUMP JUMPDEST PUSH1 0x0 DUP1 PUSH1 0x9 PUSH1 0x0 DUP5 DUP2 MSTORE PUSH1 0x20 ADD SWAP1 DUP2 MSTORE PUSH1 0x20 ADD PUSH1 0x0 KECCAK256 SWAP1 POP DUP1 PUSH1 0x3 ADD PUSH1 0x0 SWAP1 SLOAD SWAP1 PUSH2 0x100 EXP SWAP1 DIV PUSH20 0xFFFFFFFFFFFFFFFFFFFFFFFFFFFFFFFFFFFFFFFF AND SWAP2 POP POP SWAP2 SWAP1 POP JUMP JUMPDEST PUSH1 0x0 PUSH1 0x9 PUSH1 0x0 DUP5 DUP2 MSTORE PUSH1 0x20 ADD SWAP1 DUP2 MSTORE PUSH1 0x20 ADD PUSH1 0x0 KECCAK256 SWAP1 POP DUP4 DUP2 PUSH1 0x6 ADD DUP4 PUSH1 0x4 DUP2 LT PUSH3 0x1C31 JUMPI PUSH3 0x1C30 PUSH3 0x4901 JUMP JUMPDEST JUMPDEST PUSH1 0x6 MUL ADD PUSH1 0x3 ADD SWAP1 DUP2 PUSH3 0x1C46 SWAP2 SWAP1 PUSH3 0x4F5A JUMP JUMPDEST POP POP POP POP POP JUMP JUMPDEST PUSH1 0x60 PUSH1 0x1 DUP1 SLOAD PUSH3 0x1C5E SWAP1 PUSH3 0x4732 JUMP JUMPDEST DUP1 PUSH1 0x1F ADD PUSH1 0x20 DUP1 SWAP2 DIV MUL PUSH1 0x20 ADD PUSH1 0x40 MLOAD SWAP1 DUP2 ADD PUSH1 0x40 MSTORE DUP1 SWAP3 SWAP2 SWAP1 DUP2 DUP2 MSTORE PUSH1 0x20 ADD DUP3 DUP1 SLOAD PUSH3 0x1C8C SWAP1 PUSH3 0x4732 JUMP JUMPDEST DUP1 ISZERO PUSH3 0x1CDD JUMPI DUP1 PUSH1 0x1F LT PUSH3 0x1CB1 JUMPI PUSH2 0x100 DUP1 DUP4 SLOAD DIV MUL DUP4 MSTORE SWAP2 PUSH1 0x20 ADD SWAP2 PUSH3 0x1CDD JUMP JUMPDEST DUP3 ADD SWAP2 SWAP1 PUSH1 0x0 MSTORE PUSH1 0x20 PUSH1 0x0 KECCAK256 SWAP1 JUMPDEST DUP2 SLOAD DUP2 MSTORE SWAP1 PUSH1 0x1 ADD SWAP1 PUSH1 0x20 ADD DUP1 DUP4 GT PUSH3 0x1CBF JUMPI DUP3 SWAP1 SUB PUSH1 0x1F AND DUP3 ADD SWAP2 JUMPDEST POP POP POP POP POP SWAP1 POP SWAP1 JUMP JUMPDEST PUSH3 0x1CFD PUSH3 0x1CF5 PUSH3 0x2613 JUMP JUMPDEST DUP4 DUP4 PUSH3 0x2EE8 JUMP JUMPDEST POP POP JUMP JUMPDEST PUSH3 0x1D16 PUSH3 0x1D0F PUSH3 0x2613 JUMP JUMPDEST DUP4 PUSH3 0x26E4 JUMP JUMPDEST PUSH3 0x1D58 JUMPI PUSH1 0x40 MLOAD PUSH32 0x8C379A000000000000000000000000000000000000000000000000000000000 DUP2 MSTORE PUSH1 0x4 ADD PUSH3 0x1D4F SWAP1 PUSH3 0x49F3 JUMP JUMPDEST PUSH1 0x40 MLOAD DUP1 SWAP2 SUB SWAP1 REVERT JUMPDEST PUSH3 0x1D66 DUP5 DUP5 DUP5 DUP5 PUSH3 0x3059 JUMP JUMPDEST POP POP POP POP JUMP JUMPDEST PUSH1 0x0 PUSH1 0x9 PUSH1 0x0 DUP4 DUP2 MSTORE PUSH1 0x20 ADD SWAP1 DUP2 MSTORE PUSH1 0x20 ADD PUSH1 0x0 KECCAK256 SWAP1 POP DUP1 PUSH1 0x3 ADD PUSH1 0x14 SWAP1 SLOAD SWAP1 PUSH2 0x100 EXP SWAP1 DIV PUSH1 0xFF AND ISZERO PUSH3 0x1DD8 JUMPI PUSH1 0x40 MLOAD PUSH32 0x8C379A000000000000000000000000000000000000000000000000000000000 DUP2 MSTORE PUSH1 0x4 ADD PUSH3 0x1DCF SWAP1 PUSH3 0x4A8B JUMP JUMPDEST PUSH1 0x40 MLOAD DUP1 SWAP2 SUB SWAP1 REVERT JUMPDEST DUP3 DUP2 PUSH1 0x5 ADD SWAP1 DUP2 PUSH3 0x1DEB SWAP2 SWAP1 PUSH3 0x4F5A JUMP JUMPDEST POP POP POP POP JUMP JUMPDEST PUSH1 0x0 DUP1 PUSH1 0x0 DUP1 PUSH3 0x1E01 PUSH3 0x3744 JUMP JUMPDEST PUSH1 0x0 PUSH1 0x9 PUSH1 0x0 DUP9 DUP2 MSTORE PUSH1 0x20 ADD SWAP1 DUP2 MSTORE PUSH1 0x20 ADD PUSH1 0x0 KECCAK256 SWAP1 POP DUP1 PUSH1 0x0 ADD SLOAD DUP2 PUSH1 0x1 ADD SLOAD DUP3 PUSH1 0x3 ADD PUSH1 0x0 SWAP1 SLOAD SWAP1 PUSH2 0x100 EXP SWAP1 DIV PUSH20 0xFFFFFFFFFFFFFFFFFFFFFFFFFFFFFFFFFFFFFFFF AND DUP4 PUSH1 0x3 ADD PUSH1 0x14 SWAP1 SLOAD SWAP1 PUSH2 0x100 EXP SWAP1 DIV PUSH1 0xFF AND DUP5 PUSH1 0x6 ADD DUP1 PUSH1 0x4 DUP1 PUSH1 0x20 MUL PUSH1 0x40 MLOAD SWAP1 DUP2 ADD PUSH1 0x40 MSTORE DUP1 SWAP3 SWAP2 SWAP1 PUSH1 0x0 SWAP1 JUMPDEST DUP3 DUP3 LT ISZERO PUSH3 0x1FE3 JUMPI DUP4 DUP3 PUSH1 0x6 MUL ADD PUSH1 0x40 MLOAD DUP1 PUSH1 0xE0 ADD PUSH1 0x40 MSTORE SWAP1 DUP2 PUSH1 0x0 DUP3 ADD PUSH1 0x0 SWAP1 SLOAD SWAP1 PUSH2 0x100 EXP SWAP1 DIV PUSH20 0xFFFFFFFFFFFFFFFFFFFFFFFFFFFFFFFFFFFFFFFF AND PUSH20 0xFFFFFFFFFFFFFFFFFFFFFFFFFFFFFFFFFFFFFFFF AND PUSH20 0xFFFFFFFFFFFFFFFFFFFFFFFFFFFFFFFFFFFFFFFF AND DUP2 MSTORE PUSH1 0x20 ADD PUSH1 0x1 DUP3 ADD SLOAD DUP2 MSTORE PUSH1 0x20 ADD PUSH1 0x2 DUP3 ADD SLOAD DUP2 MSTORE PUSH1 0x20 ADD PUSH1 0x3 DUP3 ADD DUP1 SLOAD PUSH3 0x1F0B SWAP1 PUSH3 0x4732 JUMP JUMPDEST DUP1 PUSH1 0x1F ADD PUSH1 0x20 DUP1 SWAP2 DIV MUL PUSH1 0x20 ADD PUSH1 0x40 MLOAD SWAP1 DUP2 ADD PUSH1 0x40 MSTORE DUP1 SWAP3 SWAP2 SWAP1 DUP2 DUP2 MSTORE PUSH1 0x20 ADD DUP3 DUP1 SLOAD PUSH3 0x1F39 SWAP1 PUSH3 0x4732 JUMP JUMPDEST DUP1 ISZERO PUSH3 0x1F8A JUMPI DUP1 PUSH1 0x1F LT PUSH3 0x1F5E JUMPI PUSH2 0x100 DUP1 DUP4 SLOAD DIV MUL DUP4 MSTORE SWAP2 PUSH1 0x20 ADD SWAP2 PUSH3 0x1F8A JUMP JUMPDEST DUP3 ADD SWAP2 SWAP1 PUSH1 0x0 MSTORE PUSH1 0x20 PUSH1 0x0 KECCAK256 SWAP1 JUMPDEST DUP2 SLOAD DUP2 MSTORE SWAP1 PUSH1 0x1 ADD SWAP1 PUSH1 0x20 ADD DUP1 DUP4 GT PUSH3 0x1F6C JUMPI DUP3 SWAP1 SUB PUSH1 0x1F AND DUP3 ADD SWAP2 JUMPDEST POP POP POP POP POP DUP2 MSTORE PUSH1 0x20 ADD PUSH1 0x4 DUP3 ADD SLOAD DUP2 MSTORE PUSH1 0x20 ADD PUSH1 0x5 DUP3 ADD PUSH1 0x0 SWAP1 SLOAD SWAP1 PUSH2 0x100 EXP SWAP1 DIV PUSH1 0xFF AND ISZERO ISZERO ISZERO ISZERO DUP2 MSTORE PUSH1 0x20 ADD PUSH1 0x5 DUP3 ADD PUSH1 0x1 SWAP1 SLOAD SWAP1 PUSH2 0x100 EXP SWAP1 DIV PUSH1 0xFF AND ISZERO ISZERO ISZERO ISZERO DUP2 MSTORE POP POP DUP2 MSTORE PUSH1 0x20 ADD SWAP1 PUSH1 0x1 ADD SWAP1 PUSH3 0x1E75 JUMP JUMPDEST POP POP POP POP SWAP1 POP SWAP6 POP SWAP6 POP SWAP6 POP SWAP6 POP SWAP6 POP POP SWAP2 SWAP4 SWAP6 SWAP1 SWAP3 SWAP5 POP JUMP JUMPDEST PUSH1 0x60 PUSH3 0x200A DUP3 PUSH3 0x25C3 JUMP JUMPDEST PUSH1 0x0 PUSH1 0x6 PUSH1 0x0 DUP5 DUP2 MSTORE PUSH1 0x20 ADD SWAP1 DUP2 MSTORE PUSH1 0x20 ADD PUSH1 0x0 KECCAK256 DUP1 SLOAD PUSH3 0x202C SWAP1 PUSH3 0x4732 JUMP JUMPDEST DUP1 PUSH1 0x1F ADD PUSH1 0x20 DUP1 SWAP2 DIV MUL PUSH1 0x20 ADD PUSH1 0x40 MLOAD SWAP1 DUP2 ADD PUSH1 0x40 MSTORE DUP1 SWAP3 SWAP2 SWAP1 DUP2 DUP2 MSTORE PUSH1 0x20 ADD DUP3 DUP1 SLOAD PUSH3 0x205A SWAP1 PUSH3 0x4732 JUMP JUMPDEST DUP1 ISZERO PUSH3 0x20AB JUMPI DUP1 PUSH1 0x1F LT PUSH3 0x207F JUMPI PUSH2 0x100 DUP1 DUP4 SLOAD DIV MUL DUP4 MSTORE SWAP2 PUSH1 0x20 ADD SWAP2 PUSH3 0x20AB JUMP JUMPDEST DUP3 ADD SWAP2 SWAP1 PUSH1 0x0 MSTORE PUSH1 0x20 PUSH1 0x0 KECCAK256 SWAP1 JUMPDEST DUP2 SLOAD DUP2 MSTORE SWAP1 PUSH1 0x1 ADD SWAP1 PUSH1 0x20 ADD DUP1 DUP4 GT PUSH3 0x208D JUMPI DUP3 SWAP1 SUB PUSH1 0x1F AND DUP3 ADD SWAP2 JUMPDEST POP POP POP POP POP SWAP1 POP PUSH1 0x0 PUSH3 0x20BE PUSH3 0x30BC JUMP JUMPDEST SWAP1 POP PUSH1 0x0 DUP2 MLOAD SUB PUSH3 0x20D5 JUMPI DUP2 SWAP3 POP POP POP PUSH3 0x211E JUMP JUMPDEST PUSH1 0x0 DUP3 MLOAD GT ISZERO PUSH3 0x210E JUMPI DUP1 DUP3 PUSH1 0x40 MLOAD PUSH1 0x20 ADD PUSH3 0x20F5 SWAP3 SWAP2 SWAP1 PUSH3 0x5083 JUMP JUMPDEST PUSH1 0x40 MLOAD PUSH1 0x20 DUP2 DUP4 SUB SUB DUP2 MSTORE SWAP1 PUSH1 0x40 MSTORE SWAP3 POP POP POP PUSH3 0x211E JUMP JUMPDEST PUSH3 0x2119 DUP5 PUSH3 0x30D3 JUMP JUMPDEST SWAP3 POP POP POP JUMPDEST SWAP2 SWAP1 POP JUMP JUMPDEST PUSH3 0x212D PUSH3 0x36BB JUMP JUMPDEST PUSH1 0x0 PUSH1 0x9 PUSH1 0x0 DUP5 DUP2 MSTORE PUSH1 0x20 ADD SWAP1 DUP2 MSTORE PUSH1 0x20 ADD PUSH1 0x0 KECCAK256 SWAP1 POP PUSH1 0x1 ISZERO ISZERO DUP2 PUSH1 0x3 ADD PUSH1 0x14 SWAP1 SLOAD SWAP1 PUSH2 0x100 EXP SWAP1 DIV PUSH1 0xFF AND ISZERO ISZERO SUB PUSH3 0x219F JUMPI PUSH1 0x40 MLOAD PUSH32 0x8C379A000000000000000000000000000000000000000000000000000000000 DUP2 MSTORE PUSH1 0x4 ADD PUSH3 0x2196 SWAP1 PUSH3 0x50FB JUMP JUMPDEST PUSH1 0x40 MLOAD DUP1 SWAP2 SUB SWAP1 REVERT JUMPDEST DUP1 PUSH1 0x40 MLOAD DUP1 PUSH2 0x100 ADD PUSH1 0x40 MSTORE SWAP1 DUP2 PUSH1 0x0 DUP3 ADD SLOAD DUP2 MSTORE PUSH1 0x20 ADD PUSH1 0x1 DUP3 ADD SLOAD DUP2 MSTORE PUSH1 0x20 ADD PUSH1 0x2 DUP3 ADD PUSH1 0x0 SWAP1 SLOAD SWAP1 PUSH2 0x100 EXP SWAP1 DIV PUSH20 0xFFFFFFFFFFFFFFFFFFFFFFFFFFFFFFFFFFFFFFFF AND PUSH20 0xFFFFFFFFFFFFFFFFFFFFFFFFFFFFFFFFFFFFFFFF AND PUSH20 0xFFFFFFFFFFFFFFFFFFFFFFFFFFFFFFFFFFFFFFFF AND DUP2 MSTORE PUSH1 0x20 ADD PUSH1 0x3 DUP3 ADD PUSH1 0x0 SWAP1 SLOAD SWAP1 PUSH2 0x100 EXP SWAP1 DIV PUSH20 0xFFFFFFFFFFFFFFFFFFFFFFFFFFFFFFFFFFFFFFFF AND PUSH20 0xFFFFFFFFFFFFFFFFFFFFFFFFFFFFFFFFFFFFFFFF AND PUSH20 0xFFFFFFFFFFFFFFFFFFFFFFFFFFFFFFFFFFFFFFFF AND DUP2 MSTORE PUSH1 0x20 ADD PUSH1 0x3 DUP3 ADD PUSH1 0x14 SWAP1 SLOAD SWAP1 PUSH2 0x100 EXP SWAP1 DIV PUSH1 0xFF AND ISZERO ISZERO ISZERO ISZERO DUP2 MSTORE PUSH1 0x20 ADD PUSH1 0x4 DUP3 ADD SLOAD DUP2 MSTORE PUSH1 0x20 ADD PUSH1 0x5 DUP3 ADD DUP1 SLOAD PUSH3 0x22A3 SWAP1 PUSH3 0x4732 JUMP JUMPDEST DUP1 PUSH1 0x1F ADD PUSH1 0x20 DUP1 SWAP2 DIV MUL PUSH1 0x20 ADD PUSH1 0x40 MLOAD SWAP1 DUP2 ADD PUSH1 0x40 MSTORE DUP1 SWAP3 SWAP2 SWAP1 DUP2 DUP2 MSTORE PUSH1 0x20 ADD DUP3 DUP1 SLOAD PUSH3 0x22D1 SWAP1 PUSH3 0x4732 JUMP JUMPDEST DUP1 ISZERO PUSH3 0x2322 JUMPI DUP1 PUSH1 0x1F LT PUSH3 0x22F6 JUMPI PUSH2 0x100 DUP1 DUP4 SLOAD DIV MUL DUP4 MSTORE SWAP2 PUSH1 0x20 ADD SWAP2 PUSH3 0x2322 JUMP JUMPDEST DUP3 ADD SWAP2 SWAP1 PUSH1 0x0 MSTORE PUSH1 0x20 PUSH1 0x0 KECCAK256 SWAP1 JUMPDEST DUP2 SLOAD DUP2 MSTORE SWAP1 PUSH1 0x1 ADD SWAP1 PUSH1 0x20 ADD DUP1 DUP4 GT PUSH3 0x2304 JUMPI DUP3 SWAP1 SUB PUSH1 0x1F AND DUP3 ADD SWAP2 JUMPDEST POP POP POP POP POP DUP2 MSTORE PUSH1 0x20 ADD PUSH1 0x6 DUP3 ADD PUSH1 0x4 DUP1 PUSH1 0x20 MUL PUSH1 0x40 MLOAD SWAP1 DUP2 ADD PUSH1 0x40 MSTORE DUP1 SWAP3 SWAP2 SWAP1 PUSH1 0x0 SWAP1 JUMPDEST DUP3 DUP3 LT ISZERO PUSH3 0x24B5 JUMPI DUP4 DUP3 PUSH1 0x6 MUL ADD PUSH1 0x40 MLOAD DUP1 PUSH1 0xE0 ADD PUSH1 0x40 MSTORE SWAP1 DUP2 PUSH1 0x0 DUP3 ADD PUSH1 0x0 SWAP1 SLOAD SWAP1 PUSH2 0x100 EXP SWAP1 DIV PUSH20 0xFFFFFFFFFFFFFFFFFFFFFFFFFFFFFFFFFFFFFFFF AND PUSH20 0xFFFFFFFFFFFFFFFFFFFFFFFFFFFFFFFFFFFFFFFF AND PUSH20 0xFFFFFFFFFFFFFFFFFFFFFFFFFFFFFFFFFFFFFFFF AND DUP2 MSTORE PUSH1 0x20 ADD PUSH1 0x1 DUP3 ADD SLOAD DUP2 MSTORE PUSH1 0x20 ADD PUSH1 0x2 DUP3 ADD SLOAD DUP2 MSTORE PUSH1 0x20 ADD PUSH1 0x3 DUP3 ADD DUP1 SLOAD PUSH3 0x23DD SWAP1 PUSH3 0x4732 JUMP JUMPDEST DUP1 PUSH1 0x1F ADD PUSH1 0x20 DUP1 SWAP2 DIV MUL PUSH1 0x20 ADD PUSH1 0x40 MLOAD SWAP1 DUP2 ADD PUSH1 0x40 MSTORE DUP1 SWAP3 SWAP2 SWAP1 DUP2 DUP2 MSTORE PUSH1 0x20 ADD DUP3 DUP1 SLOAD PUSH3 0x240B SWAP1 PUSH3 0x4732 JUMP JUMPDEST DUP1 ISZERO PUSH3 0x245C JUMPI DUP1 PUSH1 0x1F LT PUSH3 0x2430 JUMPI PUSH2 0x100 DUP1 DUP4 SLOAD DIV MUL DUP4 MSTORE SWAP2 PUSH1 0x20 ADD SWAP2 PUSH3 0x245C JUMP JUMPDEST DUP3 ADD SWAP2 SWAP1 PUSH1 0x0 MSTORE PUSH1 0x20 PUSH1 0x0 KECCAK256 SWAP1 JUMPDEST DUP2 SLOAD DUP2 MSTORE SWAP1 PUSH1 0x1 ADD SWAP1 PUSH1 0x20 ADD DUP1 DUP4 GT PUSH3 0x243E JUMPI DUP3 SWAP1 SUB PUSH1 0x1F AND DUP3 ADD SWAP2 JUMPDEST POP POP POP POP POP DUP2 MSTORE PUSH1 0x20 ADD PUSH1 0x4 DUP3 ADD SLOAD DUP2 MSTORE PUSH1 0x20 ADD PUSH1 0x5 DUP3 ADD PUSH1 0x0 SWAP1 SLOAD SWAP1 PUSH2 0x100 EXP SWAP1 DIV PUSH1 0xFF AND ISZERO ISZERO ISZERO ISZERO DUP2 MSTORE PUSH1 0x20 ADD PUSH1 0x5 DUP3 ADD PUSH1 0x1 SWAP1 SLOAD SWAP1 PUSH2 0x100 EXP SWAP1 DIV PUSH1 0xFF AND ISZERO ISZERO ISZERO ISZERO DUP2 MSTORE POP POP DUP2 MSTORE PUSH1 0x20 ADD SWAP1 PUSH1 0x1 ADD SWAP1 PUSH3 0x2347 JUMP JUMPDEST POP POP POP POP DUP2 MSTORE POP POP SWAP2 POP POP SWAP2 SWAP1 POP JUMP JUMPDEST PUSH1 0x0 PUSH1 0x5 PUSH1 0x0 DUP5 PUSH20 0xFFFFFFFFFFFFFFFFFFFFFFFFFFFFFFFFFFFFFFFF AND PUSH20 0xFFFFFFFFFFFFFFFFFFFFFFFFFFFFFFFFFFFFFFFF AND DUP2 MSTORE PUSH1 0x20 ADD SWAP1 DUP2 MSTORE PUSH1 0x20 ADD PUSH1 0x0 KECCAK256 PUSH1 0x0 DUP4 PUSH20 0xFFFFFFFFFFFFFFFFFFFFFFFFFFFFFFFFFFFFFFFF AND PUSH20 0xFFFFFFFFFFFFFFFFFFFFFFFFFFFFFFFFFFFFFFFF AND DUP2 MSTORE PUSH1 0x20 ADD SWAP1 DUP2 MSTORE PUSH1 0x20 ADD PUSH1 0x0 KECCAK256 PUSH1 0x0 SWAP1 SLOAD SWAP1 PUSH2 0x100 EXP SWAP1 DIV PUSH1 0xFF AND SWAP1 POP SWAP3 SWAP2 POP POP JUMP JUMPDEST PUSH1 0x0 PUSH32 0x1FFC9A700000000000000000000000000000000000000000000000000000000 PUSH28 0xFFFFFFFFFFFFFFFFFFFFFFFFFFFFFFFFFFFFFFFFFFFFFFFFFFFFFFFF NOT AND DUP3 PUSH28 0xFFFFFFFFFFFFFFFFFFFFFFFFFFFFFFFFFFFFFFFFFFFFFFFFFFFFFFFF NOT AND EQ SWAP1 POP SWAP2 SWAP1 POP JUMP JUMPDEST PUSH3 0x25CE DUP2 PUSH3 0x3145 JUMP JUMPDEST PUSH3 0x2610 JUMPI PUSH1 0x40 MLOAD PUSH32 0x8C379A000000000000000000000000000000000000000000000000000000000 DUP2 MSTORE PUSH1 0x4 ADD PUSH3 0x2607 SWAP1 PUSH3 0x4CCE JUMP JUMPDEST PUSH1 0x40 MLOAD DUP1 SWAP2 SUB SWAP1 REVERT JUMPDEST POP JUMP JUMPDEST PUSH1 0x0 CALLER SWAP1 POP SWAP1 JUMP JUMPDEST DUP2 PUSH1 0x4 PUSH1 0x0 DUP4 DUP2 MSTORE PUSH1 0x20 ADD SWAP1 DUP2 MSTORE PUSH1 0x20 ADD PUSH1 0x0 KECCAK256 PUSH1 0x0 PUSH2 0x100 EXP DUP2 SLOAD DUP2 PUSH20 0xFFFFFFFFFFFFFFFFFFFFFFFFFFFFFFFFFFFFFFFF MUL NOT AND SWAP1 DUP4 PUSH20 0xFFFFFFFFFFFFFFFFFFFFFFFFFFFFFFFFFFFFFFFF AND MUL OR SWAP1 SSTORE POP DUP1 DUP3 PUSH20 0xFFFFFFFFFFFFFFFFFFFFFFFFFFFFFFFFFFFFFFFF AND PUSH3 0x2690 DUP4 PUSH3 0x1A76 JUMP JUMPDEST PUSH20 0xFFFFFFFFFFFFFFFFFFFFFFFFFFFFFFFFFFFFFFFF AND PUSH32 0x8C5BE1E5EBEC7D5BD14F71427D1E84F3DD0314C0F7B2291E5B200AC8C7C3B925 PUSH1 0x40 MLOAD PUSH1 0x40 MLOAD DUP1 SWAP2 SUB SWAP1 LOG4 POP POP JUMP JUMPDEST PUSH1 0x0 DUP2 PUSH1 0x0 ADD SLOAD SWAP1 POP SWAP2 SWAP1 POP JUMP JUMPDEST PUSH1 0x0 DUP1 PUSH3 0x26F2 DUP4 PUSH3 0x1A76 JUMP JUMPDEST SWAP1 POP DUP1 PUSH20 0xFFFFFFFFFFFFFFFFFFFFFFFFFFFFFFFFFFFFFFFF AND DUP5 PUSH20 0xFFFFFFFFFFFFFFFFFFFFFFFFFFFFFFFFFFFFFFFF AND EQ DUP1 PUSH3 0x2737 JUMPI POP PUSH3 0x2736 DUP2 DUP6 PUSH3 0x24C5 JUMP JUMPDEST JUMPDEST DUP1 PUSH3 0x2778 JUMPI POP DUP4 PUSH20 0xFFFFFFFFFFFFFFFFFFFFFFFFFFFFFFFFFFFFFFFF AND PUSH3 0x2760 DUP5 PUSH3 0x75B JUMP JUMPDEST PUSH20 0xFFFFFFFFFFFFFFFFFFFFFFFFFFFFFFFFFFFFFFFF AND EQ JUMPDEST SWAP2 POP POP SWAP3 SWAP2 POP POP JUMP JUMPDEST DUP3 PUSH20 0xFFFFFFFFFFFFFFFFFFFFFFFFFFFFFFFFFFFFFFFF AND PUSH3 0x27A3 DUP3 PUSH3 0x1A76 JUMP JUMPDEST PUSH20 0xFFFFFFFFFFFFFFFFFFFFFFFFFFFFFFFFFFFFFFFF AND EQ PUSH3 0x27FC JUMPI PUSH1 0x40 MLOAD PUSH32 0x8C379A000000000000000000000000000000000000000000000000000000000 DUP2 MSTORE PUSH1 0x4 ADD PUSH3 0x27F3 SWAP1 PUSH3 0x5193 JUMP JUMPDEST PUSH1 0x40 MLOAD DUP1 SWAP2 SUB SWAP1 REVERT JUMPDEST PUSH1 0x0 PUSH20 0xFFFFFFFFFFFFFFFFFFFFFFFFFFFFFFFFFFFFFFFF AND DUP3 PUSH20 0xFFFFFFFFFFFFFFFFFFFFFFFFFFFFFFFFFFFFFFFF AND SUB PUSH3 0x286E JUMPI PUSH1 0x40 MLOAD PUSH32 0x8C379A000000000000000000000000000000000000000000000000000000000 DUP2 MSTORE PUSH1 0x4 ADD PUSH3 0x2865 SWAP1 PUSH3 0x522B JUMP JUMPDEST PUSH1 0x40 MLOAD DUP1 SWAP2 SUB SWAP1 REVERT JUMPDEST PUSH3 0x287D DUP4 DUP4 DUP4 PUSH1 0x1 PUSH3 0x3188 JUMP JUMPDEST DUP3 PUSH20 0xFFFFFFFFFFFFFFFFFFFFFFFFFFFFFFFFFFFFFFFF AND PUSH3 0x289F DUP3 PUSH3 0x1A76 JUMP JUMPDEST PUSH20 0xFFFFFFFFFFFFFFFFFFFFFFFFFFFFFFFFFFFFFFFF AND EQ PUSH3 0x28F8 JUMPI PUSH1 0x40 MLOAD PUSH32 0x8C379A000000000000000000000000000000000000000000000000000000000 DUP2 MSTORE PUSH1 0x4 ADD PUSH3 0x28EF SWAP1 PUSH3 0x5193 JUMP JUMPDEST PUSH1 0x40 MLOAD DUP1 SWAP2 SUB SWAP1 REVERT JUMPDEST PUSH1 0x4 PUSH1 0x0 DUP3 DUP2 MSTORE PUSH1 0x20 ADD SWAP1 DUP2 MSTORE PUSH1 0x20 ADD PUSH1 0x0 KECCAK256 PUSH1 0x0 PUSH2 0x100 EXP DUP2 SLOAD SWAP1 PUSH20 0xFFFFFFFFFFFFFFFFFFFFFFFFFFFFFFFFFFFFFFFF MUL NOT AND SWAP1 SSTORE PUSH1 0x1 PUSH1 0x3 PUSH1 0x0 DUP6 PUSH20 0xFFFFFFFFFFFFFFFFFFFFFFFFFFFFFFFFFFFFFFFF AND PUSH20 0xFFFFFFFFFFFFFFFFFFFFFFFFFFFFFFFFFFFFFFFF AND DUP2 MSTORE PUSH1 0x20 ADD SWAP1 DUP2 MSTORE PUSH1 0x20 ADD PUSH1 0x0 KECCAK256 PUSH1 0x0 DUP3 DUP3 SLOAD SUB SWAP3 POP POP DUP2 SWAP1 SSTORE POP PUSH1 0x1 PUSH1 0x3 PUSH1 0x0 DUP5 PUSH20 0xFFFFFFFFFFFFFFFFFFFFFFFFFFFFFFFFFFFFFFFF AND PUSH20 0xFFFFFFFFFFFFFFFFFFFFFFFFFFFFFFFFFFFFFFFF AND DUP2 MSTORE PUSH1 0x20 ADD SWAP1 DUP2 MSTORE PUSH1 0x20 ADD PUSH1 0x0 KECCAK256 PUSH1 0x0 DUP3 DUP3 SLOAD ADD SWAP3 POP POP DUP2 SWAP1 SSTORE POP DUP2 PUSH1 0x2 PUSH1 0x0 DUP4 DUP2 MSTORE PUSH1 0x20 ADD SWAP1 DUP2 MSTORE PUSH1 0x20 ADD PUSH1 0x0 KECCAK256 PUSH1 0x0 PUSH2 0x100 EXP DUP2 SLOAD DUP2 PUSH20 0xFFFFFFFFFFFFFFFFFFFFFFFFFFFFFFFFFFFFFFFF MUL NOT AND SWAP1 DUP4 PUSH20 0xFFFFFFFFFFFFFFFFFFFFFFFFFFFFFFFFFFFFFFFF AND MUL OR SWAP1 SSTORE POP DUP1 DUP3 PUSH20 0xFFFFFFFFFFFFFFFFFFFFFFFFFFFFFFFFFFFFFFFF AND DUP5 PUSH20 0xFFFFFFFFFFFFFFFFFFFFFFFFFFFFFFFFFFFFFFFF AND PUSH32 0xDDF252AD1BE2C89B69C2B068FC378DAA952BA7F163C4A11628F55A4DF523B3EF PUSH1 0x40 MLOAD PUSH1 0x40 MLOAD DUP1 SWAP2 SUB SWAP1 LOG4 PUSH3 0x2A86 DUP4 DUP4 DUP4 PUSH1 0x1 PUSH3 0x32B5 JUMP JUMPDEST POP POP POP JUMP JUMPDEST PUSH1 0x1 DUP2 PUSH1 0x0 ADD PUSH1 0x0 DUP3 DUP3 SLOAD ADD SWAP3 POP POP DUP2 SWAP1 SSTORE POP POP JUMP JUMPDEST PUSH1 0x0 PUSH20 0xFFFFFFFFFFFFFFFFFFFFFFFFFFFFFFFFFFFFFFFF AND DUP3 PUSH20 0xFFFFFFFFFFFFFFFFFFFFFFFFFFFFFFFFFFFFFFFF AND SUB PUSH3 0x2B13 JUMPI PUSH1 0x40 MLOAD PUSH32 0x8C379A000000000000000000000000000000000000000000000000000000000 DUP2 MSTORE PUSH1 0x4 ADD PUSH3 0x2B0A SWAP1 PUSH3 0x529D JUMP JUMPDEST PUSH1 0x40 MLOAD DUP1 SWAP2 SUB SWAP1 REVERT JUMPDEST PUSH3 0x2B1E DUP2 PUSH3 0x3145 JUMP JUMPDEST ISZERO PUSH3 0x2B61 JUMPI PUSH1 0x40 MLOAD PUSH32 0x8C379A000000000000000000000000000000000000000000000000000000000 DUP2 MSTORE PUSH1 0x4 ADD PUSH3 0x2B58 SWAP1 PUSH3 0x530F JUMP JUMPDEST PUSH1 0x40 MLOAD DUP1 SWAP2 SUB SWAP1 REVERT JUMPDEST PUSH3 0x2B71 PUSH1 0x0 DUP4 DUP4 PUSH1 0x1 PUSH3 0x3188 JUMP JUMPDEST PUSH3 0x2B7C DUP2 PUSH3 0x3145 JUMP JUMPDEST ISZERO PUSH3 0x2BBF JUMPI PUSH1 0x40 MLOAD PUSH32 0x8C379A000000000000000000000000000000000000000000000000000000000 DUP2 MSTORE PUSH1 0x4 ADD PUSH3 0x2BB6 SWAP1 PUSH3 0x530F JUMP JUMPDEST PUSH1 0x40 MLOAD DUP1 SWAP2 SUB SWAP1 REVERT JUMPDEST PUSH1 0x1 PUSH1 0x3 PUSH1 0x0 DUP5 PUSH20 0xFFFFFFFFFFFFFFFFFFFFFFFFFFFFFFFFFFFFFFFF AND PUSH20 0xFFFFFFFFFFFFFFFFFFFFFFFFFFFFFFFFFFFFFFFF AND DUP2 MSTORE PUSH1 0x20 ADD SWAP1 DUP2 MSTORE PUSH1 0x20 ADD PUSH1 0x0 KECCAK256 PUSH1 0x0 DUP3 DUP3 SLOAD ADD SWAP3 POP POP DUP2 SWAP1 SSTORE POP DUP2 PUSH1 0x2 PUSH1 0x0 DUP4 DUP2 MSTORE PUSH1 0x20 ADD SWAP1 DUP2 MSTORE PUSH1 0x20 ADD PUSH1 0x0 KECCAK256 PUSH1 0x0 PUSH2 0x100 EXP DUP2 SLOAD DUP2 PUSH20 0xFFFFFFFFFFFFFFFFFFFFFFFFFFFFFFFFFFFFFFFF MUL NOT AND SWAP1 DUP4 PUSH20 0xFFFFFFFFFFFFFFFFFFFFFFFFFFFFFFFFFFFFFFFF AND MUL OR SWAP1 SSTORE POP DUP1 DUP3 PUSH20 0xFFFFFFFFFFFFFFFFFFFFFFFFFFFFFFFFFFFFFFFF AND PUSH1 0x0 PUSH20 0xFFFFFFFFFFFFFFFFFFFFFFFFFFFFFFFFFFFFFFFF AND PUSH32 0xDDF252AD1BE2C89B69C2B068FC378DAA952BA7F163C4A11628F55A4DF523B3EF PUSH1 0x40 MLOAD PUSH1 0x40 MLOAD DUP1 SWAP2 SUB SWAP1 LOG4 PUSH3 0x2CCB PUSH1 0x0 DUP4 DUP4 PUSH1 0x1 PUSH3 0x32B5 JUMP JUMPDEST POP POP JUMP JUMPDEST PUSH3 0x2CDA DUP3 PUSH3 0x3145 JUMP JUMPDEST PUSH3 0x2D1C JUMPI PUSH1 0x40 MLOAD PUSH32 0x8C379A000000000000000000000000000000000000000000000000000000000 DUP2 MSTORE PUSH1 0x4 ADD PUSH3 0x2D13 SWAP1 PUSH3 0x53A7 JUMP JUMPDEST PUSH1 0x40 MLOAD DUP1 SWAP2 SUB SWAP1 REVERT JUMPDEST DUP1 PUSH1 0x6 PUSH1 0x0 DUP5 DUP2 MSTORE PUSH1 0x20 ADD SWAP1 DUP2 MSTORE PUSH1 0x20 ADD PUSH1 0x0 KECCAK256 SWAP1 DUP2 PUSH3 0x2D3E SWAP2 SWAP1 PUSH3 0x4F5A JUMP JUMPDEST POP POP POP JUMP JUMPDEST PUSH1 0x0 DUP3 GT PUSH3 0x2D89 JUMPI PUSH1 0x40 MLOAD PUSH32 0x8C379A000000000000000000000000000000000000000000000000000000000 DUP2 MSTORE PUSH1 0x4 ADD PUSH3 0x2D80 SWAP1 PUSH3 0x5419 JUMP JUMPDEST PUSH1 0x40 MLOAD DUP1 SWAP2 SUB SWAP1 REVERT JUMPDEST DUP3 PUSH1 0x9 PUSH1 0x0 DUP6 DUP2 MSTORE PUSH1 0x20 ADD SWAP1 DUP2 MSTORE PUSH1 0x20 ADD PUSH1 0x0 KECCAK256 PUSH1 0x0 ADD DUP2 SWAP1 SSTORE POP DUP2 PUSH1 0x9 PUSH1 0x0 DUP6 DUP2 MSTORE PUSH1 0x20 ADD SWAP1 DUP2 MSTORE PUSH1 0x20 ADD PUSH1 0x0 KECCAK256 PUSH1 0x1 ADD DUP2 SWAP1 SSTORE POP TIMESTAMP PUSH1 0x9 PUSH1 0x0 DUP6 DUP2 MSTORE PUSH1 0x20 ADD SWAP1 DUP2 MSTORE PUSH1 0x20 ADD PUSH1 0x0 KECCAK256 PUSH1 0x4 ADD DUP2 SWAP1 SSTORE POP DUP1 PUSH1 0x9 PUSH1 0x0 DUP6 DUP2 MSTORE PUSH1 0x20 ADD SWAP1 DUP2 MSTORE PUSH1 0x20 ADD PUSH1 0x0 KECCAK256 PUSH1 0x3 ADD PUSH1 0x0 PUSH2 0x100 EXP DUP2 SLOAD DUP2 PUSH20 0xFFFFFFFFFFFFFFFFFFFFFFFFFFFFFFFFFFFFFFFF MUL NOT AND SWAP1 DUP4 PUSH20 0xFFFFFFFFFFFFFFFFFFFFFFFFFFFFFFFFFFFFFFFF AND MUL OR SWAP1 SSTORE POP PUSH1 0x8 PUSH1 0x0 SWAP1 SLOAD SWAP1 PUSH2 0x100 EXP SWAP1 DIV PUSH20 0xFFFFFFFFFFFFFFFFFFFFFFFFFFFFFFFFFFFFFFFF AND PUSH1 0x9 PUSH1 0x0 DUP6 DUP2 MSTORE PUSH1 0x20 ADD SWAP1 DUP2 MSTORE PUSH1 0x20 ADD PUSH1 0x0 KECCAK256 PUSH1 0x2 ADD PUSH1 0x0 PUSH2 0x100 EXP DUP2 SLOAD DUP2 PUSH20 0xFFFFFFFFFFFFFFFFFFFFFFFFFFFFFFFFFFFFFFFF MUL NOT AND SWAP1 DUP4 PUSH20 0xFFFFFFFFFFFFFFFFFFFFFFFFFFFFFFFFFFFFFFFF AND MUL OR SWAP1 SSTORE POP POP POP POP JUMP JUMPDEST PUSH1 0x0 PUSH1 0x2 PUSH1 0x0 DUP4 DUP2 MSTORE PUSH1 0x20 ADD SWAP1 DUP2 MSTORE PUSH1 0x20 ADD PUSH1 0x0 KECCAK256 PUSH1 0x0 SWAP1 SLOAD SWAP1 PUSH2 0x100 EXP SWAP1 DIV PUSH20 0xFFFFFFFFFFFFFFFFFFFFFFFFFFFFFFFFFFFFFFFF AND SWAP1 POP SWAP2 SWAP1 POP JUMP JUMPDEST DUP2 PUSH20 0xFFFFFFFFFFFFFFFFFFFFFFFFFFFFFFFFFFFFFFFF AND DUP4 PUSH20 0xFFFFFFFFFFFFFFFFFFFFFFFFFFFFFFFFFFFFFFFF AND SUB PUSH3 0x2F59 JUMPI PUSH1 0x40 MLOAD PUSH32 0x8C379A000000000000000000000000000000000000000000000000000000000 DUP2 MSTORE PUSH1 0x4 ADD PUSH3 0x2F50 SWAP1 PUSH3 0x548B JUMP JUMPDEST PUSH1 0x40 MLOAD DUP1 SWAP2 SUB SWAP1 REVERT JUMPDEST DUP1 PUSH1 0x5 PUSH1 0x0 DUP6 PUSH20 0xFFFFFFFFFFFFFFFFFFFFFFFFFFFFFFFFFFFFFFFF AND PUSH20 0xFFFFFFFFFFFFFFFFFFFFFFFFFFFFFFFFFFFFFFFF AND DUP2 MSTORE PUSH1 0x20 ADD SWAP1 DUP2 MSTORE PUSH1 0x20 ADD PUSH1 0x0 KECCAK256 PUSH1 0x0 DUP5 PUSH20 0xFFFFFFFFFFFFFFFFFFFFFFFFFFFFFFFFFFFFFFFF AND PUSH20 0xFFFFFFFFFFFFFFFFFFFFFFFFFFFFFFFFFFFFFFFF AND DUP2 MSTORE PUSH1 0x20 ADD SWAP1 DUP2 MSTORE PUSH1 0x20 ADD PUSH1 0x0 KECCAK256 PUSH1 0x0 PUSH2 0x100 EXP DUP2 SLOAD DUP2 PUSH1 0xFF MUL NOT AND SWAP1 DUP4 ISZERO ISZERO MUL OR SWAP1 SSTORE POP DUP2 PUSH20 0xFFFFFFFFFFFFFFFFFFFFFFFFFFFFFFFFFFFFFFFF AND DUP4 PUSH20 0xFFFFFFFFFFFFFFFFFFFFFFFFFFFFFFFFFFFFFFFF AND PUSH32 0x17307EAB39AB6107E8899845AD3D59BD9653F200F220920489CA2B5937696C31 DUP4 PUSH1 0x40 MLOAD PUSH3 0x304C SWAP2 SWAP1 PUSH3 0x388B JUMP JUMPDEST PUSH1 0x40 MLOAD DUP1 SWAP2 SUB SWAP1 LOG3 POP POP POP JUMP JUMPDEST PUSH3 0x3066 DUP5 DUP5 DUP5 PUSH3 0x2781 JUMP JUMPDEST PUSH3 0x3074 DUP5 DUP5 DUP5 DUP5 PUSH3 0x32BB JUMP JUMPDEST PUSH3 0x30B6 JUMPI PUSH1 0x40 MLOAD PUSH32 0x8C379A000000000000000000000000000000000000000000000000000000000 DUP2 MSTORE PUSH1 0x4 ADD PUSH3 0x30AD SWAP1 PUSH3 0x5523 JUMP JUMPDEST PUSH1 0x40 MLOAD DUP1 SWAP2 SUB SWAP1 REVERT JUMPDEST POP POP POP POP JUMP JUMPDEST PUSH1 0x60 PUSH1 0x40 MLOAD DUP1 PUSH1 0x20 ADD PUSH1 0x40 MSTORE DUP1 PUSH1 0x0 DUP2 MSTORE POP SWAP1 POP SWAP1 JUMP JUMPDEST PUSH1 0x60 PUSH3 0x30E0 DUP3 PUSH3 0x25C3 JUMP JUMPDEST PUSH1 0x0 PUSH3 0x30EC PUSH3 0x30BC JUMP JUMPDEST SWAP1 POP PUSH1 0x0 DUP2 MLOAD GT PUSH3 0x310E JUMPI PUSH1 0x40 MLOAD DUP1 PUSH1 0x20 ADD PUSH1 0x40 MSTORE DUP1 PUSH1 0x0 DUP2 MSTORE POP PUSH3 0x313D JUMP JUMPDEST DUP1 PUSH3 0x311A DUP5 PUSH3 0x3453 JUMP JUMPDEST PUSH1 0x40 MLOAD PUSH1 0x20 ADD PUSH3 0x312D SWAP3 SWAP2 SWAP1 PUSH3 0x5083 JUMP JUMPDEST PUSH1 0x40 MLOAD PUSH1 0x20 DUP2 DUP4 SUB SUB DUP2 MSTORE SWAP1 PUSH1 0x40 MSTORE JUMPDEST SWAP2 POP POP SWAP2 SWAP1 POP JUMP JUMPDEST PUSH1 0x0 DUP1 PUSH20 0xFFFFFFFFFFFFFFFFFFFFFFFFFFFFFFFFFFFFFFFF AND PUSH3 0x3169 DUP4 PUSH3 0x2EAB JUMP JUMPDEST PUSH20 0xFFFFFFFFFFFFFFFFFFFFFFFFFFFFFFFFFFFFFFFF AND EQ ISZERO SWAP1 POP SWAP2 SWAP1 POP JUMP JUMPDEST PUSH1 0x1 DUP2 GT ISZERO PUSH3 0x32AF JUMPI PUSH1 0x0 PUSH20 0xFFFFFFFFFFFFFFFFFFFFFFFFFFFFFFFFFFFFFFFF AND DUP5 PUSH20 0xFFFFFFFFFFFFFFFFFFFFFFFFFFFFFFFFFFFFFFFF AND EQ PUSH3 0x3220 JUMPI DUP1 PUSH1 0x3 PUSH1 0x0 DUP7 PUSH20 0xFFFFFFFFFFFFFFFFFFFFFFFFFFFFFFFFFFFFFFFF AND PUSH20 0xFFFFFFFFFFFFFFFFFFFFFFFFFFFFFFFFFFFFFFFF AND DUP2 MSTORE PUSH1 0x20 ADD SWAP1 DUP2 MSTORE PUSH1 0x20 ADD PUSH1 0x0 KECCAK256 PUSH1 0x0 DUP3 DUP3 SLOAD PUSH3 0x3218 SWAP2 SWAP1 PUSH3 0x4BD1 JUMP JUMPDEST SWAP3 POP POP DUP2 SWAP1 SSTORE POP JUMPDEST PUSH1 0x0 PUSH20 0xFFFFFFFFFFFFFFFFFFFFFFFFFFFFFFFFFFFFFFFF AND DUP4 PUSH20 0xFFFFFFFFFFFFFFFFFFFFFFFFFFFFFFFFFFFFFFFF AND EQ PUSH3 0x32AE JUMPI DUP1 PUSH1 0x3 PUSH1 0x0 DUP6 PUSH20 0xFFFFFFFFFFFFFFFFFFFFFFFFFFFFFFFFFFFFFFFF AND PUSH20 0xFFFFFFFFFFFFFFFFFFFFFFFFFFFFFFFFFFFFFFFF AND DUP2 MSTORE PUSH1 0x20 ADD SWAP1 DUP2 MSTORE PUSH1 0x20 ADD PUSH1 0x0 KECCAK256 PUSH1 0x0 DUP3 DUP3 SLOAD PUSH3 0x32A6 SWAP2 SWAP1 PUSH3 0x48C6 JUMP JUMPDEST SWAP3 POP POP DUP2 SWAP1 SSTORE POP JUMPDEST JUMPDEST POP POP POP POP JUMP JUMPDEST POP POP POP POP JUMP JUMPDEST PUSH1 0x0 PUSH3 0x32DE DUP5 PUSH20 0xFFFFFFFFFFFFFFFFFFFFFFFFFFFFFFFFFFFFFFFF AND PUSH3 0x352C JUMP JUMPDEST ISZERO PUSH3 0x3446 JUMPI DUP4 PUSH20 0xFFFFFFFFFFFFFFFFFFFFFFFFFFFFFFFFFFFFFFFF AND PUSH4 0x150B7A02 PUSH3 0x330A PUSH3 0x2613 JUMP JUMPDEST DUP8 DUP7 DUP7 PUSH1 0x40 MLOAD DUP6 PUSH4 0xFFFFFFFF AND PUSH1 0xE0 SHL DUP2 MSTORE PUSH1 0x4 ADD PUSH3 0x332E SWAP5 SWAP4 SWAP3 SWAP2 SWAP1 PUSH3 0x55A2 JUMP JUMPDEST PUSH1 0x20 PUSH1 0x40 MLOAD DUP1 DUP4 SUB DUP2 PUSH1 0x0 DUP8 GAS CALL SWAP3 POP POP POP DUP1 ISZERO PUSH3 0x336D JUMPI POP PUSH1 0x40 MLOAD RETURNDATASIZE PUSH1 0x1F NOT PUSH1 0x1F DUP3 ADD AND DUP3 ADD DUP1 PUSH1 0x40 MSTORE POP DUP2 ADD SWAP1 PUSH3 0x336A SWAP2 SWAP1 PUSH3 0x560D JUMP JUMPDEST PUSH1 0x1 JUMPDEST PUSH3 0x33F5 JUMPI RETURNDATASIZE DUP1 PUSH1 0x0 DUP2 EQ PUSH3 0x33A0 JUMPI PUSH1 0x40 MLOAD SWAP2 POP PUSH1 0x1F NOT PUSH1 0x3F RETURNDATASIZE ADD AND DUP3 ADD PUSH1 0x40 MSTORE RETURNDATASIZE DUP3 MSTORE RETURNDATASIZE PUSH1 0x0 PUSH1 0x20 DUP5 ADD RETURNDATACOPY PUSH3 0x33A5 JUMP JUMPDEST PUSH1 0x60 SWAP2 POP JUMPDEST POP PUSH1 0x0 DUP2 MLOAD SUB PUSH3 0x33ED JUMPI PUSH1 0x40 MLOAD PUSH32 0x8C379A000000000000000000000000000000000000000000000000000000000 DUP2 MSTORE PUSH1 0x4 ADD PUSH3 0x33E4 SWAP1 PUSH3 0x5523 JUMP JUMPDEST PUSH1 0x40 MLOAD DUP1 SWAP2 SUB SWAP1 REVERT JUMPDEST DUP1 MLOAD DUP2 PUSH1 0x20 ADD REVERT JUMPDEST PUSH4 0x150B7A02 PUSH1 0xE0 SHL PUSH28 0xFFFFFFFFFFFFFFFFFFFFFFFFFFFFFFFFFFFFFFFFFFFFFFFFFFFFFFFF NOT AND DUP2 PUSH28 0xFFFFFFFFFFFFFFFFFFFFFFFFFFFFFFFFFFFFFFFFFFFFFFFFFFFFFFFF NOT AND EQ SWAP2 POP POP PUSH3 0x344B JUMP JUMPDEST PUSH1 0x1 SWAP1 POP JUMPDEST SWAP5 SWAP4 POP POP POP POP JUMP JUMPDEST PUSH1 0x60 PUSH1 0x0 PUSH1 0x1 PUSH3 0x3464 DUP5 PUSH3 0x354F JUMP JUMPDEST ADD SWAP1 POP PUSH1 0x0 DUP2 PUSH8 0xFFFFFFFFFFFFFFFF DUP2 GT ISZERO PUSH3 0x3486 JUMPI PUSH3 0x3485 PUSH3 0x3F89 JUMP JUMPDEST JUMPDEST PUSH1 0x40 MLOAD SWAP1 DUP1 DUP3 MSTORE DUP1 PUSH1 0x1F ADD PUSH1 0x1F NOT AND PUSH1 0x20 ADD DUP3 ADD PUSH1 0x40 MSTORE DUP1 ISZERO PUSH3 0x34B9 JUMPI DUP2 PUSH1 0x20 ADD PUSH1 0x1 DUP3 MUL DUP1 CALLDATASIZE DUP4 CALLDATACOPY DUP1 DUP3 ADD SWAP2 POP POP SWAP1 POP JUMPDEST POP SWAP1 POP PUSH1 0x0 DUP3 PUSH1 0x20 ADD DUP3 ADD SWAP1 POP JUMPDEST PUSH1 0x1 ISZERO PUSH3 0x3521 JUMPI DUP1 DUP1 PUSH1 0x1 SWAP1 SUB SWAP2 POP POP PUSH32 0x3031323334353637383961626364656600000000000000000000000000000000 PUSH1 0xA DUP7 MOD BYTE DUP2 MSTORE8 PUSH1 0xA DUP6 DUP2 PUSH3 0x3514 JUMPI PUSH3 0x3513 PUSH3 0x4B1F JUMP JUMPDEST JUMPDEST DIV SWAP5 POP PUSH1 0x0 DUP6 SUB PUSH3 0x34C7 JUMPI JUMPDEST DUP2 SWAP4 POP POP POP POP SWAP2 SWAP1 POP JUMP JUMPDEST PUSH1 0x0 DUP1 DUP3 PUSH20 0xFFFFFFFFFFFFFFFFFFFFFFFFFFFFFFFFFFFFFFFF AND EXTCODESIZE GT SWAP1 POP SWAP2 SWAP1 POP JUMP JUMPDEST PUSH1 0x0 DUP1 PUSH1 0x0 SWAP1 POP PUSH27 0x184F03E93FF9F4DAA797ED6E38ED64BF6A1F010000000000000000 DUP4 LT PUSH3 0x35B1 JUMPI PUSH27 0x184F03E93FF9F4DAA797ED6E38ED64BF6A1F010000000000000000 DUP4 DUP2 PUSH3 0x35A7 JUMPI PUSH3 0x35A6 PUSH3 0x4B1F JUMP JUMPDEST JUMPDEST DIV SWAP3 POP PUSH1 0x40 DUP2 ADD SWAP1 POP JUMPDEST PUSH14 0x4EE2D6D415B85ACEF8100000000 DUP4 LT PUSH3 0x35F2 JUMPI PUSH14 0x4EE2D6D415B85ACEF8100000000 DUP4 DUP2 PUSH3 0x35E8 JUMPI PUSH3 0x35E7 PUSH3 0x4B1F JUMP JUMPDEST JUMPDEST DIV SWAP3 POP PUSH1 0x20 DUP2 ADD SWAP1 POP JUMPDEST PUSH7 0x2386F26FC10000 DUP4 LT PUSH3 0x3625 JUMPI PUSH7 0x2386F26FC10000 DUP4 DUP2 PUSH3 0x361B JUMPI PUSH3 0x361A PUSH3 0x4B1F JUMP JUMPDEST JUMPDEST DIV SWAP3 POP PUSH1 0x10 DUP2 ADD SWAP1 POP JUMPDEST PUSH4 0x5F5E100 DUP4 LT PUSH3 0x3652 JUMPI PUSH4 0x5F5E100 DUP4 DUP2 PUSH3 0x3648 JUMPI PUSH3 0x3647 PUSH3 0x4B1F JUMP JUMPDEST JUMPDEST DIV SWAP3 POP PUSH1 0x8 DUP2 ADD SWAP1 POP JUMPDEST PUSH2 0x2710 DUP4 LT PUSH3 0x367B JUMPI PUSH2 0x2710 DUP4 DUP2 PUSH3 0x3671 JUMPI PUSH3 0x3670 PUSH3 0x4B1F JUMP JUMPDEST JUMPDEST DIV SWAP3 POP PUSH1 0x4 DUP2 ADD SWAP1 POP JUMPDEST PUSH1 0x64 DUP4 LT PUSH3 0x36A2 JUMPI PUSH1 0x64 DUP4 DUP2 PUSH3 0x3698 JUMPI PUSH3 0x3697 PUSH3 0x4B1F JUMP JUMPDEST JUMPDEST DIV SWAP3 POP PUSH1 0x2 DUP2 ADD SWAP1 POP JUMPDEST PUSH1 0xA DUP4 LT PUSH3 0x36B2 JUMPI PUSH1 0x1 DUP2 ADD SWAP1 POP JUMPDEST DUP1 SWAP2 POP POP SWAP2 SWAP1 POP JUMP JUMPDEST PUSH1 0x40 MLOAD DUP1 PUSH2 0x100 ADD PUSH1 0x40 MSTORE DUP1 PUSH1 0x0 DUP2 MSTORE PUSH1 0x20 ADD PUSH1 0x0 DUP2 MSTORE PUSH1 0x20 ADD PUSH1 0x0 PUSH20 0xFFFFFFFFFFFFFFFFFFFFFFFFFFFFFFFFFFFFFFFF AND DUP2 MSTORE PUSH1 0x20 ADD PUSH1 0x0 PUSH20 0xFFFFFFFFFFFFFFFFFFFFFFFFFFFFFFFFFFFFFFFF AND DUP2 MSTORE PUSH1 0x20 ADD PUSH1 0x0 ISZERO ISZERO DUP2 MSTORE PUSH1 0x20 ADD PUSH1 0x0 DUP2 MSTORE PUSH1 0x20 ADD PUSH1 0x60 DUP2 MSTORE PUSH1 0x20 ADD PUSH3 0x3730 PUSH3 0x3744 JUMP JUMPDEST DUP2 MSTORE POP SWAP1 JUMP JUMPDEST PUSH2 0x1BB DUP1 PUSH3 0x5640 DUP4 CODECOPY ADD SWAP1 JUMP JUMPDEST PUSH1 0x40 MLOAD DUP1 PUSH1 0x80 ADD PUSH1 0x40 MSTORE DUP1 PUSH1 0x4 SWAP1 JUMPDEST PUSH3 0x375D PUSH3 0x3774 JUMP JUMPDEST DUP2 MSTORE PUSH1 0x20 ADD SWAP1 PUSH1 0x1 SWAP1 SUB SWAP1 DUP2 PUSH3 0x3753 JUMPI SWAP1 POP POP SWAP1 JUMP JUMPDEST PUSH1 0x40 MLOAD DUP1 PUSH1 0xE0 ADD PUSH1 0x40 MSTORE DUP1 PUSH1 0x0 PUSH20 0xFFFFFFFFFFFFFFFFFFFFFFFFFFFFFFFFFFFFFFFF AND DUP2 MSTORE PUSH1 0x20 ADD PUSH1 0x0 DUP2 MSTORE PUSH1 0x20 ADD PUSH1 0x0 DUP2 MSTORE PUSH1 0x20 ADD PUSH1 0x60 DUP2 MSTORE PUSH1 0x20 ADD PUSH1 0x0 DUP2 MSTORE PUSH1 0x20 ADD PUSH1 0x0 ISZERO ISZERO DUP2 MSTORE PUSH1 0x20 ADD PUSH1 0x0 ISZERO ISZERO DUP2 MSTORE POP SWAP1 JUMP JUMPDEST PUSH1 0x0 PUSH1 0x40 MLOAD SWAP1 POP SWAP1 JUMP JUMPDEST PUSH1 0x0 DUP1 REVERT JUMPDEST PUSH1 0x0 DUP1 REVERT JUMPDEST PUSH1 0x0 PUSH32 0xFFFFFFFF00000000000000000000000000000000000000000000000000000000 DUP3 AND SWAP1 POP SWAP2 SWAP1 POP JUMP JUMPDEST PUSH3 0x3816 DUP2 PUSH3 0x37DF JUMP JUMPDEST DUP2 EQ PUSH3 0x3822 JUMPI PUSH1 0x0 DUP1 REVERT JUMPDEST POP JUMP JUMPDEST PUSH1 0x0 DUP2 CALLDATALOAD SWAP1 POP PUSH3 0x3836 DUP2 PUSH3 0x380B JUMP JUMPDEST SWAP3 SWAP2 POP POP JUMP JUMPDEST PUSH1 0x0 PUSH1 0x20 DUP3 DUP5 SUB SLT ISZERO PUSH3 0x3855 JUMPI PUSH3 0x3854 PUSH3 0x37D5 JUMP JUMPDEST JUMPDEST PUSH1 0x0 PUSH3 0x3865 DUP5 DUP3 DUP6 ADD PUSH3 0x3825 JUMP JUMPDEST SWAP2 POP POP SWAP3 SWAP2 POP POP JUMP JUMPDEST PUSH1 0x0 DUP2 ISZERO ISZERO SWAP1 POP SWAP2 SWAP1 POP JUMP JUMPDEST PUSH3 0x3885 DUP2 PUSH3 0x386E JUMP JUMPDEST DUP3 MSTORE POP POP JUMP JUMPDEST PUSH1 0x0 PUSH1 0x20 DUP3 ADD SWAP1 POP PUSH3 0x38A2 PUSH1 0x0 DUP4 ADD DUP5 PUSH3 0x387A JUMP JUMPDEST SWAP3 SWAP2 POP POP JUMP JUMPDEST PUSH1 0x0 DUP2 MLOAD SWAP1 POP SWAP2 SWAP1 POP JUMP JUMPDEST PUSH1 0x0 DUP3 DUP3 MSTORE PUSH1 0x20 DUP3 ADD SWAP1 POP SWAP3 SWAP2 POP POP JUMP JUMPDEST PUSH1 0x0 JUMPDEST DUP4 DUP2 LT ISZERO PUSH3 0x38E4 JUMPI DUP1 DUP3 ADD MLOAD DUP2 DUP5 ADD MSTORE PUSH1 0x20 DUP2 ADD SWAP1 POP PUSH3 0x38C7 JUMP JUMPDEST PUSH1 0x0 DUP5 DUP5 ADD MSTORE POP POP POP POP JUMP JUMPDEST PUSH1 0x0 PUSH1 0x1F NOT PUSH1 0x1F DUP4 ADD AND SWAP1 POP SWAP2 SWAP1 POP JUMP JUMPDEST PUSH1 0x0 PUSH3 0x390E DUP3 PUSH3 0x38A8 JUMP JUMPDEST PUSH3 0x391A DUP2 DUP6 PUSH3 0x38B3 JUMP JUMPDEST SWAP4 POP PUSH3 0x392C DUP2 DUP6 PUSH1 0x20 DUP7 ADD PUSH3 0x38C4 JUMP JUMPDEST PUSH3 0x3937 DUP2 PUSH3 0x38F0 JUMP JUMPDEST DUP5 ADD SWAP2 POP POP SWAP3 SWAP2 POP POP JUMP JUMPDEST PUSH1 0x0 PUSH1 0x20 DUP3 ADD SWAP1 POP DUP2 DUP2 SUB PUSH1 0x0 DUP4 ADD MSTORE PUSH3 0x395E DUP2 DUP5 PUSH3 0x3901 JUMP JUMPDEST SWAP1 POP SWAP3 SWAP2 POP POP JUMP JUMPDEST PUSH1 0x0 DUP2 SWAP1 POP SWAP2 SWAP1 POP JUMP JUMPDEST PUSH3 0x397B DUP2 PUSH3 0x3966 JUMP JUMPDEST DUP2 EQ PUSH3 0x3987 JUMPI PUSH1 0x0 DUP1 REVERT JUMPDEST POP JUMP JUMPDEST PUSH1 0x0 DUP2 CALLDATALOAD SWAP1 POP PUSH3 0x399B DUP2 PUSH3 0x3970 JUMP JUMPDEST SWAP3 SWAP2 POP POP JUMP JUMPDEST PUSH1 0x0 PUSH1 0x20 DUP3 DUP5 SUB SLT ISZERO PUSH3 0x39BA JUMPI PUSH3 0x39B9 PUSH3 0x37D5 JUMP JUMPDEST JUMPDEST PUSH1 0x0 PUSH3 0x39CA DUP5 DUP3 DUP6 ADD PUSH3 0x398A JUMP JUMPDEST SWAP2 POP POP SWAP3 SWAP2 POP POP JUMP JUMPDEST PUSH1 0x0 PUSH20 0xFFFFFFFFFFFFFFFFFFFFFFFFFFFFFFFFFFFFFFFF DUP3 AND SWAP1 POP SWAP2 SWAP1 POP JUMP JUMPDEST PUSH1 0x0 PUSH3 0x3A00 DUP3 PUSH3 0x39D3 JUMP JUMPDEST SWAP1 POP SWAP2 SWAP1 POP JUMP JUMPDEST PUSH3 0x3A12 DUP2 PUSH3 0x39F3 JUMP JUMPDEST DUP3 MSTORE POP POP JUMP JUMPDEST PUSH1 0x0 PUSH1 0x20 DUP3 ADD SWAP1 POP PUSH3 0x3A2F PUSH1 0x0 DUP4 ADD DUP5 PUSH3 0x3A07 JUMP JUMPDEST SWAP3 SWAP2 POP POP JUMP JUMPDEST PUSH3 0x3A40 DUP2 PUSH3 0x39F3 JUMP JUMPDEST DUP2 EQ PUSH3 0x3A4C JUMPI PUSH1 0x0 DUP1 REVERT JUMPDEST POP JUMP JUMPDEST PUSH1 0x0 DUP2 CALLDATALOAD SWAP1 POP PUSH3 0x3A60 DUP2 PUSH3 0x3A35 JUMP JUMPDEST SWAP3 SWAP2 POP POP JUMP JUMPDEST PUSH1 0x0 DUP1 PUSH1 0x40 DUP4 DUP6 SUB SLT ISZERO PUSH3 0x3A80 JUMPI PUSH3 0x3A7F PUSH3 0x37D5 JUMP JUMPDEST JUMPDEST PUSH1 0x0 PUSH3 0x3A90 DUP6 DUP3 DUP7 ADD PUSH3 0x3A4F JUMP JUMPDEST SWAP3 POP POP PUSH1 0x20 PUSH3 0x3AA3 DUP6 DUP3 DUP7 ADD PUSH3 0x398A JUMP JUMPDEST SWAP2 POP POP SWAP3 POP SWAP3 SWAP1 POP JUMP JUMPDEST PUSH1 0x0 DUP2 MLOAD SWAP1 POP SWAP2 SWAP1 POP JUMP JUMPDEST PUSH1 0x0 DUP3 DUP3 MSTORE PUSH1 0x20 DUP3 ADD SWAP1 POP SWAP3 SWAP2 POP POP JUMP JUMPDEST PUSH1 0x0 DUP2 SWAP1 POP PUSH1 0x20 DUP3 ADD SWAP1 POP SWAP2 SWAP1 POP JUMP JUMPDEST PUSH3 0x3AE4 DUP2 PUSH3 0x3966 JUMP JUMPDEST DUP3 MSTORE POP POP JUMP JUMPDEST PUSH1 0x0 PUSH3 0x3AF7 DUP3 PUSH3 0x39D3 JUMP JUMPDEST SWAP1 POP SWAP2 SWAP1 POP JUMP JUMPDEST PUSH3 0x3B09 DUP2 PUSH3 0x3AEA JUMP JUMPDEST DUP3 MSTORE POP POP JUMP JUMPDEST PUSH3 0x3B1A DUP2 PUSH3 0x39F3 JUMP JUMPDEST DUP3 MSTORE POP POP JUMP JUMPDEST PUSH3 0x3B2B DUP2 PUSH3 0x386E JUMP JUMPDEST DUP3 MSTORE POP POP JUMP JUMPDEST PUSH1 0x0 DUP3 DUP3 MSTORE PUSH1 0x20 DUP3 ADD SWAP1 POP SWAP3 SWAP2 POP POP JUMP JUMPDEST PUSH1 0x0 PUSH3 0x3B4F DUP3 PUSH3 0x38A8 JUMP JUMPDEST PUSH3 0x3B5B DUP2 DUP6 PUSH3 0x3B31 JUMP JUMPDEST SWAP4 POP PUSH3 0x3B6D DUP2 DUP6 PUSH1 0x20 DUP7 ADD PUSH3 0x38C4 JUMP JUMPDEST PUSH3 0x3B78 DUP2 PUSH3 0x38F0 JUMP JUMPDEST DUP5 ADD SWAP2 POP POP SWAP3 SWAP2 POP POP JUMP JUMPDEST PUSH1 0x0 PUSH1 0x4 SWAP1 POP SWAP2 SWAP1 POP JUMP JUMPDEST PUSH1 0x0 DUP2 SWAP1 POP SWAP3 SWAP2 POP POP JUMP JUMPDEST PUSH1 0x0 DUP2 SWAP1 POP SWAP2 SWAP1 POP JUMP JUMPDEST PUSH1 0x0 PUSH1 0xE0 DUP4 ADD PUSH1 0x0 DUP4 ADD MLOAD PUSH3 0x3BBD PUSH1 0x0 DUP7 ADD DUP3 PUSH3 0x3B0F JUMP JUMPDEST POP PUSH1 0x20 DUP4 ADD MLOAD PUSH3 0x3BD2 PUSH1 0x20 DUP7 ADD DUP3 PUSH3 0x3AD9 JUMP JUMPDEST POP PUSH1 0x40 DUP4 ADD MLOAD PUSH3 0x3BE7 PUSH1 0x40 DUP7 ADD DUP3 PUSH3 0x3AD9 JUMP JUMPDEST POP PUSH1 0x60 DUP4 ADD MLOAD DUP5 DUP3 SUB PUSH1 0x60 DUP7 ADD MSTORE PUSH3 0x3C01 DUP3 DUP3 PUSH3 0x3B42 JUMP JUMPDEST SWAP2 POP POP PUSH1 0x80 DUP4 ADD MLOAD PUSH3 0x3C18 PUSH1 0x80 DUP7 ADD DUP3 PUSH3 0x3AD9 JUMP JUMPDEST POP PUSH1 0xA0 DUP4 ADD MLOAD PUSH3 0x3C2D PUSH1 0xA0 DUP7 ADD DUP3 PUSH3 0x3B20 JUMP JUMPDEST POP PUSH1 0xC0 DUP4 ADD MLOAD PUSH3 0x3C42 PUSH1 0xC0 DUP7 ADD DUP3 PUSH3 0x3B20 JUMP JUMPDEST POP DUP1 SWAP2 POP POP SWAP3 SWAP2 POP POP JUMP JUMPDEST PUSH1 0x0 PUSH3 0x3C5B DUP4 DUP4 PUSH3 0x3BA3 JUMP JUMPDEST SWAP1 POP SWAP3 SWAP2 POP POP JUMP JUMPDEST PUSH1 0x0 PUSH1 0x20 DUP3 ADD SWAP1 POP SWAP2 SWAP1 POP JUMP JUMPDEST PUSH1 0x0 PUSH3 0x3C7D DUP3 PUSH3 0x3B83 JUMP JUMPDEST PUSH3 0x3C89 DUP2 DUP6 PUSH3 0x3B8E JUMP JUMPDEST SWAP4 POP DUP4 PUSH1 0x20 DUP3 MUL DUP6 ADD PUSH3 0x3C9D DUP6 PUSH3 0x3B99 JUMP JUMPDEST DUP1 PUSH1 0x0 JUMPDEST DUP6 DUP2 LT ISZERO PUSH3 0x3CDF JUMPI DUP5 DUP5 SUB DUP10 MSTORE DUP2 MLOAD PUSH3 0x3CBD DUP6 DUP3 PUSH3 0x3C4D JUMP JUMPDEST SWAP5 POP PUSH3 0x3CCA DUP4 PUSH3 0x3C63 JUMP JUMPDEST SWAP3 POP PUSH1 0x20 DUP11 ADD SWAP10 POP POP PUSH1 0x1 DUP2 ADD SWAP1 POP PUSH3 0x3CA1 JUMP JUMPDEST POP DUP3 SWAP8 POP DUP8 SWAP6 POP POP POP POP POP POP SWAP3 SWAP2 POP POP JUMP JUMPDEST PUSH1 0x0 PUSH2 0x100 DUP4 ADD PUSH1 0x0 DUP4 ADD MLOAD PUSH3 0x3D0C PUSH1 0x0 DUP7 ADD DUP3 PUSH3 0x3AD9 JUMP JUMPDEST POP PUSH1 0x20 DUP4 ADD MLOAD PUSH3 0x3D21 PUSH1 0x20 DUP7 ADD DUP3 PUSH3 0x3AD9 JUMP JUMPDEST POP PUSH1 0x40 DUP4 ADD MLOAD PUSH3 0x3D36 PUSH1 0x40 DUP7 ADD DUP3 PUSH3 0x3AFE JUMP JUMPDEST POP PUSH1 0x60 DUP4 ADD MLOAD PUSH3 0x3D4B PUSH1 0x60 DUP7 ADD DUP3 PUSH3 0x3B0F JUMP JUMPDEST POP PUSH1 0x80 DUP4 ADD MLOAD PUSH3 0x3D60 PUSH1 0x80 DUP7 ADD DUP3 PUSH3 0x3B20 JUMP JUMPDEST POP PUSH1 0xA0 DUP4 ADD MLOAD PUSH3 0x3D75 PUSH1 0xA0 DUP7 ADD DUP3 PUSH3 0x3AD9 JUMP JUMPDEST POP PUSH1 0xC0 DUP4 ADD MLOAD DUP5 DUP3 SUB PUSH1 0xC0 DUP7 ADD MSTORE PUSH3 0x3D8F DUP3 DUP3 PUSH3 0x3B42 JUMP JUMPDEST SWAP2 POP POP PUSH1 0xE0 DUP4 ADD MLOAD DUP5 DUP3 SUB PUSH1 0xE0 DUP7 ADD MSTORE PUSH3 0x3DAB DUP3 DUP3 PUSH3 0x3C70 JUMP JUMPDEST SWAP2 POP POP DUP1 SWAP2 POP POP SWAP3 SWAP2 POP POP JUMP JUMPDEST PUSH1 0x0 PUSH3 0x3DC6 DUP4 DUP4 PUSH3 0x3CF1 JUMP JUMPDEST SWAP1 POP SWAP3 SWAP2 POP POP JUMP JUMPDEST PUSH1 0x0 PUSH1 0x20 DUP3 ADD SWAP1 POP SWAP2 SWAP1 POP JUMP JUMPDEST PUSH1 0x0 PUSH3 0x3DE8 DUP3 PUSH3 0x3AAD JUMP JUMPDEST PUSH3 0x3DF4 DUP2 DUP6 PUSH3 0x3AB8 JUMP JUMPDEST SWAP4 POP DUP4 PUSH1 0x20 DUP3 MUL DUP6 ADD PUSH3 0x3E08 DUP6 PUSH3 0x3AC9 JUMP JUMPDEST DUP1 PUSH1 0x0 JUMPDEST DUP6 DUP2 LT ISZERO PUSH3 0x3E4A JUMPI DUP5 DUP5 SUB DUP10 MSTORE DUP2 MLOAD PUSH3 0x3E28 DUP6 DUP3 PUSH3 0x3DB8 JUMP JUMPDEST SWAP5 POP PUSH3 0x3E35 DUP4 PUSH3 0x3DCE JUMP JUMPDEST SWAP3 POP PUSH1 0x20 DUP11 ADD SWAP10 POP POP PUSH1 0x1 DUP2 ADD SWAP1 POP PUSH3 0x3E0C JUMP JUMPDEST POP DUP3 SWAP8 POP DUP8 SWAP6 POP POP POP POP POP POP SWAP3 SWAP2 POP POP JUMP JUMPDEST PUSH1 0x0 PUSH1 0x20 DUP3 ADD SWAP1 POP DUP2 DUP2 SUB PUSH1 0x0 DUP4 ADD MSTORE PUSH3 0x3E78 DUP2 DUP5 PUSH3 0x3DDB JUMP JUMPDEST SWAP1 POP SWAP3 SWAP2 POP POP JUMP JUMPDEST PUSH1 0x0 DUP1 PUSH1 0x0 PUSH1 0x60 DUP5 DUP7 SUB SLT ISZERO PUSH3 0x3E9C JUMPI PUSH3 0x3E9B PUSH3 0x37D5 JUMP JUMPDEST JUMPDEST PUSH1 0x0 PUSH3 0x3EAC DUP7 DUP3 DUP8 ADD PUSH3 0x3A4F JUMP JUMPDEST SWAP4 POP POP PUSH1 0x20 PUSH3 0x3EBF DUP7 DUP3 DUP8 ADD PUSH3 0x3A4F JUMP JUMPDEST SWAP3 POP POP PUSH1 0x40 PUSH3 0x3ED2 DUP7 DUP3 DUP8 ADD PUSH3 0x398A JUMP JUMPDEST SWAP2 POP POP SWAP3 POP SWAP3 POP SWAP3 JUMP JUMPDEST PUSH3 0x3EE7 DUP2 PUSH3 0x386E JUMP JUMPDEST DUP2 EQ PUSH3 0x3EF3 JUMPI PUSH1 0x0 DUP1 REVERT JUMPDEST POP JUMP JUMPDEST PUSH1 0x0 DUP2 CALLDATALOAD SWAP1 POP PUSH3 0x3F07 DUP2 PUSH3 0x3EDC JUMP JUMPDEST SWAP3 SWAP2 POP POP JUMP JUMPDEST PUSH1 0x0 DUP1 PUSH1 0x0 DUP1 PUSH1 0x80 DUP6 DUP8 SUB SLT ISZERO PUSH3 0x3F2A JUMPI PUSH3 0x3F29 PUSH3 0x37D5 JUMP JUMPDEST JUMPDEST PUSH1 0x0 PUSH3 0x3F3A DUP8 DUP3 DUP9 ADD PUSH3 0x398A JUMP JUMPDEST SWAP5 POP POP PUSH1 0x20 PUSH3 0x3F4D DUP8 DUP3 DUP9 ADD PUSH3 0x398A JUMP JUMPDEST SWAP4 POP POP PUSH1 0x40 PUSH3 0x3F60 DUP8 DUP3 DUP9 ADD PUSH3 0x398A JUMP JUMPDEST SWAP3 POP POP PUSH1 0x60 PUSH3 0x3F73 DUP8 DUP3 DUP9 ADD PUSH3 0x3EF6 JUMP JUMPDEST SWAP2 POP POP SWAP3 SWAP6 SWAP2 SWAP5 POP SWAP3 POP JUMP JUMPDEST PUSH1 0x0 DUP1 REVERT JUMPDEST PUSH1 0x0 DUP1 REVERT JUMPDEST PUSH32 0x4E487B7100000000000000000000000000000000000000000000000000000000 PUSH1 0x0 MSTORE PUSH1 0x41 PUSH1 0x4 MSTORE PUSH1 0x24 PUSH1 0x0 REVERT JUMPDEST PUSH3 0x3FC3 DUP3 PUSH3 0x38F0 JUMP JUMPDEST DUP2 ADD DUP2 DUP2 LT PUSH8 0xFFFFFFFFFFFFFFFF DUP3 GT OR ISZERO PUSH3 0x3FE5 JUMPI PUSH3 0x3FE4 PUSH3 0x3F89 JUMP JUMPDEST JUMPDEST DUP1 PUSH1 0x40 MSTORE POP POP POP JUMP JUMPDEST PUSH1 0x0 PUSH3 0x3FFA PUSH3 0x37CB JUMP JUMPDEST SWAP1 POP PUSH3 0x4008 DUP3 DUP3 PUSH3 0x3FB8 JUMP JUMPDEST SWAP2 SWAP1 POP JUMP JUMPDEST PUSH1 0x0 PUSH8 0xFFFFFFFFFFFFFFFF DUP3 GT ISZERO PUSH3 0x402B JUMPI PUSH3 0x402A PUSH3 0x3F89 JUMP JUMPDEST JUMPDEST PUSH3 0x4036 DUP3 PUSH3 0x38F0 JUMP JUMPDEST SWAP1 POP PUSH1 0x20 DUP2 ADD SWAP1 POP SWAP2 SWAP1 POP JUMP JUMPDEST DUP3 DUP2 DUP4 CALLDATACOPY PUSH1 0x0 DUP4 DUP4 ADD MSTORE POP POP POP JUMP JUMPDEST PUSH1 0x0 PUSH3 0x4069 PUSH3 0x4063 DUP5 PUSH3 0x400D JUMP JUMPDEST PUSH3 0x3FEE JUMP JUMPDEST SWAP1 POP DUP3 DUP2 MSTORE PUSH1 0x20 DUP2 ADD DUP5 DUP5 DUP5 ADD GT ISZERO PUSH3 0x4088 JUMPI PUSH3 0x4087 PUSH3 0x3F84 JUMP JUMPDEST JUMPDEST PUSH3 0x4095 DUP5 DUP3 DUP6 PUSH3 0x4043 JUMP JUMPDEST POP SWAP4 SWAP3 POP POP POP JUMP JUMPDEST PUSH1 0x0 DUP3 PUSH1 0x1F DUP4 ADD SLT PUSH3 0x40B5 JUMPI PUSH3 0x40B4 PUSH3 0x3F7F JUMP JUMPDEST JUMPDEST DUP2 CALLDATALOAD PUSH3 0x40C7 DUP5 DUP3 PUSH1 0x20 DUP7 ADD PUSH3 0x4052 JUMP JUMPDEST SWAP2 POP POP SWAP3 SWAP2 POP POP JUMP JUMPDEST PUSH1 0x0 PUSH8 0xFFFFFFFFFFFFFFFF DUP3 GT ISZERO PUSH3 0x40EE JUMPI PUSH3 0x40ED PUSH3 0x3F89 JUMP JUMPDEST JUMPDEST PUSH1 0x20 DUP3 MUL SWAP1 POP SWAP2 SWAP1 POP JUMP JUMPDEST PUSH1 0x0 DUP1 REVERT JUMPDEST PUSH1 0x0 PUSH3 0x4115 PUSH3 0x410F DUP5 PUSH3 0x40D0 JUMP JUMPDEST PUSH3 0x3FEE JUMP JUMPDEST SWAP1 POP DUP1 PUSH1 0x20 DUP5 MUL DUP4 ADD DUP6 DUP2 GT ISZERO PUSH3 0x4132 JUMPI PUSH3 0x4131 PUSH3 0x40F9 JUMP JUMPDEST JUMPDEST DUP4 JUMPDEST DUP2 DUP2 LT ISZERO PUSH3 0x415F JUMPI DUP1 PUSH3 0x414A DUP9 DUP3 PUSH3 0x3A4F JUMP JUMPDEST DUP5 MSTORE PUSH1 0x20 DUP5 ADD SWAP4 POP POP PUSH1 0x20 DUP2 ADD SWAP1 POP PUSH3 0x4134 JUMP JUMPDEST POP POP POP SWAP4 SWAP3 POP POP POP JUMP JUMPDEST PUSH1 0x0 DUP3 PUSH1 0x1F DUP4 ADD SLT PUSH3 0x4181 JUMPI PUSH3 0x4180 PUSH3 0x3F7F JUMP JUMPDEST JUMPDEST PUSH1 0x4 PUSH3 0x4190 DUP5 DUP3 DUP6 PUSH3 0x40FE JUMP JUMPDEST SWAP2 POP POP SWAP3 SWAP2 POP POP JUMP JUMPDEST PUSH1 0x0 DUP1 PUSH1 0x0 PUSH1 0xC0 DUP5 DUP7 SUB SLT ISZERO PUSH3 0x41B5 JUMPI PUSH3 0x41B4 PUSH3 0x37D5 JUMP JUMPDEST JUMPDEST PUSH1 0x0 DUP5 ADD CALLDATALOAD PUSH8 0xFFFFFFFFFFFFFFFF DUP2 GT ISZERO PUSH3 0x41D6 JUMPI PUSH3 0x41D5 PUSH3 0x37DA JUMP JUMPDEST JUMPDEST PUSH3 0x41E4 DUP7 DUP3 DUP8 ADD PUSH3 0x409D JUMP JUMPDEST SWAP4 POP POP PUSH1 0x20 PUSH3 0x41F7 DUP7 DUP3 DUP8 ADD PUSH3 0x398A JUMP JUMPDEST SWAP3 POP POP PUSH1 0x40 PUSH3 0x420A DUP7 DUP3 DUP8 ADD PUSH3 0x4169 JUMP JUMPDEST SWAP2 POP POP SWAP3 POP SWAP3 POP SWAP3 JUMP JUMPDEST PUSH3 0x421F DUP2 PUSH3 0x3966 JUMP JUMPDEST DUP3 MSTORE POP POP JUMP JUMPDEST PUSH1 0x0 PUSH1 0x20 DUP3 ADD SWAP1 POP PUSH3 0x423C PUSH1 0x0 DUP4 ADD DUP5 PUSH3 0x4214 JUMP JUMPDEST SWAP3 SWAP2 POP POP JUMP JUMPDEST PUSH1 0x0 PUSH1 0x20 DUP3 DUP5 SUB SLT ISZERO PUSH3 0x425B JUMPI PUSH3 0x425A PUSH3 0x37D5 JUMP JUMPDEST JUMPDEST PUSH1 0x0 PUSH3 0x426B DUP5 DUP3 DUP6 ADD PUSH3 0x3A4F JUMP JUMPDEST SWAP2 POP POP SWAP3 SWAP2 POP POP JUMP JUMPDEST PUSH1 0x0 DUP1 PUSH1 0x0 PUSH1 0x60 DUP5 DUP7 SUB SLT ISZERO PUSH3 0x4290 JUMPI PUSH3 0x428F PUSH3 0x37D5 JUMP JUMPDEST JUMPDEST PUSH1 0x0 DUP5 ADD CALLDATALOAD PUSH8 0xFFFFFFFFFFFFFFFF DUP2 GT ISZERO PUSH3 0x42B1 JUMPI PUSH3 0x42B0 PUSH3 0x37DA JUMP JUMPDEST JUMPDEST PUSH3 0x42BF DUP7 DUP3 DUP8 ADD PUSH3 0x409D JUMP JUMPDEST SWAP4 POP POP PUSH1 0x20 PUSH3 0x42D2 DUP7 DUP3 DUP8 ADD PUSH3 0x398A JUMP JUMPDEST SWAP3 POP POP PUSH1 0x40 PUSH3 0x42E5 DUP7 DUP3 DUP8 ADD PUSH3 0x398A JUMP JUMPDEST SWAP2 POP POP SWAP3 POP SWAP3 POP SWAP3 JUMP JUMPDEST PUSH1 0x0 DUP1 PUSH1 0x40 DUP4 DUP6 SUB SLT ISZERO PUSH3 0x4309 JUMPI PUSH3 0x4308 PUSH3 0x37D5 JUMP JUMPDEST JUMPDEST PUSH1 0x0 PUSH3 0x4319 DUP6 DUP3 DUP7 ADD PUSH3 0x3A4F JUMP JUMPDEST SWAP3 POP POP PUSH1 0x20 PUSH3 0x432C DUP6 DUP3 DUP7 ADD PUSH3 0x3EF6 JUMP JUMPDEST SWAP2 POP POP SWAP3 POP SWAP3 SWAP1 POP JUMP JUMPDEST PUSH1 0x0 PUSH8 0xFFFFFFFFFFFFFFFF DUP3 GT ISZERO PUSH3 0x4354 JUMPI PUSH3 0x4353 PUSH3 0x3F89 JUMP JUMPDEST JUMPDEST PUSH3 0x435F DUP3 PUSH3 0x38F0 JUMP JUMPDEST SWAP1 POP PUSH1 0x20 DUP2 ADD SWAP1 POP SWAP2 SWAP1 POP JUMP JUMPDEST PUSH1 0x0 PUSH3 0x4383 PUSH3 0x437D DUP5 PUSH3 0x4336 JUMP JUMPDEST PUSH3 0x3FEE JUMP JUMPDEST SWAP1 POP DUP3 DUP2 MSTORE PUSH1 0x20 DUP2 ADD DUP5 DUP5 DUP5 ADD GT ISZERO PUSH3 0x43A2 JUMPI PUSH3 0x43A1 PUSH3 0x3F84 JUMP JUMPDEST JUMPDEST PUSH3 0x43AF DUP5 DUP3 DUP6 PUSH3 0x4043 JUMP JUMPDEST POP SWAP4 SWAP3 POP POP POP JUMP JUMPDEST PUSH1 0x0 DUP3 PUSH1 0x1F DUP4 ADD SLT PUSH3 0x43CF JUMPI PUSH3 0x43CE PUSH3 0x3F7F JUMP JUMPDEST JUMPDEST DUP2 CALLDATALOAD PUSH3 0x43E1 DUP5 DUP3 PUSH1 0x20 DUP7 ADD PUSH3 0x436C JUMP JUMPDEST SWAP2 POP POP SWAP3 SWAP2 POP POP JUMP JUMPDEST PUSH1 0x0 DUP1 PUSH1 0x0 DUP1 PUSH1 0x80 DUP6 DUP8 SUB SLT ISZERO PUSH3 0x4407 JUMPI PUSH3 0x4406 PUSH3 0x37D5 JUMP JUMPDEST JUMPDEST PUSH1 0x0 PUSH3 0x4417 DUP8 DUP3 DUP9 ADD PUSH3 0x3A4F JUMP JUMPDEST SWAP5 POP POP PUSH1 0x20 PUSH3 0x442A DUP8 DUP3 DUP9 ADD PUSH3 0x3A4F JUMP JUMPDEST SWAP4 POP POP PUSH1 0x40 PUSH3 0x443D DUP8 DUP3 DUP9 ADD PUSH3 0x398A JUMP JUMPDEST SWAP3 POP POP PUSH1 0x60 DUP6 ADD CALLDATALOAD PUSH8 0xFFFFFFFFFFFFFFFF DUP2 GT ISZERO PUSH3 0x4461 JUMPI PUSH3 0x4460 PUSH3 0x37DA JUMP JUMPDEST JUMPDEST PUSH3 0x446F DUP8 DUP3 DUP9 ADD PUSH3 0x43B7 JUMP JUMPDEST SWAP2 POP POP SWAP3 SWAP6 SWAP2 SWAP5 POP SWAP3 POP JUMP JUMPDEST PUSH1 0x0 DUP1 PUSH1 0x40 DUP4 DUP6 SUB SLT ISZERO PUSH3 0x4495 JUMPI PUSH3 0x4494 PUSH3 0x37D5 JUMP JUMPDEST JUMPDEST PUSH1 0x0 DUP4 ADD CALLDATALOAD PUSH8 0xFFFFFFFFFFFFFFFF DUP2 GT ISZERO PUSH3 0x44B6 JUMPI PUSH3 0x44B5 PUSH3 0x37DA JUMP JUMPDEST JUMPDEST PUSH3 0x44C4 DUP6 DUP3 DUP7 ADD PUSH3 0x409D JUMP JUMPDEST SWAP3 POP POP PUSH1 0x20 PUSH3 0x44D7 DUP6 DUP3 DUP7 ADD PUSH3 0x398A JUMP JUMPDEST SWAP2 POP POP SWAP3 POP SWAP3 SWAP1 POP JUMP JUMPDEST PUSH1 0x0 DUP2 SWAP1 POP SWAP3 SWAP2 POP POP JUMP JUMPDEST PUSH1 0x0 PUSH3 0x44F9 DUP3 PUSH3 0x3B83 JUMP JUMPDEST PUSH3 0x4505 DUP2 DUP6 PUSH3 0x44E1 JUMP JUMPDEST SWAP4 POP DUP4 PUSH1 0x20 DUP3 MUL DUP6 ADD PUSH3 0x4519 DUP6 PUSH3 0x3B99 JUMP JUMPDEST DUP1 PUSH1 0x0 JUMPDEST DUP6 DUP2 LT ISZERO PUSH3 0x455B JUMPI DUP5 DUP5 SUB DUP10 MSTORE DUP2 MLOAD PUSH3 0x4539 DUP6 DUP3 PUSH3 0x3C4D JUMP JUMPDEST SWAP5 POP PUSH3 0x4546 DUP4 PUSH3 0x3C63 JUMP JUMPDEST SWAP3 POP PUSH1 0x20 DUP11 ADD SWAP10 POP POP PUSH1 0x1 DUP2 ADD SWAP1 POP PUSH3 0x451D JUMP JUMPDEST POP DUP3 SWAP8 POP DUP8 SWAP6 POP POP POP POP POP POP SWAP3 SWAP2 POP POP JUMP JUMPDEST PUSH1 0x0 PUSH1 0xA0 DUP3 ADD SWAP1 POP PUSH3 0x4584 PUSH1 0x0 DUP4 ADD DUP9 PUSH3 0x4214 JUMP JUMPDEST PUSH3 0x4593 PUSH1 0x20 DUP4 ADD DUP8 PUSH3 0x4214 JUMP JUMPDEST PUSH3 0x45A2 PUSH1 0x40 DUP4 ADD DUP7 PUSH3 0x3A07 JUMP JUMPDEST PUSH3 0x45B1 PUSH1 0x60 DUP4 ADD DUP6 PUSH3 0x387A JUMP JUMPDEST DUP2 DUP2 SUB PUSH1 0x80 DUP4 ADD MSTORE PUSH3 0x45C5 DUP2 DUP5 PUSH3 0x44EC JUMP JUMPDEST SWAP1 POP SWAP7 SWAP6 POP POP POP POP POP POP JUMP JUMPDEST PUSH1 0x0 PUSH2 0x100 DUP4 ADD PUSH1 0x0 DUP4 ADD MLOAD PUSH3 0x45EC PUSH1 0x0 DUP7 ADD DUP3 PUSH3 0x3AD9 JUMP JUMPDEST POP PUSH1 0x20 DUP4 ADD MLOAD PUSH3 0x4601 PUSH1 0x20 DUP7 ADD DUP3 PUSH3 0x3AD9 JUMP JUMPDEST POP PUSH1 0x40 DUP4 ADD MLOAD PUSH3 0x4616 PUSH1 0x40 DUP7 ADD DUP3 PUSH3 0x3AFE JUMP JUMPDEST POP PUSH1 0x60 DUP4 ADD MLOAD PUSH3 0x462B PUSH1 0x60 DUP7 ADD DUP3 PUSH3 0x3B0F JUMP JUMPDEST POP PUSH1 0x80 DUP4 ADD MLOAD PUSH3 0x4640 PUSH1 0x80 DUP7 ADD DUP3 PUSH3 0x3B20 JUMP JUMPDEST POP PUSH1 0xA0 DUP4 ADD MLOAD PUSH3 0x4655 PUSH1 0xA0 DUP7 ADD DUP3 PUSH3 0x3AD9 JUMP JUMPDEST POP PUSH1 0xC0 DUP4 ADD MLOAD DUP5 DUP3 SUB PUSH1 0xC0 DUP7 ADD MSTORE PUSH3 0x466F DUP3 DUP3 PUSH3 0x3B42 JUMP JUMPDEST SWAP2 POP POP PUSH1 0xE0 DUP4 ADD MLOAD DUP5 DUP3 SUB PUSH1 0xE0 DUP7 ADD MSTORE PUSH3 0x468B DUP3 DUP3 PUSH3 0x3C70 JUMP JUMPDEST SWAP2 POP POP DUP1 SWAP2 POP POP SWAP3 SWAP2 POP POP JUMP JUMPDEST PUSH1 0x0 PUSH1 0x20 DUP3 ADD SWAP1 POP DUP2 DUP2 SUB PUSH1 0x0 DUP4 ADD MSTORE PUSH3 0x46B4 DUP2 DUP5 PUSH3 0x45D1 JUMP JUMPDEST SWAP1 POP SWAP3 SWAP2 POP POP JUMP JUMPDEST PUSH1 0x0 DUP1 PUSH1 0x40 DUP4 DUP6 SUB SLT ISZERO PUSH3 0x46D6 JUMPI PUSH3 0x46D5 PUSH3 0x37D5 JUMP JUMPDEST JUMPDEST PUSH1 0x0 PUSH3 0x46E6 DUP6 DUP3 DUP7 ADD PUSH3 0x3A4F JUMP JUMPDEST SWAP3 POP POP PUSH1 0x20 PUSH3 0x46F9 DUP6 DUP3 DUP7 ADD PUSH3 0x3A4F JUMP JUMPDEST SWAP2 POP POP SWAP3 POP SWAP3 SWAP1 POP JUMP JUMPDEST PUSH32 0x4E487B7100000000000000000000000000000000000000000000000000000000 PUSH1 0x0 MSTORE PUSH1 0x22 PUSH1 0x4 MSTORE PUSH1 0x24 PUSH1 0x0 REVERT JUMPDEST PUSH1 0x0 PUSH1 0x2 DUP3 DIV SWAP1 POP PUSH1 0x1 DUP3 AND DUP1 PUSH3 0x474B JUMPI PUSH1 0x7F DUP3 AND SWAP2 POP JUMPDEST PUSH1 0x20 DUP3 LT DUP2 SUB PUSH3 0x4761 JUMPI PUSH3 0x4760 PUSH3 0x4703 JUMP JUMPDEST JUMPDEST POP SWAP2 SWAP1 POP JUMP JUMPDEST PUSH32 0x4552433732313A20617070726F76616C20746F2063757272656E74206F776E65 PUSH1 0x0 DUP3 ADD MSTORE PUSH32 0x7200000000000000000000000000000000000000000000000000000000000000 PUSH1 0x20 DUP3 ADD MSTORE POP JUMP JUMPDEST PUSH1 0x0 PUSH3 0x47C5 PUSH1 0x21 DUP4 PUSH3 0x38B3 JUMP JUMPDEST SWAP2 POP PUSH3 0x47D2 DUP3 PUSH3 0x4767 JUMP JUMPDEST PUSH1 0x40 DUP3 ADD SWAP1 POP SWAP2 SWAP1 POP JUMP JUMPDEST PUSH1 0x0 PUSH1 0x20 DUP3 ADD SWAP1 POP DUP2 DUP2 SUB PUSH1 0x0 DUP4 ADD MSTORE PUSH3 0x47F8 DUP2 PUSH3 0x47B6 JUMP JUMPDEST SWAP1 POP SWAP2 SWAP1 POP JUMP JUMPDEST PUSH32 0x4552433732313A20617070726F76652063616C6C6572206973206E6F7420746F PUSH1 0x0 DUP3 ADD MSTORE PUSH32 0x6B656E206F776E6572206F7220617070726F76656420666F7220616C6C000000 PUSH1 0x20 DUP3 ADD MSTORE POP JUMP JUMPDEST PUSH1 0x0 PUSH3 0x485D PUSH1 0x3D DUP4 PUSH3 0x38B3 JUMP JUMPDEST SWAP2 POP PUSH3 0x486A DUP3 PUSH3 0x47FF JUMP JUMPDEST PUSH1 0x40 DUP3 ADD SWAP1 POP SWAP2 SWAP1 POP JUMP JUMPDEST PUSH1 0x0 PUSH1 0x20 DUP3 ADD SWAP1 POP DUP2 DUP2 SUB PUSH1 0x0 DUP4 ADD MSTORE PUSH3 0x4890 DUP2 PUSH3 0x484E JUMP JUMPDEST SWAP1 POP SWAP2 SWAP1 POP JUMP JUMPDEST PUSH32 0x4E487B7100000000000000000000000000000000000000000000000000000000 PUSH1 0x0 MSTORE PUSH1 0x11 PUSH1 0x4 MSTORE PUSH1 0x24 PUSH1 0x0 REVERT JUMPDEST PUSH1 0x0 PUSH3 0x48D3 DUP3 PUSH3 0x3966 JUMP JUMPDEST SWAP2 POP PUSH3 0x48E0 DUP4 PUSH3 0x3966 JUMP JUMPDEST SWAP3 POP DUP3 DUP3 ADD SWAP1 POP DUP1 DUP3 GT ISZERO PUSH3 0x48FB JUMPI PUSH3 0x48FA PUSH3 0x4897 JUMP JUMPDEST JUMPDEST SWAP3 SWAP2 POP POP JUMP JUMPDEST PUSH32 0x4E487B7100000000000000000000000000000000000000000000000000000000 PUSH1 0x0 MSTORE PUSH1 0x32 PUSH1 0x4 MSTORE PUSH1 0x24 PUSH1 0x0 REVERT JUMPDEST PUSH1 0x0 PUSH3 0x493D DUP3 PUSH3 0x3966 JUMP JUMPDEST SWAP2 POP PUSH32 0xFFFFFFFFFFFFFFFFFFFFFFFFFFFFFFFFFFFFFFFFFFFFFFFFFFFFFFFFFFFFFFFF DUP3 SUB PUSH3 0x4972 JUMPI PUSH3 0x4971 PUSH3 0x4897 JUMP JUMPDEST JUMPDEST PUSH1 0x1 DUP3 ADD SWAP1 POP SWAP2 SWAP1 POP JUMP JUMPDEST PUSH32 0x4552433732313A2063616C6C6572206973206E6F7420746F6B656E206F776E65 PUSH1 0x0 DUP3 ADD MSTORE PUSH32 0x72206F7220617070726F76656400000000000000000000000000000000000000 PUSH1 0x20 DUP3 ADD MSTORE POP JUMP JUMPDEST PUSH1 0x0 PUSH3 0x49DB PUSH1 0x2D DUP4 PUSH3 0x38B3 JUMP JUMPDEST SWAP2 POP PUSH3 0x49E8 DUP3 PUSH3 0x497D JUMP JUMPDEST PUSH1 0x40 DUP3 ADD SWAP1 POP SWAP2 SWAP1 POP JUMP JUMPDEST PUSH1 0x0 PUSH1 0x20 DUP3 ADD SWAP1 POP DUP2 DUP2 SUB PUSH1 0x0 DUP4 ADD MSTORE PUSH3 0x4A0E DUP2 PUSH3 0x49CC JUMP JUMPDEST SWAP1 POP SWAP2 SWAP1 POP JUMP JUMPDEST PUSH32 0x46696E616C20696E766F69636520697320616C72656164792067656E65726174 PUSH1 0x0 DUP3 ADD MSTORE PUSH32 0x65642E0000000000000000000000000000000000000000000000000000000000 PUSH1 0x20 DUP3 ADD MSTORE POP JUMP JUMPDEST PUSH1 0x0 PUSH3 0x4A73 PUSH1 0x23 DUP4 PUSH3 0x38B3 JUMP JUMPDEST SWAP2 POP PUSH3 0x4A80 DUP3 PUSH3 0x4A15 JUMP JUMPDEST PUSH1 0x40 DUP3 ADD SWAP1 POP SWAP2 SWAP1 POP JUMP JUMPDEST PUSH1 0x0 PUSH1 0x20 DUP3 ADD SWAP1 POP DUP2 DUP2 SUB PUSH1 0x0 DUP4 ADD MSTORE PUSH3 0x4AA6 DUP2 PUSH3 0x4A64 JUMP JUMPDEST SWAP1 POP SWAP2 SWAP1 POP JUMP JUMPDEST PUSH32 0x61646472657373206973206E6F7420617070726F7665722E0000000000000000 PUSH1 0x0 DUP3 ADD MSTORE POP JUMP JUMPDEST PUSH1 0x0 PUSH3 0x4AE5 PUSH1 0x18 DUP4 PUSH3 0x38B3 JUMP JUMPDEST SWAP2 POP PUSH3 0x4AF2 DUP3 PUSH3 0x4AAD JUMP JUMPDEST PUSH1 0x20 DUP3 ADD SWAP1 POP SWAP2 SWAP1 POP JUMP JUMPDEST PUSH1 0x0 PUSH1 0x20 DUP3 ADD SWAP1 POP DUP2 DUP2 SUB PUSH1 0x0 DUP4 ADD MSTORE PUSH3 0x4B18 DUP2 PUSH3 0x4AD6 JUMP JUMPDEST SWAP1 POP SWAP2 SWAP1 POP JUMP JUMPDEST PUSH32 0x4E487B7100000000000000000000000000000000000000000000000000000000 PUSH1 0x0 MSTORE PUSH1 0x12 PUSH1 0x4 MSTORE PUSH1 0x24 PUSH1 0x0 REVERT JUMPDEST PUSH1 0x0 PUSH3 0x4B5B DUP3 PUSH3 0x3966 JUMP JUMPDEST SWAP2 POP PUSH3 0x4B68 DUP4 PUSH3 0x3966 JUMP JUMPDEST SWAP3 POP DUP3 PUSH3 0x4B7B JUMPI PUSH3 0x4B7A PUSH3 0x4B1F JUMP JUMPDEST JUMPDEST DUP3 DUP3 DIV SWAP1 POP SWAP3 SWAP2 POP POP JUMP JUMPDEST PUSH1 0x0 PUSH3 0x4B93 DUP3 PUSH3 0x3966 JUMP JUMPDEST SWAP2 POP PUSH3 0x4BA0 DUP4 PUSH3 0x3966 JUMP JUMPDEST SWAP3 POP DUP3 DUP3 MUL PUSH3 0x4BB0 DUP2 PUSH3 0x3966 JUMP JUMPDEST SWAP2 POP DUP3 DUP3 DIV DUP5 EQ DUP4 ISZERO OR PUSH3 0x4BCA JUMPI PUSH3 0x4BC9 PUSH3 0x4897 JUMP JUMPDEST JUMPDEST POP SWAP3 SWAP2 POP POP JUMP JUMPDEST PUSH1 0x0 PUSH3 0x4BDE DUP3 PUSH3 0x3966 JUMP JUMPDEST SWAP2 POP PUSH3 0x4BEB DUP4 PUSH3 0x3966 JUMP JUMPDEST SWAP3 POP DUP3 DUP3 SUB SWAP1 POP DUP2 DUP2 GT ISZERO PUSH3 0x4C06 JUMPI PUSH3 0x4C05 PUSH3 0x4897 JUMP JUMPDEST JUMPDEST SWAP3 SWAP2 POP POP JUMP JUMPDEST PUSH32 0x4E6F74206F776E65720000000000000000000000000000000000000000000000 PUSH1 0x0 DUP3 ADD MSTORE POP JUMP JUMPDEST PUSH1 0x0 PUSH3 0x4C44 PUSH1 0x9 DUP4 PUSH3 0x38B3 JUMP JUMPDEST SWAP2 POP PUSH3 0x4C51 DUP3 PUSH3 0x4C0C JUMP JUMPDEST PUSH1 0x20 DUP3 ADD SWAP1 POP SWAP2 SWAP1 POP JUMP JUMPDEST PUSH1 0x0 PUSH1 0x20 DUP3 ADD SWAP1 POP DUP2 DUP2 SUB PUSH1 0x0 DUP4 ADD MSTORE PUSH3 0x4C77 DUP2 PUSH3 0x4C35 JUMP JUMPDEST SWAP1 POP SWAP2 SWAP1 POP JUMP JUMPDEST PUSH32 0x4552433732313A20696E76616C696420746F6B656E2049440000000000000000 PUSH1 0x0 DUP3 ADD MSTORE POP JUMP JUMPDEST PUSH1 0x0 PUSH3 0x4CB6 PUSH1 0x18 DUP4 PUSH3 0x38B3 JUMP JUMPDEST SWAP2 POP PUSH3 0x4CC3 DUP3 PUSH3 0x4C7E JUMP JUMPDEST PUSH1 0x20 DUP3 ADD SWAP1 POP SWAP2 SWAP1 POP JUMP JUMPDEST PUSH1 0x0 PUSH1 0x20 DUP3 ADD SWAP1 POP DUP2 DUP2 SUB PUSH1 0x0 DUP4 ADD MSTORE PUSH3 0x4CE9 DUP2 PUSH3 0x4CA7 JUMP JUMPDEST SWAP1 POP SWAP2 SWAP1 POP JUMP JUMPDEST PUSH32 0x4552433732313A2061646472657373207A65726F206973206E6F742061207661 PUSH1 0x0 DUP3 ADD MSTORE PUSH32 0x6C6964206F776E65720000000000000000000000000000000000000000000000 PUSH1 0x20 DUP3 ADD MSTORE POP JUMP JUMPDEST PUSH1 0x0 PUSH3 0x4D4E PUSH1 0x29 DUP4 PUSH3 0x38B3 JUMP JUMPDEST SWAP2 POP PUSH3 0x4D5B DUP3 PUSH3 0x4CF0 JUMP JUMPDEST PUSH1 0x40 DUP3 ADD SWAP1 POP SWAP2 SWAP1 POP JUMP JUMPDEST PUSH1 0x0 PUSH1 0x20 DUP3 ADD SWAP1 POP DUP2 DUP2 SUB PUSH1 0x0 DUP4 ADD MSTORE PUSH3 0x4D81 DUP2 PUSH3 0x4D3F JUMP JUMPDEST SWAP1 POP SWAP2 SWAP1 POP JUMP JUMPDEST PUSH1 0x0 DUP2 SWAP1 POP DUP2 PUSH1 0x0 MSTORE PUSH1 0x20 PUSH1 0x0 KECCAK256 SWAP1 POP SWAP2 SWAP1 POP JUMP JUMPDEST PUSH1 0x0 PUSH1 0x20 PUSH1 0x1F DUP4 ADD DIV SWAP1 POP SWAP2 SWAP1 POP JUMP JUMPDEST PUSH1 0x0 DUP3 DUP3 SHL SWAP1 POP SWAP3 SWAP2 POP POP JUMP JUMPDEST PUSH1 0x0 PUSH1 0x8 DUP4 MUL PUSH3 0x4DEC PUSH32 0xFFFFFFFFFFFFFFFFFFFFFFFFFFFFFFFFFFFFFFFFFFFFFFFFFFFFFFFFFFFFFFFF DUP3 PUSH3 0x4DAD JUMP JUMPDEST PUSH3 0x4DF8 DUP7 DUP4 PUSH3 0x4DAD JUMP JUMPDEST SWAP6 POP DUP1 NOT DUP5 AND SWAP4 POP DUP1 DUP7 AND DUP5 OR SWAP3 POP POP POP SWAP4 SWAP3 POP POP POP JUMP JUMPDEST PUSH1 0x0 DUP2 SWAP1 POP SWAP2 SWAP1 POP JUMP JUMPDEST PUSH1 0x0 PUSH3 0x4E3B PUSH3 0x4E35 PUSH3 0x4E2F DUP5 PUSH3 0x3966 JUMP JUMPDEST PUSH3 0x4E10 JUMP JUMPDEST PUSH3 0x3966 JUMP JUMPDEST SWAP1 POP SWAP2 SWAP1 POP JUMP JUMPDEST PUSH1 0x0 DUP2 SWAP1 POP SWAP2 SWAP1 POP JUMP JUMPDEST PUSH3 0x4E57 DUP4 PUSH3 0x4E1A JUMP JUMPDEST PUSH3 0x4E6F PUSH3 0x4E66 DUP3 PUSH3 0x4E42 JUMP JUMPDEST DUP5 DUP5 SLOAD PUSH3 0x4DBA JUMP JUMPDEST DUP3 SSTORE POP POP POP POP JUMP JUMPDEST PUSH1 0x0 SWAP1 JUMP JUMPDEST PUSH3 0x4E86 PUSH3 0x4E77 JUMP JUMPDEST PUSH3 0x4E93 DUP2 DUP5 DUP5 PUSH3 0x4E4C JUMP JUMPDEST POP POP POP JUMP JUMPDEST JUMPDEST DUP2 DUP2 LT ISZERO PUSH3 0x4EBB JUMPI PUSH3 0x4EAF PUSH1 0x0 DUP3 PUSH3 0x4E7C JUMP JUMPDEST PUSH1 0x1 DUP2 ADD SWAP1 POP PUSH3 0x4E99 JUMP JUMPDEST POP POP JUMP JUMPDEST PUSH1 0x1F DUP3 GT ISZERO PUSH3 0x4F0A JUMPI PUSH3 0x4ED4 DUP2 PUSH3 0x4D88 JUMP JUMPDEST PUSH3 0x4EDF DUP5 PUSH3 0x4D9D JUMP JUMPDEST DUP2 ADD PUSH1 0x20 DUP6 LT ISZERO PUSH3 0x4EEF JUMPI DUP2 SWAP1 POP JUMPDEST PUSH3 0x4F07 PUSH3 0x4EFE DUP6 PUSH3 0x4D9D JUMP JUMPDEST DUP4 ADD DUP3 PUSH3 0x4E98 JUMP JUMPDEST POP POP JUMPDEST POP POP POP JUMP JUMPDEST PUSH1 0x0 DUP3 DUP3 SHR SWAP1 POP SWAP3 SWAP2 POP POP JUMP JUMPDEST PUSH1 0x0 PUSH3 0x4F2F PUSH1 0x0 NOT DUP5 PUSH1 0x8 MUL PUSH3 0x4F0F JUMP JUMPDEST NOT DUP1 DUP4 AND SWAP2 POP POP SWAP3 SWAP2 POP POP JUMP JUMPDEST PUSH1 0x0 PUSH3 0x4F4A DUP4 DUP4 PUSH3 0x4F1C JUMP JUMPDEST SWAP2 POP DUP3 PUSH1 0x2 MUL DUP3 OR SWAP1 POP SWAP3 SWAP2 POP POP JUMP JUMPDEST PUSH3 0x4F65 DUP3 PUSH3 0x38A8 JUMP JUMPDEST PUSH8 0xFFFFFFFFFFFFFFFF DUP2 GT ISZERO PUSH3 0x4F81 JUMPI PUSH3 0x4F80 PUSH3 0x3F89 JUMP JUMPDEST JUMPDEST PUSH3 0x4F8D DUP3 SLOAD PUSH3 0x4732 JUMP JUMPDEST PUSH3 0x4F9A DUP3 DUP3 DUP6 PUSH3 0x4EBF JUMP JUMPDEST PUSH1 0x0 PUSH1 0x20 SWAP1 POP PUSH1 0x1F DUP4 GT PUSH1 0x1 DUP2 EQ PUSH3 0x4FD2 JUMPI PUSH1 0x0 DUP5 ISZERO PUSH3 0x4FBD JUMPI DUP3 DUP8 ADD MLOAD SWAP1 POP JUMPDEST PUSH3 0x4FC9 DUP6 DUP3 PUSH3 0x4F3C JUMP JUMPDEST DUP7 SSTORE POP PUSH3 0x5039 JUMP JUMPDEST PUSH1 0x1F NOT DUP5 AND PUSH3 0x4FE2 DUP7 PUSH3 0x4D88 JUMP JUMPDEST PUSH1 0x0 JUMPDEST DUP3 DUP2 LT ISZERO PUSH3 0x500C JUMPI DUP5 DUP10 ADD MLOAD DUP3 SSTORE PUSH1 0x1 DUP3 ADD SWAP2 POP PUSH1 0x20 DUP6 ADD SWAP5 POP PUSH1 0x20 DUP2 ADD SWAP1 POP PUSH3 0x4FE5 JUMP JUMPDEST DUP7 DUP4 LT ISZERO PUSH3 0x502C JUMPI DUP5 DUP10 ADD MLOAD PUSH3 0x5028 PUSH1 0x1F DUP10 AND DUP3 PUSH3 0x4F1C JUMP JUMPDEST DUP4 SSTORE POP JUMPDEST PUSH1 0x1 PUSH1 0x2 DUP9 MUL ADD DUP9 SSTORE POP POP POP JUMPDEST POP POP POP POP POP POP JUMP JUMPDEST PUSH1 0x0 DUP2 SWAP1 POP SWAP3 SWAP2 POP POP JUMP JUMPDEST PUSH1 0x0 PUSH3 0x5059 DUP3 PUSH3 0x38A8 JUMP JUMPDEST PUSH3 0x5065 DUP2 DUP6 PUSH3 0x5041 JUMP JUMPDEST SWAP4 POP PUSH3 0x5077 DUP2 DUP6 PUSH1 0x20 DUP7 ADD PUSH3 0x38C4 JUMP JUMPDEST DUP1 DUP5 ADD SWAP2 POP POP SWAP3 SWAP2 POP POP JUMP JUMPDEST PUSH1 0x0 PUSH3 0x5091 DUP3 DUP6 PUSH3 0x504C JUMP JUMPDEST SWAP2 POP PUSH3 0x509F DUP3 DUP5 PUSH3 0x504C JUMP JUMPDEST SWAP2 POP DUP2 SWAP1 POP SWAP4 SWAP3 POP POP POP JUMP JUMPDEST PUSH32 0x496E766F696365206973206E6F742066756C6C7920636F6D706C657465642E00 PUSH1 0x0 DUP3 ADD MSTORE POP JUMP JUMPDEST PUSH1 0x0 PUSH3 0x50E3 PUSH1 0x1F DUP4 PUSH3 0x38B3 JUMP JUMPDEST SWAP2 POP PUSH3 0x50F0 DUP3 PUSH3 0x50AB JUMP JUMPDEST PUSH1 0x20 DUP3 ADD SWAP1 POP SWAP2 SWAP1 POP JUMP JUMPDEST PUSH1 0x0 PUSH1 0x20 DUP3 ADD SWAP1 POP DUP2 DUP2 SUB PUSH1 0x0 DUP4 ADD MSTORE PUSH3 0x5116 DUP2 PUSH3 0x50D4 JUMP JUMPDEST SWAP1 POP SWAP2 SWAP1 POP JUMP JUMPDEST PUSH32 0x4552433732313A207472616E736665722066726F6D20696E636F727265637420 PUSH1 0x0 DUP3 ADD MSTORE PUSH32 0x6F776E6572000000000000000000000000000000000000000000000000000000 PUSH1 0x20 DUP3 ADD MSTORE POP JUMP JUMPDEST PUSH1 0x0 PUSH3 0x517B PUSH1 0x25 DUP4 PUSH3 0x38B3 JUMP JUMPDEST SWAP2 POP PUSH3 0x5188 DUP3 PUSH3 0x511D JUMP JUMPDEST PUSH1 0x40 DUP3 ADD SWAP1 POP SWAP2 SWAP1 POP JUMP JUMPDEST PUSH1 0x0 PUSH1 0x20 DUP3 ADD SWAP1 POP DUP2 DUP2 SUB PUSH1 0x0 DUP4 ADD MSTORE PUSH3 0x51AE DUP2 PUSH3 0x516C JUMP JUMPDEST SWAP1 POP SWAP2 SWAP1 POP JUMP JUMPDEST PUSH32 0x4552433732313A207472616E7366657220746F20746865207A65726F20616464 PUSH1 0x0 DUP3 ADD MSTORE PUSH32 0x7265737300000000000000000000000000000000000000000000000000000000 PUSH1 0x20 DUP3 ADD MSTORE POP JUMP JUMPDEST PUSH1 0x0 PUSH3 0x5213 PUSH1 0x24 DUP4 PUSH3 0x38B3 JUMP JUMPDEST SWAP2 POP PUSH3 0x5220 DUP3 PUSH3 0x51B5 JUMP JUMPDEST PUSH1 0x40 DUP3 ADD SWAP1 POP SWAP2 SWAP1 POP JUMP JUMPDEST PUSH1 0x0 PUSH1 0x20 DUP3 ADD SWAP1 POP DUP2 DUP2 SUB PUSH1 0x0 DUP4 ADD MSTORE PUSH3 0x5246 DUP2 PUSH3 0x5204 JUMP JUMPDEST SWAP1 POP SWAP2 SWAP1 POP JUMP JUMPDEST PUSH32 0x4552433732313A206D696E7420746F20746865207A65726F2061646472657373 PUSH1 0x0 DUP3 ADD MSTORE POP JUMP JUMPDEST PUSH1 0x0 PUSH3 0x5285 PUSH1 0x20 DUP4 PUSH3 0x38B3 JUMP JUMPDEST SWAP2 POP PUSH3 0x5292 DUP3 PUSH3 0x524D JUMP JUMPDEST PUSH1 0x20 DUP3 ADD SWAP1 POP SWAP2 SWAP1 POP JUMP JUMPDEST PUSH1 0x0 PUSH1 0x20 DUP3 ADD SWAP1 POP DUP2 DUP2 SUB PUSH1 0x0 DUP4 ADD MSTORE PUSH3 0x52B8 DUP2 PUSH3 0x5276 JUMP JUMPDEST SWAP1 POP SWAP2 SWAP1 POP JUMP JUMPDEST PUSH32 0x4552433732313A20746F6B656E20616C7265616479206D696E74656400000000 PUSH1 0x0 DUP3 ADD MSTORE POP JUMP JUMPDEST PUSH1 0x0 PUSH3 0x52F7 PUSH1 0x1C DUP4 PUSH3 0x38B3 JUMP JUMPDEST SWAP2 POP PUSH3 0x5304 DUP3 PUSH3 0x52BF JUMP JUMPDEST PUSH1 0x20 DUP3 ADD SWAP1 POP SWAP2 SWAP1 POP JUMP JUMPDEST PUSH1 0x0 PUSH1 0x20 DUP3 ADD SWAP1 POP DUP2 DUP2 SUB PUSH1 0x0 DUP4 ADD MSTORE PUSH3 0x532A DUP2 PUSH3 0x52E8 JUMP JUMPDEST SWAP1 POP SWAP2 SWAP1 POP JUMP JUMPDEST PUSH32 0x45524337323155524953746F726167653A2055524920736574206F66206E6F6E PUSH1 0x0 DUP3 ADD MSTORE PUSH32 0x6578697374656E7420746F6B656E000000000000000000000000000000000000 PUSH1 0x20 DUP3 ADD MSTORE POP JUMP JUMPDEST PUSH1 0x0 PUSH3 0x538F PUSH1 0x2E DUP4 PUSH3 0x38B3 JUMP JUMPDEST SWAP2 POP PUSH3 0x539C DUP3 PUSH3 0x5331 JUMP JUMPDEST PUSH1 0x40 DUP3 ADD SWAP1 POP SWAP2 SWAP1 POP JUMP JUMPDEST PUSH1 0x0 PUSH1 0x20 DUP3 ADD SWAP1 POP DUP2 DUP2 SUB PUSH1 0x0 DUP4 ADD MSTORE PUSH3 0x53C2 DUP2 PUSH3 0x5380 JUMP JUMPDEST SWAP1 POP SWAP2 SWAP1 POP JUMP JUMPDEST PUSH32 0x73686970696E67466565206973207A65726F2E00000000000000000000000000 PUSH1 0x0 DUP3 ADD MSTORE POP JUMP JUMPDEST PUSH1 0x0 PUSH3 0x5401 PUSH1 0x13 DUP4 PUSH3 0x38B3 JUMP JUMPDEST SWAP2 POP PUSH3 0x540E DUP3 PUSH3 0x53C9 JUMP JUMPDEST PUSH1 0x20 DUP3 ADD SWAP1 POP SWAP2 SWAP1 POP JUMP JUMPDEST PUSH1 0x0 PUSH1 0x20 DUP3 ADD SWAP1 POP DUP2 DUP2 SUB PUSH1 0x0 DUP4 ADD MSTORE PUSH3 0x5434 DUP2 PUSH3 0x53F2 JUMP JUMPDEST SWAP1 POP SWAP2 SWAP1 POP JUMP JUMPDEST PUSH32 0x4552433732313A20617070726F766520746F2063616C6C657200000000000000 PUSH1 0x0 DUP3 ADD MSTORE POP JUMP JUMPDEST PUSH1 0x0 PUSH3 0x5473 PUSH1 0x19 DUP4 PUSH3 0x38B3 JUMP JUMPDEST SWAP2 POP PUSH3 0x5480 DUP3 PUSH3 0x543B JUMP JUMPDEST PUSH1 0x20 DUP3 ADD SWAP1 POP SWAP2 SWAP1 POP JUMP JUMPDEST PUSH1 0x0 PUSH1 0x20 DUP3 ADD SWAP1 POP DUP2 DUP2 SUB PUSH1 0x0 DUP4 ADD MSTORE PUSH3 0x54A6 DUP2 PUSH3 0x5464 JUMP JUMPDEST SWAP1 POP SWAP2 SWAP1 POP JUMP JUMPDEST PUSH32 0x4552433732313A207472616E7366657220746F206E6F6E204552433732315265 PUSH1 0x0 DUP3 ADD MSTORE PUSH32 0x63656976657220696D706C656D656E7465720000000000000000000000000000 PUSH1 0x20 DUP3 ADD MSTORE POP JUMP JUMPDEST PUSH1 0x0 PUSH3 0x550B PUSH1 0x32 DUP4 PUSH3 0x38B3 JUMP JUMPDEST SWAP2 POP PUSH3 0x5518 DUP3 PUSH3 0x54AD JUMP JUMPDEST PUSH1 0x40 DUP3 ADD SWAP1 POP SWAP2 SWAP1 POP JUMP JUMPDEST PUSH1 0x0 PUSH1 0x20 DUP3 ADD SWAP1 POP DUP2 DUP2 SUB PUSH1 0x0 DUP4 ADD MSTORE PUSH3 0x553E DUP2 PUSH3 0x54FC JUMP JUMPDEST SWAP1 POP SWAP2 SWAP1 POP JUMP JUMPDEST PUSH1 0x0 DUP2 MLOAD SWAP1 POP SWAP2 SWAP1 POP JUMP JUMPDEST PUSH1 0x0 DUP3 DUP3 MSTORE PUSH1 0x20 DUP3 ADD SWAP1 POP SWAP3 SWAP2 POP POP JUMP JUMPDEST PUSH1 0x0 PUSH3 0x556E DUP3 PUSH3 0x5545 JUMP JUMPDEST PUSH3 0x557A DUP2 DUP6 PUSH3 0x5550 JUMP JUMPDEST SWAP4 POP PUSH3 0x558C DUP2 DUP6 PUSH1 0x20 DUP7 ADD PUSH3 0x38C4 JUMP JUMPDEST PUSH3 0x5597 DUP2 PUSH3 0x38F0 JUMP JUMPDEST DUP5 ADD SWAP2 POP POP SWAP3 SWAP2 POP POP JUMP JUMPDEST PUSH1 0x0 PUSH1 0x80 DUP3 ADD SWAP1 POP PUSH3 0x55B9 PUSH1 0x0 DUP4 ADD DUP8 PUSH3 0x3A07 JUMP JUMPDEST PUSH3 0x55C8 PUSH1 0x20 DUP4 ADD DUP7 PUSH3 0x3A07 JUMP JUMPDEST PUSH3 0x55D7 PUSH1 0x40 DUP4 ADD DUP6 PUSH3 0x4214 JUMP JUMPDEST DUP2 DUP2 SUB PUSH1 0x60 DUP4 ADD MSTORE PUSH3 0x55EB DUP2 DUP5 PUSH3 0x5561 JUMP JUMPDEST SWAP1 POP SWAP6 SWAP5 POP POP POP POP POP JUMP JUMPDEST PUSH1 0x0 DUP2 MLOAD SWAP1 POP PUSH3 0x5607 DUP2 PUSH3 0x380B JUMP JUMPDEST SWAP3 SWAP2 POP POP JUMP JUMPDEST PUSH1 0x0 PUSH1 0x20 DUP3 DUP5 SUB SLT ISZERO PUSH3 0x5626 JUMPI PUSH3 0x5625 PUSH3 0x37D5 JUMP JUMPDEST JUMPDEST PUSH1 0x0 PUSH3 0x5636 DUP5 DUP3 DUP6 ADD PUSH3 0x55F6 JUMP JUMPDEST SWAP2 POP POP SWAP3 SWAP2 POP POP JUMP INVALID PUSH1 0x80 PUSH1 0x40 MSTORE PUSH20 0x22B6DD4D6D818E2EBCE3D2E009A249F8FBF4E965 PUSH1 0x0 DUP1 PUSH2 0x100 EXP DUP2 SLOAD DUP2 PUSH20 0xFFFFFFFFFFFFFFFFFFFFFFFFFFFFFFFFFFFFFFFF MUL NOT AND SWAP1 DUP4 PUSH20 0xFFFFFFFFFFFFFFFFFFFFFFFFFFFFFFFFFFFFFFFF AND MUL OR SWAP1 SSTORE POP CALLVALUE DUP1 ISZERO PUSH2 0x64 JUMPI PUSH1 0x0 DUP1 REVERT JUMPDEST POP PUSH2 0x147 DUP1 PUSH2 0x74 PUSH1 0x0 CODECOPY PUSH1 0x0 RETURN INVALID PUSH1 0x80 PUSH1 0x40 MSTORE PUSH1 0x4 CALLDATASIZE LT PUSH2 0x1E JUMPI PUSH1 0x0 CALLDATALOAD PUSH1 0xE0 SHR DUP1 PUSH4 0xFD72B6E9 EQ PUSH2 0x23 JUMPI JUMPDEST PUSH1 0x0 DUP1 REVERT JUMPDEST PUSH2 0x3D PUSH1 0x4 DUP1 CALLDATASIZE SUB DUP2 ADD SWAP1 PUSH2 0x38 SWAP2 SWAP1 PUSH2 0xE4 JUMP JUMPDEST PUSH2 0x3F JUMP JUMPDEST STOP JUMPDEST PUSH1 0x0 DUP1 SLOAD SWAP1 PUSH2 0x100 EXP SWAP1 DIV PUSH20 0xFFFFFFFFFFFFFFFFFFFFFFFFFFFFFFFFFFFFFFFF AND PUSH20 0xFFFFFFFFFFFFFFFFFFFFFFFFFFFFFFFFFFFFFFFF AND PUSH2 0x8FC DUP3 SWAP1 DUP2 ISZERO MUL SWAP1 PUSH1 0x40 MLOAD PUSH1 0x0 PUSH1 0x40 MLOAD DUP1 DUP4 SUB DUP2 DUP6 DUP9 DUP9 CALL SWAP4 POP POP POP POP ISZERO DUP1 ISZERO PUSH2 0xA5 JUMPI RETURNDATASIZE PUSH1 0x0 DUP1 RETURNDATACOPY RETURNDATASIZE PUSH1 0x0 REVERT JUMPDEST POP POP JUMP JUMPDEST PUSH1 0x0 DUP1 REVERT JUMPDEST PUSH1 0x0 DUP2 SWAP1 POP SWAP2 SWAP1 POP JUMP JUMPDEST PUSH2 0xC1 DUP2 PUSH2 0xAE JUMP JUMPDEST DUP2 EQ PUSH2 0xCC JUMPI PUSH1 0x0 DUP1 REVERT JUMPDEST POP JUMP JUMPDEST PUSH1 0x0 DUP2 CALLDATALOAD SWAP1 POP PUSH2 0xDE DUP2 PUSH2 0xB8 JUMP JUMPDEST SWAP3 SWAP2 POP POP JUMP JUMPDEST PUSH1 0x0 PUSH1 0x20 DUP3 DUP5 SUB SLT ISZERO PUSH2 0xFA JUMPI PUSH2 0xF9 PUSH2 0xA9 JUMP JUMPDEST JUMPDEST PUSH1 0x0 PUSH2 0x108 DUP5 DUP3 DUP6 ADD PUSH2 0xCF JUMP JUMPDEST SWAP2 POP POP SWAP3 SWAP2 POP POP JUMP INVALID LOG2 PUSH5 0x6970667358 0x22 SLT KECCAK256 LOG0 0xC7 JUMPI 0x22 0xB7 EXP PUSH29 0xFA226C2A1AA5E5AFE41985828409997955AEC6ABAFDC202FB364736F6C PUSH4 0x43000811 STOP CALLER LOG2 PUSH5 0x6970667358 0x22 SLT KECCAK256 LOG4 SHL 0xCA EXP PUSH18 0x2FBF5B3D7DB468950AA09D549FA8BD8573C9 0xDD SWAP12 SHR 0xF8 PUSH12 0xE0664F5C64736F6C63430008 GT STOP CALLER "},"methodIdentifiers":{"approve(address,uint256)":"095ea7b3","balanceOf(address)":"70a08231","createInvoiceToken(string,uint256,address[4])":"3f68026c","createMilestoneTransaction(uint256,uint256,uint256,bool)":"31163c66","fetchInvoices()":"15751a14","fetchSingleInvoice(uint256)":"d425e991","getApproved(uint256)":"081812fc","getCurrentStatusOfInvoice(uint256)":"c7db36b9","getEscrowContractAddress(uint256)":"90c148f2","isApprovedForAll(address,address)":"e985e9c5","name()":"06fdde03","ownerOf(uint256)":"6352211e","safeTransferFrom(address,address,uint256)":"42842e0e","safeTransferFrom(address,address,uint256,bytes)":"b88d4fde","setApprovalForAll(address,bool)":"a22cb465","setPdfURI(string,uint256)":"bd662497","setTxHash(string,uint256,uint256)":"92ba905c","supportsInterface(bytes4)":"01ffc9a7","symbol()":"95d89b41","tokenURI(uint256)":"c87b56dd","transferFrom(address,address,uint256)":"23b872dd"}}}}}