{
  "_format": "hh-sol-artifact-1",
  "contractName": "Invoice",
  "sourceName": "contracts/Invoice.sol",
  "abi": [
    {
      "inputs": [],
      "stateMutability": "nonpayable",
      "type": "constructor"
    },
    {
      "anonymous": false,
      "inputs": [
        {
          "indexed": true,
          "internalType": "address",
          "name": "owner",
          "type": "address"
        },
        {
          "indexed": true,
          "internalType": "address",
          "name": "approved",
          "type": "address"
        },
        {
          "indexed": true,
          "internalType": "uint256",
          "name": "tokenId",
          "type": "uint256"
        }
      ],
      "name": "Approval",
      "type": "event"
    },
    {
      "anonymous": false,
      "inputs": [
        {
          "indexed": true,
          "internalType": "address",
          "name": "owner",
          "type": "address"
        },
        {
          "indexed": true,
          "internalType": "address",
          "name": "operator",
          "type": "address"
        },
        {
          "indexed": false,
          "internalType": "bool",
          "name": "approved",
          "type": "bool"
        }
      ],
      "name": "ApprovalForAll",
      "type": "event"
    },
    {
      "anonymous": false,
      "inputs": [
        {
          "indexed": true,
          "internalType": "address",
          "name": "from",
          "type": "address"
        },
        {
          "indexed": true,
          "internalType": "address",
          "name": "to",
          "type": "address"
        },
        {
          "indexed": true,
          "internalType": "uint256",
          "name": "tokenId",
          "type": "uint256"
        }
      ],
      "name": "Transfer",
      "type": "event"
    },
    {
      "inputs": [
        {
          "internalType": "address",
          "name": "to",
          "type": "address"
        },
        {
          "internalType": "uint256",
          "name": "tokenId",
          "type": "uint256"
        }
      ],
      "name": "approve",
      "outputs": [],
      "stateMutability": "nonpayable",
      "type": "function"
    },
    {
      "inputs": [
        {
          "internalType": "address",
          "name": "owner",
          "type": "address"
        }
      ],
      "name": "balanceOf",
      "outputs": [
        {
          "internalType": "uint256",
          "name": "",
          "type": "uint256"
        }
      ],
      "stateMutability": "view",
      "type": "function"
    },
    {
      "inputs": [
        {
          "internalType": "string",
          "name": "metaDataURI",
          "type": "string"
        },
        {
          "internalType": "uint256",
          "name": "shipingFee",
          "type": "uint256"
        },
        {
          "internalType": "address[4]",
          "name": "approverAdd",
          "type": "address[4]"
        }
      ],
      "name": "createInvoiceToken",
      "outputs": [
        {
          "internalType": "uint256",
          "name": "",
          "type": "uint256"
        }
      ],
      "stateMutability": "payable",
      "type": "function"
    },
    {
      "inputs": [
        {
          "internalType": "uint256",
          "name": "milestoneID",
          "type": "uint256"
        },
        {
          "internalType": "uint256",
          "name": "shipingFee",
          "type": "uint256"
        },
        {
          "internalType": "uint256",
          "name": "invoiceID",
          "type": "uint256"
        },
        {
          "internalType": "bool",
          "name": "isOkay",
          "type": "bool"
        }
      ],
      "name": "createMilestoneTransaction",
      "outputs": [],
      "stateMutability": "payable",
      "type": "function"
    },
    {
      "inputs": [],
      "name": "fetchInvoices",
      "outputs": [
        {
          "components": [
            {
              "internalType": "uint256",
              "name": "invoiceID",
              "type": "uint256"
            },
            {
              "internalType": "uint256",
              "name": "shipingFee",
              "type": "uint256"
            },
            {
              "internalType": "address payable",
              "name": "invoiceOwner",
              "type": "address"
            },
            {
              "internalType": "address",
              "name": "escrowContractAddress",
              "type": "address"
            },
            {
              "internalType": "bool",
              "name": "isCompleted",
              "type": "bool"
            },
            {
              "internalType": "uint256",
              "name": "timeStamp",
              "type": "uint256"
            },
            {
              "internalType": "string",
              "name": "pdfURI",
              "type": "string"
            },
            {
              "components": [
                {
                  "internalType": "address",
                  "name": "approverAddress",
                  "type": "address"
                },
                {
                  "internalType": "uint256",
                  "name": "approveTimeStamp",
                  "type": "uint256"
                },
                {
                  "internalType": "uint256",
                  "name": "atWhichMilestone",
                  "type": "uint256"
                },
                {
                  "internalType": "string",
                  "name": "transactionHash",
                  "type": "string"
                },
                {
                  "internalType": "uint256",
                  "name": "amount",
                  "type": "uint256"
                },
                {
                  "internalType": "bool",
                  "name": "isOkay",
                  "type": "bool"
                },
                {
                  "internalType": "bool",
                  "name": "isDone",
                  "type": "bool"
                }
              ],
              "internalType": "struct Invoice.milestoneData[4]",
              "name": "milestoneArray",
              "type": "tuple[4]"
            }
          ],
          "internalType": "struct Invoice.InvoiceNFT[]",
          "name": "",
          "type": "tuple[]"
        }
      ],
      "stateMutability": "view",
      "type": "function"
    },
    {
      "inputs": [
        {
          "internalType": "uint256",
          "name": "invoiceID",
          "type": "uint256"
        }
      ],
      "name": "fetchSingleInvoice",
      "outputs": [
        {
          "components": [
            {
              "internalType": "uint256",
              "name": "invoiceID",
              "type": "uint256"
            },
            {
              "internalType": "uint256",
              "name": "shipingFee",
              "type": "uint256"
            },
            {
              "internalType": "address payable",
              "name": "invoiceOwner",
              "type": "address"
            },
            {
              "internalType": "address",
              "name": "escrowContractAddress",
              "type": "address"
            },
            {
              "internalType": "bool",
              "name": "isCompleted",
              "type": "bool"
            },
            {
              "internalType": "uint256",
              "name": "timeStamp",
              "type": "uint256"
            },
            {
              "internalType": "string",
              "name": "pdfURI",
              "type": "string"
            },
            {
              "components": [
                {
                  "internalType": "address",
                  "name": "approverAddress",
                  "type": "address"
                },
                {
                  "internalType": "uint256",
                  "name": "approveTimeStamp",
                  "type": "uint256"
                },
                {
                  "internalType": "uint256",
                  "name": "atWhichMilestone",
                  "type": "uint256"
                },
                {
                  "internalType": "string",
                  "name": "transactionHash",
                  "type": "string"
                },
                {
                  "internalType": "uint256",
                  "name": "amount",
                  "type": "uint256"
                },
                {
                  "internalType": "bool",
                  "name": "isOkay",
                  "type": "bool"
                },
                {
                  "internalType": "bool",
                  "name": "isDone",
                  "type": "bool"
                }
              ],
              "internalType": "struct Invoice.milestoneData[4]",
              "name": "milestoneArray",
              "type": "tuple[4]"
            }
          ],
          "internalType": "struct Invoice.InvoiceNFT",
          "name": "",
          "type": "tuple"
        }
      ],
      "stateMutability": "view",
      "type": "function"
    },
    {
      "inputs": [
        {
          "internalType": "uint256",
          "name": "tokenId",
          "type": "uint256"
        }
      ],
      "name": "getApproved",
      "outputs": [
        {
          "internalType": "address",
          "name": "",
          "type": "address"
        }
      ],
      "stateMutability": "view",
      "type": "function"
    },
    {
      "inputs": [
        {
          "internalType": "uint256",
          "name": "invoiceID",
          "type": "uint256"
        }
      ],
      "name": "getCurrentStatusOfInvoice",
      "outputs": [
        {
          "internalType": "uint256",
          "name": "",
          "type": "uint256"
        },
        {
          "internalType": "uint256",
          "name": "",
          "type": "uint256"
        },
        {
          "internalType": "address",
          "name": "",
          "type": "address"
        },
        {
          "internalType": "bool",
          "name": "",
          "type": "bool"
        },
        {
          "components": [
            {
              "internalType": "address",
              "name": "approverAddress",
              "type": "address"
            },
            {
              "internalType": "uint256",
              "name": "approveTimeStamp",
              "type": "uint256"
            },
            {
              "internalType": "uint256",
              "name": "atWhichMilestone",
              "type": "uint256"
            },
            {
              "internalType": "string",
              "name": "transactionHash",
              "type": "string"
            },
            {
              "internalType": "uint256",
              "name": "amount",
              "type": "uint256"
            },
            {
              "internalType": "bool",
              "name": "isOkay",
              "type": "bool"
            },
            {
              "internalType": "bool",
              "name": "isDone",
              "type": "bool"
            }
          ],
          "internalType": "struct Invoice.milestoneData[4]",
          "name": "",
          "type": "tuple[4]"
        }
      ],
      "stateMutability": "view",
      "type": "function"
    },
    {
      "inputs": [
        {
          "internalType": "uint256",
          "name": "invoiceID",
          "type": "uint256"
        }
      ],
      "name": "getEscrowContractAddress",
      "outputs": [
        {
          "internalType": "address",
          "name": "",
          "type": "address"
        }
      ],
      "stateMutability": "view",
      "type": "function"
    },
    {
      "inputs": [
        {
          "internalType": "address",
          "name": "owner",
          "type": "address"
        },
        {
          "internalType": "address",
          "name": "operator",
          "type": "address"
        }
      ],
      "name": "isApprovedForAll",
      "outputs": [
        {
          "internalType": "bool",
          "name": "",
          "type": "bool"
        }
      ],
      "stateMutability": "view",
      "type": "function"
    },
    {
      "inputs": [],
      "name": "name",
      "outputs": [
        {
          "internalType": "string",
          "name": "",
          "type": "string"
        }
      ],
      "stateMutability": "view",
      "type": "function"
    },
    {
      "inputs": [
        {
          "internalType": "uint256",
          "name": "tokenId",
          "type": "uint256"
        }
      ],
      "name": "ownerOf",
      "outputs": [
        {
          "internalType": "address",
          "name": "",
          "type": "address"
        }
      ],
      "stateMutability": "view",
      "type": "function"
    },
    {
      "inputs": [
        {
          "internalType": "address",
          "name": "from",
          "type": "address"
        },
        {
          "internalType": "address",
          "name": "to",
          "type": "address"
        },
        {
          "internalType": "uint256",
          "name": "tokenId",
          "type": "uint256"
        }
      ],
      "name": "safeTransferFrom",
      "outputs": [],
      "stateMutability": "nonpayable",
      "type": "function"
    },
    {
      "inputs": [
        {
          "internalType": "address",
          "name": "from",
          "type": "address"
        },
        {
          "internalType": "address",
          "name": "to",
          "type": "address"
        },
        {
          "internalType": "uint256",
          "name": "tokenId",
          "type": "uint256"
        },
        {
          "internalType": "bytes",
          "name": "data",
          "type": "bytes"
        }
      ],
      "name": "safeTransferFrom",
      "outputs": [],
      "stateMutability": "nonpayable",
      "type": "function"
    },
    {
      "inputs": [
        {
          "internalType": "address",
          "name": "operator",
          "type": "address"
        },
        {
          "internalType": "bool",
          "name": "approved",
          "type": "bool"
        }
      ],
      "name": "setApprovalForAll",
      "outputs": [],
      "stateMutability": "nonpayable",
      "type": "function"
    },
    {
      "inputs": [
        {
          "internalType": "string",
          "name": "pdfURI",
          "type": "string"
        },
        {
          "internalType": "uint256",
          "name": "invoiceID",
          "type": "uint256"
        }
      ],
      "name": "setPdfURI",
      "outputs": [],
      "stateMutability": "nonpayable",
      "type": "function"
    },
    {
      "inputs": [
        {
          "internalType": "string",
          "name": "transactionHash",
          "type": "string"
        },
        {
          "internalType": "uint256",
          "name": "invoiceID",
          "type": "uint256"
        },
        {
          "internalType": "uint256",
          "name": "milestoneID",
          "type": "uint256"
        }
      ],
      "name": "setTxHash",
      "outputs": [],
      "stateMutability": "nonpayable",
      "type": "function"
    },
    {
      "inputs": [
        {
          "internalType": "bytes4",
          "name": "interfaceId",
          "type": "bytes4"
        }
      ],
      "name": "supportsInterface",
      "outputs": [
        {
          "internalType": "bool",
          "name": "",
          "type": "bool"
        }
      ],
      "stateMutability": "view",
      "type": "function"
    },
    {
      "inputs": [],
      "name": "symbol",
      "outputs": [
        {
          "internalType": "string",
          "name": "",
          "type": "string"
        }
      ],
      "stateMutability": "view",
      "type": "function"
    },
    {
      "inputs": [
        {
          "internalType": "uint256",
          "name": "tokenId",
          "type": "uint256"
        }
      ],
      "name": "tokenURI",
      "outputs": [
        {
          "internalType": "string",
          "name": "",
          "type": "string"
        }
      ],
      "stateMutability": "view",
      "type": "function"
    },
    {
      "inputs": [
        {
          "internalType": "address",
          "name": "from",
          "type": "address"
        },
        {
          "internalType": "address",
          "name": "to",
          "type": "address"
        },
        {
          "internalType": "uint256",
          "name": "tokenId",
          "type": "uint256"
        }
      ],
      "name": "transferFrom",
      "outputs": [],
      "stateMutability": "nonpayable",
      "type": "function"
    }
  ],
  "bytecode": "0x60806040523480156200001157600080fd5b506040518060400160405280600b81526020017f496e766f696365204e46540000000000000000000000000000000000000000008152506040518060400160405280600681526020017f494e564e4654000000000000000000000000000000000000000000000000000081525081600090816200008f919062000365565b508060019081620000a1919062000365565b50505033600860006101000a81548173ffffffffffffffffffffffffffffffffffffffff021916908373ffffffffffffffffffffffffffffffffffffffff1602179055506200044c565b600081519050919050565b7f4e487b7100000000000000000000000000000000000000000000000000000000600052604160045260246000fd5b7f4e487b7100000000000000000000000000000000000000000000000000000000600052602260045260246000fd5b600060028204905060018216806200016d57607f821691505b60208210810362000183576200018262000125565b5b50919050565b60008190508160005260206000209050919050565b60006020601f8301049050919050565b600082821b905092915050565b600060088302620001ed7fffffffffffffffffffffffffffffffffffffffffffffffffffffffffffffffff82620001ae565b620001f98683620001ae565b95508019841693508086168417925050509392505050565b6000819050919050565b6000819050919050565b600062000246620002406200023a8462000211565b6200021b565b62000211565b9050919050565b6000819050919050565b620002628362000225565b6200027a62000271826200024d565b848454620001bb565b825550505050565b600090565b6200029162000282565b6200029e81848462000257565b505050565b5b81811015620002c657620002ba60008262000287565b600181019050620002a4565b5050565b601f8211156200031557620002df8162000189565b620002ea846200019e565b81016020851015620002fa578190505b6200031262000309856200019e565b830182620002a3565b50505b505050565b600082821c905092915050565b60006200033a600019846008026200031a565b1980831691505092915050565b600062000355838362000327565b9150826002028217905092915050565b6200037082620000eb565b67ffffffffffffffff8111156200038c576200038b620000f6565b5b62000398825462000154565b620003a5828285620002ca565b600060209050601f831160018114620003dd5760008415620003c8578287015190505b620003d4858262000347565b86555062000444565b601f198416620003ed8662000189565b60005b828110156200041757848901518255600182019150602085019450602081019050620003f0565b8683101562000437578489015162000433601f89168262000327565b8355505b6001600288020188555050505b505050505050565b615830806200045c6000396000f3fe608060405260043610620001465760003560e01c806370a0823111620000bb578063b88d4fde1162000079578063b88d4fde146200046b578063bd6624971462000499578063c7db36b914620004c7578063c87b56dd146200050f578063d425e9911462000553578063e985e9c514620005975762000146565b806370a08231146200035757806390c148f2146200039b57806392ba905c14620003df57806395d89b41146200040d578063a22cb465146200043d5762000146565b806323b872dd116200010957806323b872dd146200026157806331163c66146200028f5780633f68026c14620002af57806342842e0e14620002e55780636352211e14620003135762000146565b806301ffc9a7146200014b57806306fdde03146200018f578063081812fc14620001bf578063095ea7b3146200020357806315751a141462000231575b600080fd5b3480156200015857600080fd5b506200017760048036038101906200017191906200383c565b620005db565b6040516200018691906200388b565b60405180910390f35b3480156200019c57600080fd5b50620001a7620006c1565b604051620001b6919062003942565b60405180910390f35b348015620001cc57600080fd5b50620001eb6004803603810190620001e59190620039a1565b6200075b565b604051620001fa919062003a18565b60405180910390f35b3480156200021057600080fd5b506200022f600480360381019062000229919062003a66565b620007a3565b005b3480156200023e57600080fd5b5062000249620008cb565b60405162000258919062003e5c565b60405180910390f35b3480156200026e57600080fd5b506200028d600480360381019062000287919062003e80565b62000ce4565b005b620002ad6004803603810190620002a7919062003f0d565b62000d4d565b005b620002cd6004803603810190620002c7919062004199565b6200188d565b604051620002dc919062004225565b60405180910390f35b348015620002f257600080fd5b506200031160048036038101906200030b919062003e80565b62001a54565b005b3480156200032057600080fd5b506200033f6004803603810190620003399190620039a1565b62001a76565b6040516200034e919062003a18565b60405180910390f35b3480156200036457600080fd5b506200038360048036038101906200037d919062004242565b62001b01565b60405162000392919062004225565b60405180910390f35b348015620003a857600080fd5b50620003c76004803603810190620003c19190620039a1565b62001bbb565b604051620003d6919062003a18565b60405180910390f35b348015620003ec57600080fd5b506200040b600480360381019062000405919062004274565b62001c00565b005b3480156200041a57600080fd5b506200042562001c4d565b60405162000434919062003942565b60405180910390f35b3480156200044a57600080fd5b50620004696004803603810190620004639190620042ef565b62001ce7565b005b3480156200047857600080fd5b50620004976004803603810190620004919190620043ea565b62001d01565b005b348015620004a657600080fd5b50620004c56004803603810190620004bf91906200447b565b62001d6c565b005b348015620004d457600080fd5b50620004f36004803603810190620004ed9190620039a1565b62001df1565b604051620005069594939291906200456d565b60405180910390f35b3480156200051c57600080fd5b506200053b6004803603810190620005359190620039a1565b62001ffd565b6040516200054a919062003942565b60405180910390f35b3480156200056057600080fd5b506200057f6004803603810190620005799190620039a1565b62002123565b6040516200058e919062004698565b60405180910390f35b348015620005a457600080fd5b50620005c36004803603810190620005bd9190620046bc565b620024c5565b604051620005d291906200388b565b60405180910390f35b60007f80ac58cd000000000000000000000000000000000000000000000000000000007bffffffffffffffffffffffffffffffffffffffffffffffffffffffff1916827bffffffffffffffffffffffffffffffffffffffffffffffffffffffff19161480620006a757507f5b5e139f000000000000000000000000000000000000000000000000000000007bffffffffffffffffffffffffffffffffffffffffffffffffffffffff1916827bffffffffffffffffffffffffffffffffffffffffffffffffffffffff1916145b80620006ba5750620006b98262002559565b5b9050919050565b606060008054620006d29062004732565b80601f0160208091040260200160405190810160405280929190818152602001828054620007009062004732565b8015620007515780601f10620007255761010080835404028352916020019162000751565b820191906000526020600020905b8154815290600101906020018083116200073357829003601f168201915b5050505050905090565b60006200076882620025c3565b6004600083815260200190815260200160002060009054906101000a900473ffffffffffffffffffffffffffffffffffffffff169050919050565b6000620007b08262001a76565b90508073ffffffffffffffffffffffffffffffffffffffff168373ffffffffffffffffffffffffffffffffffffffff160362000823576040517f08c379a00000000000000000000000000000000000000000000000000000000081526004016200081a90620047dd565b60405180910390fd5b8073ffffffffffffffffffffffffffffffffffffffff166200084462002613565b73ffffffffffffffffffffffffffffffffffffffff16148062000878575062000877816200087162002613565b620024c5565b5b620008ba576040517f08c379a0000000000000000000000000000000000000000000000000000000008152600401620008b19062004875565b60405180910390fd5b620008c683836200261b565b505050565b60606000620008db6007620026d6565b90506000808267ffffffffffffffff811115620008fd57620008fc62003f89565b5b6040519080825280602002602001820160405280156200093a57816020015b62000926620036bb565b8152602001906001900390816200091c5790505b50905060005b8381101562000cda5760006001826200095a9190620048c6565b90506000600960008381526020019081526020016000209050806040518061010001604052908160008201548152602001600182015481526020016002820160009054906101000a900473ffffffffffffffffffffffffffffffffffffffff1673ffffffffffffffffffffffffffffffffffffffff1673ffffffffffffffffffffffffffffffffffffffff1681526020016003820160009054906101000a900473ffffffffffffffffffffffffffffffffffffffff1673ffffffffffffffffffffffffffffffffffffffff1673ffffffffffffffffffffffffffffffffffffffff1681526020016003820160149054906101000a900460ff161515151581526020016004820154815260200160058201805462000a779062004732565b80601f016020809104026020016040519081016040528092919081815260200182805462000aa59062004732565b801562000af65780601f1062000aca5761010080835404028352916020019162000af6565b820191906000526020600020905b81548152906001019060200180831162000ad857829003601f168201915b5050505050815260200160068201600480602002604051908101604052809291906000905b8282101562000c89578382600602016040518060e00160405290816000820160009054906101000a900473ffffffffffffffffffffffffffffffffffffffff1673ffffffffffffffffffffffffffffffffffffffff1673ffffffffffffffffffffffffffffffffffffffff168152602001600182015481526020016002820154815260200160038201805462000bb19062004732565b80601f016020809104026020016040519081016040528092919081815260200182805462000bdf9062004732565b801562000c305780601f1062000c045761010080835404028352916020019162000c30565b820191906000526020600020905b81548152906001019060200180831162000c1257829003601f168201915b50505050508152602001600482015481526020016005820160009054906101000a900460ff161515151581526020016005820160019054906101000a900460ff1615151515815250508152602001906001019062000b1b565b505050508152505084868151811062000ca75762000ca662004901565b5b6020026020010181905250848062000cbf9062004930565b9550505050808062000cd19062004930565b91505062000940565b5080935050505090565b62000cf962000cf262002613565b82620026e4565b62000d3b576040517f08c379a000000000000000000000000000000000000000000000000000000000815260040162000d3290620049f3565b60405180910390fd5b62000d4883838362002781565b505050565b60006009600084815260200190815260200160002090508060030160149054906101000a900460ff161562000db9576040517f08c379a000000000000000000000000000000000000000000000000000000000815260040162000db09062004a8b565b60405180910390fd5b600080600080600189036200105b578460060160006004811062000de25762000de162004901565b5b6006020160000160009054906101000a900473ffffffffffffffffffffffffffffffffffffffff1673ffffffffffffffffffffffffffffffffffffffff163373ffffffffffffffffffffffffffffffffffffffff161462000e7a576040517f08c379a000000000000000000000000000000000000000000000000000000000815260040162000e719062004afd565b60405180910390fd5b858560060160006004811062000e955762000e9462004901565b5b6006020160050160006101000a81548160ff02191690831515021790555060008560030160009054906101000a900473ffffffffffffffffffffffffffffffffffffffff169050600115158660060160006004811062000efa5762000ef962004901565b5b6006020160050160009054906101000a900460ff16151503620010595760018660060160006004811062000f335762000f3262004901565b5b6006020160020181905550612710808a62000f4f919062004b4e565b62000f5b919062004b86565b9450848660060160006004811062000f785762000f7762004901565b5b600602016004018190555060008190508073ffffffffffffffffffffffffffffffffffffffff1663fd72b6e9876040518263ffffffff1660e01b815260040162000fc3919062004225565b600060405180830381600087803b15801562000fde57600080fd5b505af115801562000ff3573d6000803e3d6000fd5b50505050428760060160006004811062001012576200101162004901565b5b600602016001018190555060018760060160006004811062001039576200103862004901565b5b6006020160050160016101000a81548160ff021916908315150217905550505b505b600289036200130657846006016001600481106200107e576200107d62004901565b5b6006020160000160009054906101000a900473ffffffffffffffffffffffffffffffffffffffff1673ffffffffffffffffffffffffffffffffffffffff163373ffffffffffffffffffffffffffffffffffffffff161462001116576040517f08c379a00000000000000000000000000000000000000000000000000000000081526004016200110d9062004afd565b60405180910390fd5b858560060160016004811062001131576200113062004901565b5b6006020160050160006101000a81548160ff02191690831515021790555060008560030160009054906101000a900473ffffffffffffffffffffffffffffffffffffffff169050600115158660060160016004811062001196576200119562004901565b5b6006020160050160009054906101000a900460ff161515036200130457600286600601600160048110620011cf57620011ce62004901565b5b6006020160020181905550846127106175308b620011ee919062004b4e565b620011fa919062004b86565b62001206919062004bd1565b9350838660060160016004811062001223576200122262004901565b5b600602016004018190555060008190508073ffffffffffffffffffffffffffffffffffffffff1663fd72b6e9866040518263ffffffff1660e01b81526004016200126e919062004225565b600060405180830381600087803b1580156200128957600080fd5b505af11580156200129e573d6000803e3d6000fd5b505050504287600601600160048110620012bd57620012bc62004901565b5b6006020160010181905550600187600601600160048110620012e457620012e362004901565b5b6006020160050160016101000a81548160ff021916908315150217905550505b505b60038903620015b1578460060160026004811062001329576200132862004901565b5b6006020160000160009054906101000a900473ffffffffffffffffffffffffffffffffffffffff1673ffffffffffffffffffffffffffffffffffffffff163373ffffffffffffffffffffffffffffffffffffffff1614620013c1576040517f08c379a0000000000000000000000000000000000000000000000000000000008152600401620013b89062004afd565b60405180910390fd5b8585600601600260048110620013dc57620013db62004901565b5b6006020160050160006101000a81548160ff02191690831515021790555060008560030160009054906101000a900473ffffffffffffffffffffffffffffffffffffffff169050600115158660060160026004811062001441576200144062004901565b5b6006020160050160009054906101000a900460ff16151503620015af576003866006016002600481106200147a576200147962004901565b5b60060201600201819055508361271061c3508b62001499919062004b4e565b620014a5919062004b86565b620014b1919062004bd1565b93508286600601600260048110620014ce57620014cd62004901565b5b600602016004018190555060008190508073ffffffffffffffffffffffffffffffffffffffff1663fd72b6e9856040518263ffffffff1660e01b815260040162001519919062004225565b600060405180830381600087803b1580156200153457600080fd5b505af115801562001549573d6000803e3d6000fd5b50505050428760060160026004811062001568576200156762004901565b5b60060201600101819055506001876006016002600481106200158f576200158e62004901565b5b6006020160050160016101000a81548160ff021916908315150217905550505b505b60048903620018825784600601600360048110620015d457620015d362004901565b5b6006020160000160009054906101000a900473ffffffffffffffffffffffffffffffffffffffff1673ffffffffffffffffffffffffffffffffffffffff163373ffffffffffffffffffffffffffffffffffffffff16146200166c576040517f08c379a0000000000000000000000000000000000000000000000000000000008152600401620016639062004afd565b60405180910390fd5b858560060160036004811062001687576200168662004901565b5b6006020160050160006101000a81548160ff02191690831515021790555060008560030160009054906101000a900473ffffffffffffffffffffffffffffffffffffffff1690506001151586600601600360048110620016ec57620016eb62004901565b5b6006020160050160009054906101000a900460ff16151503620018805760048660060160026004811062001725576200172462004901565b5b60060201600201819055508284866200173f9190620048c6565b6200174b9190620048c6565b86600101546200175c919062004bd1565b9150818660060160036004811062001779576200177862004901565b5b600602016004018190555060008190508073ffffffffffffffffffffffffffffffffffffffff1663fd72b6e9846040518263ffffffff1660e01b8152600401620017c4919062004225565b600060405180830381600087803b158015620017df57600080fd5b505af1158015620017f4573d6000803e3d6000fd5b50505050428760060160036004811062001813576200181262004901565b5b600602016001018190555042876004018190555060018760060160036004811062001843576200184262004901565b5b6006020160050160016101000a81548160ff02191690831515021790555060018760030160146101000a81548160ff021916908315150217905550505b505b505050505050505050565b6000600860009054906101000a900473ffffffffffffffffffffffffffffffffffffffff1673ffffffffffffffffffffffffffffffffffffffff163373ffffffffffffffffffffffffffffffffffffffff161462001922576040517f08c379a0000000000000000000000000000000000000000000000000000000008152600401620019199062004c5c565b60405180910390fd5b6000604051620019329062003736565b604051809103906000f0801580156200194f573d6000803e3d6000fd5b509050600081905062001963600762002a8b565b6000620019716007620026d6565b90506200197f338262002aa1565b6200198b818862002ccf565b60005b600481101562001a3957858160048110620019ae57620019ad62004901565b5b6020020151600960008481526020019081526020016000206006018260048110620019de57620019dd62004901565b5b6006020160000160006101000a81548173ffffffffffffffffffffffffffffffffffffffff021916908373ffffffffffffffffffffffffffffffffffffffff160217905550808062001a309062004930565b9150506200198e565b5062001a4781878462002d43565b8093505050509392505050565b62001a718383836040518060200160405280600081525062001d01565b505050565b60008062001a848362002eab565b9050600073ffffffffffffffffffffffffffffffffffffffff168173ffffffffffffffffffffffffffffffffffffffff160362001af8576040517f08c379a000000000000000000000000000000000000000000000000000000000815260040162001aef9062004cce565b60405180910390fd5b80915050919050565b60008073ffffffffffffffffffffffffffffffffffffffff168273ffffffffffffffffffffffffffffffffffffffff160362001b74576040517f08c379a000000000000000000000000000000000000000000000000000000000815260040162001b6b9062004d66565b60405180910390fd5b600360008373ffffffffffffffffffffffffffffffffffffffff1673ffffffffffffffffffffffffffffffffffffffff168152602001908152602001600020549050919050565b6000806009600084815260200190815260200160002090508060030160009054906101000a900473ffffffffffffffffffffffffffffffffffffffff16915050919050565b60006009600084815260200190815260200160002090508381600601836004811062001c315762001c3062004901565b5b60060201600301908162001c46919062004f5a565b5050505050565b60606001805462001c5e9062004732565b80601f016020809104026020016040519081016040528092919081815260200182805462001c8c9062004732565b801562001cdd5780601f1062001cb15761010080835404028352916020019162001cdd565b820191906000526020600020905b81548152906001019060200180831162001cbf57829003601f168201915b5050505050905090565b62001cfd62001cf562002613565b838362002ee8565b5050565b62001d1662001d0f62002613565b83620026e4565b62001d58576040517f08c379a000000000000000000000000000000000000000000000000000000000815260040162001d4f90620049f3565b60405180910390fd5b62001d668484848462003059565b50505050565b60006009600083815260200190815260200160002090508060030160149054906101000a900460ff161562001dd8576040517f08c379a000000000000000000000000000000000000000000000000000000000815260040162001dcf9062004a8b565b60405180910390fd5b8281600501908162001deb919062004f5a565b50505050565b60008060008062001e0162003744565b6000600960008881526020019081526020016000209050806000015481600101548260030160009054906101000a900473ffffffffffffffffffffffffffffffffffffffff168360030160149054906101000a900460ff168460060180600480602002604051908101604052809291906000905b8282101562001fe3578382600602016040518060e00160405290816000820160009054906101000a900473ffffffffffffffffffffffffffffffffffffffff1673ffffffffffffffffffffffffffffffffffffffff1673ffffffffffffffffffffffffffffffffffffffff168152602001600182015481526020016002820154815260200160038201805462001f0b9062004732565b80601f016020809104026020016040519081016040528092919081815260200182805462001f399062004732565b801562001f8a5780601f1062001f5e5761010080835404028352916020019162001f8a565b820191906000526020600020905b81548152906001019060200180831162001f6c57829003601f168201915b50505050508152602001600482015481526020016005820160009054906101000a900460ff161515151581526020016005820160019054906101000a900460ff1615151515815250508152602001906001019062001e75565b505050509050955095509550955095505091939590929450565b60606200200a82620025c3565b60006006600084815260200190815260200160002080546200202c9062004732565b80601f01602080910402602001604051908101604052809291908181526020018280546200205a9062004732565b8015620020ab5780601f106200207f57610100808354040283529160200191620020ab565b820191906000526020600020905b8154815290600101906020018083116200208d57829003601f168201915b505050505090506000620020be620030bc565b90506000815103620020d55781925050506200211e565b6000825111156200210e578082604051602001620020f592919062005083565b604051602081830303815290604052925050506200211e565b6200211984620030d3565b925050505b919050565b6200212d620036bb565b6000600960008481526020019081526020016000209050600115158160030160149054906101000a900460ff161515036200219f576040517f08c379a00000000000000000000000000000000000000000000000000000000081526004016200219690620050fb565b60405180910390fd5b806040518061010001604052908160008201548152602001600182015481526020016002820160009054906101000a900473ffffffffffffffffffffffffffffffffffffffff1673ffffffffffffffffffffffffffffffffffffffff1673ffffffffffffffffffffffffffffffffffffffff1681526020016003820160009054906101000a900473ffffffffffffffffffffffffffffffffffffffff1673ffffffffffffffffffffffffffffffffffffffff1673ffffffffffffffffffffffffffffffffffffffff1681526020016003820160149054906101000a900460ff1615151515815260200160048201548152602001600582018054620022a39062004732565b80601f0160208091040260200160405190810160405280929190818152602001828054620022d19062004732565b8015620023225780601f10620022f65761010080835404028352916020019162002322565b820191906000526020600020905b8154815290600101906020018083116200230457829003601f168201915b5050505050815260200160068201600480602002604051908101604052809291906000905b82821015620024b5578382600602016040518060e00160405290816000820160009054906101000a900473ffffffffffffffffffffffffffffffffffffffff1673ffffffffffffffffffffffffffffffffffffffff1673ffffffffffffffffffffffffffffffffffffffff1681526020016001820154815260200160028201548152602001600382018054620023dd9062004732565b80601f01602080910402602001604051908101604052809291908181526020018280546200240b9062004732565b80156200245c5780601f1062002430576101008083540402835291602001916200245c565b820191906000526020600020905b8154815290600101906020018083116200243e57829003601f168201915b50505050508152602001600482015481526020016005820160009054906101000a900460ff161515151581526020016005820160019054906101000a900460ff1615151515815250508152602001906001019062002347565b5050505081525050915050919050565b6000600560008473ffffffffffffffffffffffffffffffffffffffff1673ffffffffffffffffffffffffffffffffffffffff16815260200190815260200160002060008373ffffffffffffffffffffffffffffffffffffffff1673ffffffffffffffffffffffffffffffffffffffff16815260200190815260200160002060009054906101000a900460ff16905092915050565b60007f01ffc9a7000000000000000000000000000000000000000000000000000000007bffffffffffffffffffffffffffffffffffffffffffffffffffffffff1916827bffffffffffffffffffffffffffffffffffffffffffffffffffffffff1916149050919050565b620025ce8162003145565b62002610576040517f08c379a0000000000000000000000000000000000000000000000000000000008152600401620026079062004cce565b60405180910390fd5b50565b600033905090565b816004600083815260200190815260200160002060006101000a81548173ffffffffffffffffffffffffffffffffffffffff021916908373ffffffffffffffffffffffffffffffffffffffff160217905550808273ffffffffffffffffffffffffffffffffffffffff16620026908362001a76565b73ffffffffffffffffffffffffffffffffffffffff167f8c5be1e5ebec7d5bd14f71427d1e84f3dd0314c0f7b2291e5b200ac8c7c3b92560405160405180910390a45050565b600081600001549050919050565b600080620026f28362001a76565b90508073ffffffffffffffffffffffffffffffffffffffff168473ffffffffffffffffffffffffffffffffffffffff161480620027375750620027368185620024c5565b5b806200277857508373ffffffffffffffffffffffffffffffffffffffff1662002760846200075b565b73ffffffffffffffffffffffffffffffffffffffff16145b91505092915050565b8273ffffffffffffffffffffffffffffffffffffffff16620027a38262001a76565b73ffffffffffffffffffffffffffffffffffffffff1614620027fc576040517f08c379a0000000000000000000000000000000000000000000000000000000008152600401620027f39062005193565b60405180910390fd5b600073ffffffffffffffffffffffffffffffffffffffff168273ffffffffffffffffffffffffffffffffffffffff16036200286e576040517f08c379a000000000000000000000000000000000000000000000000000000000815260040162002865906200522b565b60405180910390fd5b6200287d838383600162003188565b8273ffffffffffffffffffffffffffffffffffffffff166200289f8262001a76565b73ffffffffffffffffffffffffffffffffffffffff1614620028f8576040517f08c379a0000000000000000000000000000000000000000000000000000000008152600401620028ef9062005193565b60405180910390fd5b6004600082815260200190815260200160002060006101000a81549073ffffffffffffffffffffffffffffffffffffffff02191690556001600360008573ffffffffffffffffffffffffffffffffffffffff1673ffffffffffffffffffffffffffffffffffffffff168152602001908152602001600020600082825403925050819055506001600360008473ffffffffffffffffffffffffffffffffffffffff1673ffffffffffffffffffffffffffffffffffffffff16815260200190815260200160002060008282540192505081905550816002600083815260200190815260200160002060006101000a81548173ffffffffffffffffffffffffffffffffffffffff021916908373ffffffffffffffffffffffffffffffffffffffff160217905550808273ffffffffffffffffffffffffffffffffffffffff168473ffffffffffffffffffffffffffffffffffffffff167fddf252ad1be2c89b69c2b068fc378daa952ba7f163c4a11628f55a4df523b3ef60405160405180910390a462002a868383836001620032b5565b505050565b6001816000016000828254019250508190555050565b600073ffffffffffffffffffffffffffffffffffffffff168273ffffffffffffffffffffffffffffffffffffffff160362002b13576040517f08c379a000000000000000000000000000000000000000000000000000000000815260040162002b0a906200529d565b60405180910390fd5b62002b1e8162003145565b1562002b61576040517f08c379a000000000000000000000000000000000000000000000000000000000815260040162002b58906200530f565b60405180910390fd5b62002b7160008383600162003188565b62002b7c8162003145565b1562002bbf576040517f08c379a000000000000000000000000000000000000000000000000000000000815260040162002bb6906200530f565b60405180910390fd5b6001600360008473ffffffffffffffffffffffffffffffffffffffff1673ffffffffffffffffffffffffffffffffffffffff16815260200190815260200160002060008282540192505081905550816002600083815260200190815260200160002060006101000a81548173ffffffffffffffffffffffffffffffffffffffff021916908373ffffffffffffffffffffffffffffffffffffffff160217905550808273ffffffffffffffffffffffffffffffffffffffff16600073ffffffffffffffffffffffffffffffffffffffff167fddf252ad1be2c89b69c2b068fc378daa952ba7f163c4a11628f55a4df523b3ef60405160405180910390a462002ccb600083836001620032b5565b5050565b62002cda8262003145565b62002d1c576040517f08c379a000000000000000000000000000000000000000000000000000000000815260040162002d1390620053a7565b60405180910390fd5b8060066000848152602001908152602001600020908162002d3e919062004f5a565b505050565b6000821162002d89576040517f08c379a000000000000000000000000000000000000000000000000000000000815260040162002d809062005419565b60405180910390fd5b826009600085815260200190815260200160002060000181905550816009600085815260200190815260200160002060010181905550426009600085815260200190815260200160002060040181905550806009600085815260200190815260200160002060030160006101000a81548173ffffffffffffffffffffffffffffffffffffffff021916908373ffffffffffffffffffffffffffffffffffffffff160217905550600860009054906101000a900473ffffffffffffffffffffffffffffffffffffffff166009600085815260200190815260200160002060020160006101000a81548173ffffffffffffffffffffffffffffffffffffffff021916908373ffffffffffffffffffffffffffffffffffffffff160217905550505050565b60006002600083815260200190815260200160002060009054906101000a900473ffffffffffffffffffffffffffffffffffffffff169050919050565b8173ffffffffffffffffffffffffffffffffffffffff168373ffffffffffffffffffffffffffffffffffffffff160362002f59576040517f08c379a000000000000000000000000000000000000000000000000000000000815260040162002f50906200548b565b60405180910390fd5b80600560008573ffffffffffffffffffffffffffffffffffffffff1673ffffffffffffffffffffffffffffffffffffffff16815260200190815260200160002060008473ffffffffffffffffffffffffffffffffffffffff1673ffffffffffffffffffffffffffffffffffffffff16815260200190815260200160002060006101000a81548160ff0219169083151502179055508173ffffffffffffffffffffffffffffffffffffffff168373ffffffffffffffffffffffffffffffffffffffff167f17307eab39ab6107e8899845ad3d59bd9653f200f220920489ca2b5937696c31836040516200304c91906200388b565b60405180910390a3505050565b6200306684848462002781565b6200307484848484620032bb565b620030b6576040517f08c379a0000000000000000000000000000000000000000000000000000000008152600401620030ad9062005523565b60405180910390fd5b50505050565b606060405180602001604052806000815250905090565b6060620030e082620025c3565b6000620030ec620030bc565b905060008151116200310e57604051806020016040528060008152506200313d565b806200311a8462003453565b6040516020016200312d92919062005083565b6040516020818303038152906040525b915050919050565b60008073ffffffffffffffffffffffffffffffffffffffff16620031698362002eab565b73ffffffffffffffffffffffffffffffffffffffff1614159050919050565b6001811115620032af57600073ffffffffffffffffffffffffffffffffffffffff168473ffffffffffffffffffffffffffffffffffffffff1614620032205780600360008673ffffffffffffffffffffffffffffffffffffffff1673ffffffffffffffffffffffffffffffffffffffff168152602001908152602001600020600082825462003218919062004bd1565b925050819055505b600073ffffffffffffffffffffffffffffffffffffffff168373ffffffffffffffffffffffffffffffffffffffff1614620032ae5780600360008573ffffffffffffffffffffffffffffffffffffffff1673ffffffffffffffffffffffffffffffffffffffff1681526020019081526020016000206000828254620032a69190620048c6565b925050819055505b5b50505050565b50505050565b6000620032de8473ffffffffffffffffffffffffffffffffffffffff166200352c565b1562003446578373ffffffffffffffffffffffffffffffffffffffff1663150b7a026200330a62002613565b8786866040518563ffffffff1660e01b81526004016200332e9493929190620055a2565b6020604051808303816000875af19250505080156200336d57506040513d601f19601f820116820180604052508101906200336a91906200560d565b60015b620033f5573d8060008114620033a0576040519150601f19603f3d011682016040523d82523d6000602084013e620033a5565b606091505b506000815103620033ed576040517f08c379a0000000000000000000000000000000000000000000000000000000008152600401620033e49062005523565b60405180910390fd5b805181602001fd5b63150b7a0260e01b7bffffffffffffffffffffffffffffffffffffffffffffffffffffffff1916817bffffffffffffffffffffffffffffffffffffffffffffffffffffffff1916149150506200344b565b600190505b949350505050565b60606000600162003464846200354f565b01905060008167ffffffffffffffff81111562003486576200348562003f89565b5b6040519080825280601f01601f191660200182016040528015620034b95781602001600182028036833780820191505090505b509050600082602001820190505b60011562003521578080600190039150507f3031323334353637383961626364656600000000000000000000000000000000600a86061a8153600a858162003514576200351362004b1f565b5b04945060008503620034c7575b819350505050919050565b6000808273ffffffffffffffffffffffffffffffffffffffff163b119050919050565b600080600090507a184f03e93ff9f4daa797ed6e38ed64bf6a1f0100000000000000008310620035b1577a184f03e93ff9f4daa797ed6e38ed64bf6a1f0100000000000000008381620035a757620035a662004b1f565b5b0492506040810190505b6d04ee2d6d415b85acef81000000008310620035f2576d04ee2d6d415b85acef81000000008381620035e857620035e762004b1f565b5b0492506020810190505b662386f26fc1000083106200362557662386f26fc1000083816200361b576200361a62004b1f565b5b0492506010810190505b6305f5e100831062003652576305f5e100838162003648576200364762004b1f565b5b0492506008810190505b61271083106200367b57612710838162003671576200367062004b1f565b5b0492506004810190505b60648310620036a2576064838162003698576200369762004b1f565b5b0492506002810190505b600a8310620036b2576001810190505b80915050919050565b6040518061010001604052806000815260200160008152602001600073ffffffffffffffffffffffffffffffffffffffff168152602001600073ffffffffffffffffffffffffffffffffffffffff16815260200160001515815260200160008152602001606081526020016200373062003744565b81525090565b6101bb806200564083390190565b60405180608001604052806004905b6200375d62003774565b815260200190600190039081620037535790505090565b6040518060e00160405280600073ffffffffffffffffffffffffffffffffffffffff168152602001600081526020016000815260200160608152602001600081526020016000151581526020016000151581525090565b6000604051905090565b600080fd5b600080fd5b60007fffffffff0000000000000000000000000000000000000000000000000000000082169050919050565b6200381681620037df565b81146200382257600080fd5b50565b60008135905062003836816200380b565b92915050565b600060208284031215620038555762003854620037d5565b5b6000620038658482850162003825565b91505092915050565b60008115159050919050565b62003885816200386e565b82525050565b6000602082019050620038a260008301846200387a565b92915050565b600081519050919050565b600082825260208201905092915050565b60005b83811015620038e4578082015181840152602081019050620038c7565b60008484015250505050565b6000601f19601f8301169050919050565b60006200390e82620038a8565b6200391a8185620038b3565b93506200392c818560208601620038c4565b6200393781620038f0565b840191505092915050565b600060208201905081810360008301526200395e818462003901565b905092915050565b6000819050919050565b6200397b8162003966565b81146200398757600080fd5b50565b6000813590506200399b8162003970565b92915050565b600060208284031215620039ba57620039b9620037d5565b5b6000620039ca848285016200398a565b91505092915050565b600073ffffffffffffffffffffffffffffffffffffffff82169050919050565b600062003a0082620039d3565b9050919050565b62003a1281620039f3565b82525050565b600060208201905062003a2f600083018462003a07565b92915050565b62003a4081620039f3565b811462003a4c57600080fd5b50565b60008135905062003a608162003a35565b92915050565b6000806040838503121562003a805762003a7f620037d5565b5b600062003a908582860162003a4f565b925050602062003aa3858286016200398a565b9150509250929050565b600081519050919050565b600082825260208201905092915050565b6000819050602082019050919050565b62003ae48162003966565b82525050565b600062003af782620039d3565b9050919050565b62003b098162003aea565b82525050565b62003b1a81620039f3565b82525050565b62003b2b816200386e565b82525050565b600082825260208201905092915050565b600062003b4f82620038a8565b62003b5b818562003b31565b935062003b6d818560208601620038c4565b62003b7881620038f0565b840191505092915050565b600060049050919050565b600081905092915050565b6000819050919050565b600060e08301600083015162003bbd600086018262003b0f565b50602083015162003bd2602086018262003ad9565b50604083015162003be7604086018262003ad9565b506060830151848203606086015262003c01828262003b42565b915050608083015162003c18608086018262003ad9565b5060a083015162003c2d60a086018262003b20565b5060c083015162003c4260c086018262003b20565b508091505092915050565b600062003c5b838362003ba3565b905092915050565b6000602082019050919050565b600062003c7d8262003b83565b62003c89818562003b8e565b93508360208202850162003c9d8562003b99565b8060005b8581101562003cdf578484038952815162003cbd858262003c4d565b945062003cca8362003c63565b925060208a0199505060018101905062003ca1565b50829750879550505050505092915050565b60006101008301600083015162003d0c600086018262003ad9565b50602083015162003d21602086018262003ad9565b50604083015162003d36604086018262003afe565b50606083015162003d4b606086018262003b0f565b50608083015162003d60608086018262003b20565b5060a083015162003d7560a086018262003ad9565b5060c083015184820360c086015262003d8f828262003b42565b91505060e083015184820360e086015262003dab828262003c70565b9150508091505092915050565b600062003dc6838362003cf1565b905092915050565b6000602082019050919050565b600062003de88262003aad565b62003df4818562003ab8565b93508360208202850162003e088562003ac9565b8060005b8581101562003e4a578484038952815162003e28858262003db8565b945062003e358362003dce565b925060208a0199505060018101905062003e0c565b50829750879550505050505092915050565b6000602082019050818103600083015262003e78818462003ddb565b905092915050565b60008060006060848603121562003e9c5762003e9b620037d5565b5b600062003eac8682870162003a4f565b935050602062003ebf8682870162003a4f565b925050604062003ed2868287016200398a565b9150509250925092565b62003ee7816200386e565b811462003ef357600080fd5b50565b60008135905062003f078162003edc565b92915050565b6000806000806080858703121562003f2a5762003f29620037d5565b5b600062003f3a878288016200398a565b945050602062003f4d878288016200398a565b935050604062003f60878288016200398a565b925050606062003f738782880162003ef6565b91505092959194509250565b600080fd5b600080fd5b7f4e487b7100000000000000000000000000000000000000000000000000000000600052604160045260246000fd5b62003fc382620038f0565b810181811067ffffffffffffffff8211171562003fe55762003fe462003f89565b5b80604052505050565b600062003ffa620037cb565b905062004008828262003fb8565b919050565b600067ffffffffffffffff8211156200402b576200402a62003f89565b5b6200403682620038f0565b9050602081019050919050565b82818337600083830152505050565b60006200406962004063846200400d565b62003fee565b90508281526020810184848401111562004088576200408762003f84565b5b6200409584828562004043565b509392505050565b600082601f830112620040b557620040b462003f7f565b5b8135620040c784826020860162004052565b91505092915050565b600067ffffffffffffffff821115620040ee57620040ed62003f89565b5b602082029050919050565b600080fd5b6000620041156200410f84620040d0565b62003fee565b90508060208402830185811115620041325762004131620040f9565b5b835b818110156200415f57806200414a888262003a4f565b84526020840193505060208101905062004134565b5050509392505050565b600082601f83011262004181576200418062003f7f565b5b600462004190848285620040fe565b91505092915050565b600080600060c08486031215620041b557620041b4620037d5565b5b600084013567ffffffffffffffff811115620041d657620041d5620037da565b5b620041e4868287016200409d565b9350506020620041f7868287016200398a565b92505060406200420a8682870162004169565b9150509250925092565b6200421f8162003966565b82525050565b60006020820190506200423c600083018462004214565b92915050565b6000602082840312156200425b576200425a620037d5565b5b60006200426b8482850162003a4f565b91505092915050565b60008060006060848603121562004290576200428f620037d5565b5b600084013567ffffffffffffffff811115620042b157620042b0620037da565b5b620042bf868287016200409d565b9350506020620042d2868287016200398a565b9250506040620042e5868287016200398a565b9150509250925092565b60008060408385031215620043095762004308620037d5565b5b6000620043198582860162003a4f565b92505060206200432c8582860162003ef6565b9150509250929050565b600067ffffffffffffffff82111562004354576200435362003f89565b5b6200435f82620038f0565b9050602081019050919050565b6000620043836200437d8462004336565b62003fee565b905082815260208101848484011115620043a257620043a162003f84565b5b620043af84828562004043565b509392505050565b600082601f830112620043cf57620043ce62003f7f565b5b8135620043e18482602086016200436c565b91505092915050565b60008060008060808587031215620044075762004406620037d5565b5b6000620044178782880162003a4f565b94505060206200442a8782880162003a4f565b93505060406200443d878288016200398a565b925050606085013567ffffffffffffffff811115620044615762004460620037da565b5b6200446f87828801620043b7565b91505092959194509250565b60008060408385031215620044955762004494620037d5565b5b600083013567ffffffffffffffff811115620044b657620044b5620037da565b5b620044c4858286016200409d565b9250506020620044d7858286016200398a565b9150509250929050565b600081905092915050565b6000620044f98262003b83565b620045058185620044e1565b935083602082028501620045198562003b99565b8060005b858110156200455b578484038952815162004539858262003c4d565b9450620045468362003c63565b925060208a019950506001810190506200451d565b50829750879550505050505092915050565b600060a08201905062004584600083018862004214565b62004593602083018762004214565b620045a2604083018662003a07565b620045b160608301856200387a565b8181036080830152620045c58184620044ec565b90509695505050505050565b600061010083016000830151620045ec600086018262003ad9565b50602083015162004601602086018262003ad9565b50604083015162004616604086018262003afe565b5060608301516200462b606086018262003b0f565b50608083015162004640608086018262003b20565b5060a08301516200465560a086018262003ad9565b5060c083015184820360c08601526200466f828262003b42565b91505060e083015184820360e08601526200468b828262003c70565b9150508091505092915050565b60006020820190508181036000830152620046b48184620045d1565b905092915050565b60008060408385031215620046d657620046d5620037d5565b5b6000620046e68582860162003a4f565b9250506020620046f98582860162003a4f565b9150509250929050565b7f4e487b7100000000000000000000000000000000000000000000000000000000600052602260045260246000fd5b600060028204905060018216806200474b57607f821691505b60208210810362004761576200476062004703565b5b50919050565b7f4552433732313a20617070726f76616c20746f2063757272656e74206f776e6560008201527f7200000000000000000000000000000000000000000000000000000000000000602082015250565b6000620047c5602183620038b3565b9150620047d28262004767565b604082019050919050565b60006020820190508181036000830152620047f881620047b6565b9050919050565b7f4552433732313a20617070726f76652063616c6c6572206973206e6f7420746f60008201527f6b656e206f776e6572206f7220617070726f76656420666f7220616c6c000000602082015250565b60006200485d603d83620038b3565b91506200486a82620047ff565b604082019050919050565b6000602082019050818103600083015262004890816200484e565b9050919050565b7f4e487b7100000000000000000000000000000000000000000000000000000000600052601160045260246000fd5b6000620048d38262003966565b9150620048e08362003966565b9250828201905080821115620048fb57620048fa62004897565b5b92915050565b7f4e487b7100000000000000000000000000000000000000000000000000000000600052603260045260246000fd5b60006200493d8262003966565b91507fffffffffffffffffffffffffffffffffffffffffffffffffffffffffffffffff820362004972576200497162004897565b5b600182019050919050565b7f4552433732313a2063616c6c6572206973206e6f7420746f6b656e206f776e6560008201527f72206f7220617070726f76656400000000000000000000000000000000000000602082015250565b6000620049db602d83620038b3565b9150620049e8826200497d565b604082019050919050565b6000602082019050818103600083015262004a0e81620049cc565b9050919050565b7f46696e616c20696e766f69636520697320616c72656164792067656e6572617460008201527f65642e0000000000000000000000000000000000000000000000000000000000602082015250565b600062004a73602383620038b3565b915062004a808262004a15565b604082019050919050565b6000602082019050818103600083015262004aa68162004a64565b9050919050565b7f61646472657373206973206e6f7420617070726f7665722e0000000000000000600082015250565b600062004ae5601883620038b3565b915062004af28262004aad565b602082019050919050565b6000602082019050818103600083015262004b188162004ad6565b9050919050565b7f4e487b7100000000000000000000000000000000000000000000000000000000600052601260045260246000fd5b600062004b5b8262003966565b915062004b688362003966565b92508262004b7b5762004b7a62004b1f565b5b828204905092915050565b600062004b938262003966565b915062004ba08362003966565b925082820262004bb08162003966565b9150828204841483151762004bca5762004bc962004897565b5b5092915050565b600062004bde8262003966565b915062004beb8362003966565b925082820390508181111562004c065762004c0562004897565b5b92915050565b7f4e6f74206f776e65720000000000000000000000000000000000000000000000600082015250565b600062004c44600983620038b3565b915062004c518262004c0c565b602082019050919050565b6000602082019050818103600083015262004c778162004c35565b9050919050565b7f4552433732313a20696e76616c696420746f6b656e2049440000000000000000600082015250565b600062004cb6601883620038b3565b915062004cc38262004c7e565b602082019050919050565b6000602082019050818103600083015262004ce98162004ca7565b9050919050565b7f4552433732313a2061646472657373207a65726f206973206e6f74206120766160008201527f6c6964206f776e65720000000000000000000000000000000000000000000000602082015250565b600062004d4e602983620038b3565b915062004d5b8262004cf0565b604082019050919050565b6000602082019050818103600083015262004d818162004d3f565b9050919050565b60008190508160005260206000209050919050565b60006020601f8301049050919050565b600082821b905092915050565b60006008830262004dec7fffffffffffffffffffffffffffffffffffffffffffffffffffffffffffffffff8262004dad565b62004df8868362004dad565b95508019841693508086168417925050509392505050565b6000819050919050565b600062004e3b62004e3562004e2f8462003966565b62004e10565b62003966565b9050919050565b6000819050919050565b62004e578362004e1a565b62004e6f62004e668262004e42565b84845462004dba565b825550505050565b600090565b62004e8662004e77565b62004e9381848462004e4c565b505050565b5b8181101562004ebb5762004eaf60008262004e7c565b60018101905062004e99565b5050565b601f82111562004f0a5762004ed48162004d88565b62004edf8462004d9d565b8101602085101562004eef578190505b62004f0762004efe8562004d9d565b83018262004e98565b50505b505050565b600082821c905092915050565b600062004f2f6000198460080262004f0f565b1980831691505092915050565b600062004f4a838362004f1c565b9150826002028217905092915050565b62004f6582620038a8565b67ffffffffffffffff81111562004f815762004f8062003f89565b5b62004f8d825462004732565b62004f9a82828562004ebf565b600060209050601f83116001811462004fd2576000841562004fbd578287015190505b62004fc9858262004f3c565b86555062005039565b601f19841662004fe28662004d88565b60005b828110156200500c5784890151825560018201915060208501945060208101905062004fe5565b868310156200502c578489015162005028601f89168262004f1c565b8355505b6001600288020188555050505b505050505050565b600081905092915050565b60006200505982620038a8565b62005065818562005041565b935062005077818560208601620038c4565b80840191505092915050565b60006200509182856200504c565b91506200509f82846200504c565b91508190509392505050565b7f496e766f696365206973206e6f742066756c6c7920636f6d706c657465642e00600082015250565b6000620050e3601f83620038b3565b9150620050f082620050ab565b602082019050919050565b600060208201905081810360008301526200511681620050d4565b9050919050565b7f4552433732313a207472616e736665722066726f6d20696e636f72726563742060008201527f6f776e6572000000000000000000000000000000000000000000000000000000602082015250565b60006200517b602583620038b3565b915062005188826200511d565b604082019050919050565b60006020820190508181036000830152620051ae816200516c565b9050919050565b7f4552433732313a207472616e7366657220746f20746865207a65726f2061646460008201527f7265737300000000000000000000000000000000000000000000000000000000602082015250565b600062005213602483620038b3565b91506200522082620051b5565b604082019050919050565b60006020820190508181036000830152620052468162005204565b9050919050565b7f4552433732313a206d696e7420746f20746865207a65726f2061646472657373600082015250565b600062005285602083620038b3565b915062005292826200524d565b602082019050919050565b60006020820190508181036000830152620052b88162005276565b9050919050565b7f4552433732313a20746f6b656e20616c7265616479206d696e74656400000000600082015250565b6000620052f7601c83620038b3565b91506200530482620052bf565b602082019050919050565b600060208201905081810360008301526200532a81620052e8565b9050919050565b7f45524337323155524953746f726167653a2055524920736574206f66206e6f6e60008201527f6578697374656e7420746f6b656e000000000000000000000000000000000000602082015250565b60006200538f602e83620038b3565b91506200539c8262005331565b604082019050919050565b60006020820190508181036000830152620053c28162005380565b9050919050565b7f73686970696e67466565206973207a65726f2e00000000000000000000000000600082015250565b600062005401601383620038b3565b91506200540e82620053c9565b602082019050919050565b600060208201905081810360008301526200543481620053f2565b9050919050565b7f4552433732313a20617070726f766520746f2063616c6c657200000000000000600082015250565b600062005473601983620038b3565b915062005480826200543b565b602082019050919050565b60006020820190508181036000830152620054a68162005464565b9050919050565b7f4552433732313a207472616e7366657220746f206e6f6e20455243373231526560008201527f63656976657220696d706c656d656e7465720000000000000000000000000000602082015250565b60006200550b603283620038b3565b91506200551882620054ad565b604082019050919050565b600060208201905081810360008301526200553e81620054fc565b9050919050565b600081519050919050565b600082825260208201905092915050565b60006200556e8262005545565b6200557a818562005550565b93506200558c818560208601620038c4565b6200559781620038f0565b840191505092915050565b6000608082019050620055b9600083018762003a07565b620055c8602083018662003a07565b620055d7604083018562004214565b8181036060830152620055eb818462005561565b905095945050505050565b60008151905062005607816200380b565b92915050565b600060208284031215620056265762005625620037d5565b5b60006200563684828501620055f6565b9150509291505056fe60806040527322b6dd4d6d818e2ebce3d2e009a249f8fbf4e9656000806101000a81548173ffffffffffffffffffffffffffffffffffffffff021916908373ffffffffffffffffffffffffffffffffffffffff16021790555034801561006457600080fd5b50610147806100746000396000f3fe60806040526004361061001e5760003560e01c8063fd72b6e914610023575b600080fd5b61003d600480360381019061003891906100e4565b61003f565b005b60008054906101000a900473ffffffffffffffffffffffffffffffffffffffff1673ffffffffffffffffffffffffffffffffffffffff166108fc829081150290604051600060405180830381858888f193505050501580156100a5573d6000803e3d6000fd5b5050565b600080fd5b6000819050919050565b6100c1816100ae565b81146100cc57600080fd5b50565b6000813590506100de816100b8565b92915050565b6000602082840312156100fa576100f96100a9565b5b6000610108848285016100cf565b9150509291505056fea26469706673582212204919bacb212ce844dc5c13b52a718bb72a13ad3967adc36f2a185b50fc371e4864736f6c63430008110033a26469706673582212200b3f6641fe28fcfdb7133b83b5e6b6f271579958e7bf99b674358dbe5f31881564736f6c63430008110033",
  "linkReferences": {},
  "deployedLinkReferences": {}
}