{
  "_format": "hh-sol-artifact-1",
  "contractName": "Invoice",
  "sourceName": "contracts/Invoice.sol",
  "abi": [
    {
      "inputs": [],
      "stateMutability": "nonpayable",
      "type": "constructor"
    },
    {
      "anonymous": false,
      "inputs": [
        {
          "indexed": true,
          "internalType": "address",
          "name": "owner",
          "type": "address"
        },
        {
          "indexed": true,
          "internalType": "address",
          "name": "approved",
          "type": "address"
        },
        {
          "indexed": true,
          "internalType": "uint256",
          "name": "tokenId",
          "type": "uint256"
        }
      ],
      "name": "Approval",
      "type": "event"
    },
    {
      "anonymous": false,
      "inputs": [
        {
          "indexed": true,
          "internalType": "address",
          "name": "owner",
          "type": "address"
        },
        {
          "indexed": true,
          "internalType": "address",
          "name": "operator",
          "type": "address"
        },
        {
          "indexed": false,
          "internalType": "bool",
          "name": "approved",
          "type": "bool"
        }
      ],
      "name": "ApprovalForAll",
      "type": "event"
    },
    {
      "anonymous": false,
      "inputs": [
        {
          "indexed": true,
          "internalType": "address",
          "name": "from",
          "type": "address"
        },
        {
          "indexed": true,
          "internalType": "address",
          "name": "to",
          "type": "address"
        },
        {
          "indexed": true,
          "internalType": "uint256",
          "name": "tokenId",
          "type": "uint256"
        }
      ],
      "name": "Transfer",
      "type": "event"
    },
    {
      "inputs": [
        {
          "internalType": "address",
          "name": "to",
          "type": "address"
        },
        {
          "internalType": "uint256",
          "name": "tokenId",
          "type": "uint256"
        }
      ],
      "name": "approve",
      "outputs": [],
      "stateMutability": "nonpayable",
      "type": "function"
    },
    {
      "inputs": [
        {
          "internalType": "address",
          "name": "owner",
          "type": "address"
        }
      ],
      "name": "balanceOf",
      "outputs": [
        {
          "internalType": "uint256",
          "name": "",
          "type": "uint256"
        }
      ],
      "stateMutability": "view",
      "type": "function"
    },
    {
      "inputs": [
        {
          "internalType": "address",
          "name": "addr",
          "type": "address"
        }
      ],
      "name": "callFactory",
      "outputs": [
        {
          "internalType": "address",
          "name": "",
          "type": "address"
        }
      ],
      "stateMutability": "nonpayable",
      "type": "function"
    },
    {
      "inputs": [
        {
          "internalType": "string",
          "name": "metaDataURI",
          "type": "string"
        },
        {
          "internalType": "uint256",
          "name": "shipingFee",
          "type": "uint256"
        },
        {
          "internalType": "address[4]",
          "name": "approverAdd",
          "type": "address[4]"
        }
      ],
      "name": "createInvoiceToken",
      "outputs": [
        {
          "internalType": "uint256",
          "name": "",
          "type": "uint256"
        }
      ],
      "stateMutability": "payable",
      "type": "function"
    },
    {
      "inputs": [
        {
          "internalType": "uint256",
          "name": "milestoneID",
          "type": "uint256"
        },
        {
          "internalType": "uint256",
          "name": "shipingFee",
          "type": "uint256"
        },
        {
          "internalType": "uint256",
          "name": "invoiceID",
          "type": "uint256"
        },
        {
          "internalType": "bool",
          "name": "isOkay",
          "type": "bool"
        }
      ],
      "name": "createMilestoneTransaction",
      "outputs": [],
      "stateMutability": "payable",
      "type": "function"
    },
    {
      "inputs": [],
      "name": "fetchInvoices",
      "outputs": [
        {
          "components": [
            {
              "internalType": "uint256",
              "name": "invoiceID",
              "type": "uint256"
            },
            {
              "internalType": "uint256",
              "name": "shipingFee",
              "type": "uint256"
            },
            {
              "internalType": "address payable",
              "name": "invoiceOwner",
              "type": "address"
            },
            {
              "internalType": "address",
              "name": "escrowContractAddress",
              "type": "address"
            },
            {
              "internalType": "bool",
              "name": "isCompleted",
              "type": "bool"
            },
            {
              "internalType": "uint256",
              "name": "timeStamp",
              "type": "uint256"
            },
            {
              "internalType": "string",
              "name": "pdfURI",
              "type": "string"
            },
            {
              "components": [
                {
                  "internalType": "address",
                  "name": "approverAddress",
                  "type": "address"
                },
                {
                  "internalType": "uint256",
                  "name": "approveTimeStamp",
                  "type": "uint256"
                },
                {
                  "internalType": "uint256",
                  "name": "atWhichMilestone",
                  "type": "uint256"
                },
                {
                  "internalType": "string",
                  "name": "transactionHash",
                  "type": "string"
                },
                {
                  "internalType": "uint256",
                  "name": "amount",
                  "type": "uint256"
                },
                {
                  "internalType": "bool",
                  "name": "isOkay",
                  "type": "bool"
                },
                {
                  "internalType": "bool",
                  "name": "isDone",
                  "type": "bool"
                }
              ],
              "internalType": "struct Invoice.milestoneData[4]",
              "name": "milestoneArray",
              "type": "tuple[4]"
            }
          ],
          "internalType": "struct Invoice.InvoiceNFT[]",
          "name": "",
          "type": "tuple[]"
        }
      ],
      "stateMutability": "view",
      "type": "function"
    },
    {
      "inputs": [
        {
          "internalType": "uint256",
          "name": "invoiceID",
          "type": "uint256"
        }
      ],
      "name": "fetchSingleInvoice",
      "outputs": [
        {
          "components": [
            {
              "internalType": "uint256",
              "name": "invoiceID",
              "type": "uint256"
            },
            {
              "internalType": "uint256",
              "name": "shipingFee",
              "type": "uint256"
            },
            {
              "internalType": "address payable",
              "name": "invoiceOwner",
              "type": "address"
            },
            {
              "internalType": "address",
              "name": "escrowContractAddress",
              "type": "address"
            },
            {
              "internalType": "bool",
              "name": "isCompleted",
              "type": "bool"
            },
            {
              "internalType": "uint256",
              "name": "timeStamp",
              "type": "uint256"
            },
            {
              "internalType": "string",
              "name": "pdfURI",
              "type": "string"
            },
            {
              "components": [
                {
                  "internalType": "address",
                  "name": "approverAddress",
                  "type": "address"
                },
                {
                  "internalType": "uint256",
                  "name": "approveTimeStamp",
                  "type": "uint256"
                },
                {
                  "internalType": "uint256",
                  "name": "atWhichMilestone",
                  "type": "uint256"
                },
                {
                  "internalType": "string",
                  "name": "transactionHash",
                  "type": "string"
                },
                {
                  "internalType": "uint256",
                  "name": "amount",
                  "type": "uint256"
                },
                {
                  "internalType": "bool",
                  "name": "isOkay",
                  "type": "bool"
                },
                {
                  "internalType": "bool",
                  "name": "isDone",
                  "type": "bool"
                }
              ],
              "internalType": "struct Invoice.milestoneData[4]",
              "name": "milestoneArray",
              "type": "tuple[4]"
            }
          ],
          "internalType": "struct Invoice.InvoiceNFT",
          "name": "",
          "type": "tuple"
        }
      ],
      "stateMutability": "view",
      "type": "function"
    },
    {
      "inputs": [
        {
          "internalType": "uint256",
          "name": "tokenId",
          "type": "uint256"
        }
      ],
      "name": "getApproved",
      "outputs": [
        {
          "internalType": "address",
          "name": "",
          "type": "address"
        }
      ],
      "stateMutability": "view",
      "type": "function"
    },
    {
      "inputs": [
        {
          "internalType": "uint256",
          "name": "invoiceID",
          "type": "uint256"
        }
      ],
      "name": "getCurrentStatusOfInvoice",
      "outputs": [
        {
          "internalType": "uint256",
          "name": "",
          "type": "uint256"
        },
        {
          "internalType": "uint256",
          "name": "",
          "type": "uint256"
        },
        {
          "internalType": "address",
          "name": "",
          "type": "address"
        },
        {
          "internalType": "bool",
          "name": "",
          "type": "bool"
        },
        {
          "components": [
            {
              "internalType": "address",
              "name": "approverAddress",
              "type": "address"
            },
            {
              "internalType": "uint256",
              "name": "approveTimeStamp",
              "type": "uint256"
            },
            {
              "internalType": "uint256",
              "name": "atWhichMilestone",
              "type": "uint256"
            },
            {
              "internalType": "string",
              "name": "transactionHash",
              "type": "string"
            },
            {
              "internalType": "uint256",
              "name": "amount",
              "type": "uint256"
            },
            {
              "internalType": "bool",
              "name": "isOkay",
              "type": "bool"
            },
            {
              "internalType": "bool",
              "name": "isDone",
              "type": "bool"
            }
          ],
          "internalType": "struct Invoice.milestoneData[4]",
          "name": "",
          "type": "tuple[4]"
        }
      ],
      "stateMutability": "view",
      "type": "function"
    },
    {
      "inputs": [
        {
          "internalType": "uint256",
          "name": "invoiceID",
          "type": "uint256"
        }
      ],
      "name": "getEscrowContractAddress",
      "outputs": [
        {
          "internalType": "address",
          "name": "",
          "type": "address"
        }
      ],
      "stateMutability": "view",
      "type": "function"
    },
    {
      "inputs": [
        {
          "internalType": "address",
          "name": "owner",
          "type": "address"
        },
        {
          "internalType": "address",
          "name": "operator",
          "type": "address"
        }
      ],
      "name": "isApprovedForAll",
      "outputs": [
        {
          "internalType": "bool",
          "name": "",
          "type": "bool"
        }
      ],
      "stateMutability": "view",
      "type": "function"
    },
    {
      "inputs": [],
      "name": "name",
      "outputs": [
        {
          "internalType": "string",
          "name": "",
          "type": "string"
        }
      ],
      "stateMutability": "view",
      "type": "function"
    },
    {
      "inputs": [
        {
          "internalType": "uint256",
          "name": "tokenId",
          "type": "uint256"
        }
      ],
      "name": "ownerOf",
      "outputs": [
        {
          "internalType": "address",
          "name": "",
          "type": "address"
        }
      ],
      "stateMutability": "view",
      "type": "function"
    },
    {
      "inputs": [
        {
          "internalType": "address",
          "name": "from",
          "type": "address"
        },
        {
          "internalType": "address",
          "name": "to",
          "type": "address"
        },
        {
          "internalType": "uint256",
          "name": "tokenId",
          "type": "uint256"
        }
      ],
      "name": "safeTransferFrom",
      "outputs": [],
      "stateMutability": "nonpayable",
      "type": "function"
    },
    {
      "inputs": [
        {
          "internalType": "address",
          "name": "from",
          "type": "address"
        },
        {
          "internalType": "address",
          "name": "to",
          "type": "address"
        },
        {
          "internalType": "uint256",
          "name": "tokenId",
          "type": "uint256"
        },
        {
          "internalType": "bytes",
          "name": "data",
          "type": "bytes"
        }
      ],
      "name": "safeTransferFrom",
      "outputs": [],
      "stateMutability": "nonpayable",
      "type": "function"
    },
    {
      "inputs": [
        {
          "internalType": "address",
          "name": "operator",
          "type": "address"
        },
        {
          "internalType": "bool",
          "name": "approved",
          "type": "bool"
        }
      ],
      "name": "setApprovalForAll",
      "outputs": [],
      "stateMutability": "nonpayable",
      "type": "function"
    },
    {
      "inputs": [
        {
          "internalType": "string",
          "name": "pdfURI",
          "type": "string"
        },
        {
          "internalType": "uint256",
          "name": "invoiceID",
          "type": "uint256"
        }
      ],
      "name": "setPdfURI",
      "outputs": [],
      "stateMutability": "nonpayable",
      "type": "function"
    },
    {
      "inputs": [
        {
          "internalType": "string",
          "name": "transactionHash",
          "type": "string"
        },
        {
          "internalType": "uint256",
          "name": "invoiceID",
          "type": "uint256"
        },
        {
          "internalType": "uint256",
          "name": "milestoneID",
          "type": "uint256"
        }
      ],
      "name": "setTxHash",
      "outputs": [],
      "stateMutability": "nonpayable",
      "type": "function"
    },
    {
      "inputs": [
        {
          "internalType": "bytes4",
          "name": "interfaceId",
          "type": "bytes4"
        }
      ],
      "name": "supportsInterface",
      "outputs": [
        {
          "internalType": "bool",
          "name": "",
          "type": "bool"
        }
      ],
      "stateMutability": "view",
      "type": "function"
    },
    {
      "inputs": [],
      "name": "symbol",
      "outputs": [
        {
          "internalType": "string",
          "name": "",
          "type": "string"
        }
      ],
      "stateMutability": "view",
      "type": "function"
    },
    {
      "inputs": [
        {
          "internalType": "uint256",
          "name": "tokenId",
          "type": "uint256"
        }
      ],
      "name": "tokenURI",
      "outputs": [
        {
          "internalType": "string",
          "name": "",
          "type": "string"
        }
      ],
      "stateMutability": "view",
      "type": "function"
    },
    {
      "inputs": [
        {
          "internalType": "address",
          "name": "from",
          "type": "address"
        },
        {
          "internalType": "address",
          "name": "to",
          "type": "address"
        },
        {
          "internalType": "uint256",
          "name": "tokenId",
          "type": "uint256"
        }
      ],
      "name": "transferFrom",
      "outputs": [],
      "stateMutability": "nonpayable",
      "type": "function"
    }
  ],
  "bytecode": "0x60806040523480156200001157600080fd5b506040518060400160405280600b81526020017f496e766f696365204e46540000000000000000000000000000000000000000008152506040518060400160405280600681526020017f494e564e4654000000000000000000000000000000000000000000000000000081525081600090816200008f9190620003ba565b508060019081620000a19190620003ba565b50505033600860006101000a81548173ffffffffffffffffffffffffffffffffffffffff021916908373ffffffffffffffffffffffffffffffffffffffff16021790555073b8fa5247544ed3dbd24627a0d6fb2d53a785134a600960006101000a81548173ffffffffffffffffffffffffffffffffffffffff021916908373ffffffffffffffffffffffffffffffffffffffff160217905550620004a1565b600081519050919050565b7f4e487b7100000000000000000000000000000000000000000000000000000000600052604160045260246000fd5b7f4e487b7100000000000000000000000000000000000000000000000000000000600052602260045260246000fd5b60006002820490506001821680620001c257607f821691505b602082108103620001d857620001d76200017a565b5b50919050565b60008190508160005260206000209050919050565b60006020601f8301049050919050565b600082821b905092915050565b600060088302620002427fffffffffffffffffffffffffffffffffffffffffffffffffffffffffffffffff8262000203565b6200024e868362000203565b95508019841693508086168417925050509392505050565b6000819050919050565b6000819050919050565b60006200029b620002956200028f8462000266565b62000270565b62000266565b9050919050565b6000819050919050565b620002b7836200027a565b620002cf620002c682620002a2565b84845462000210565b825550505050565b600090565b620002e6620002d7565b620002f3818484620002ac565b505050565b5b818110156200031b576200030f600082620002dc565b600181019050620002f9565b5050565b601f8211156200036a576200033481620001de565b6200033f84620001f3565b810160208510156200034f578190505b620003676200035e85620001f3565b830182620002f8565b50505b505050565b600082821c905092915050565b60006200038f600019846008026200036f565b1980831691505092915050565b6000620003aa83836200037c565b9150826002028217905092915050565b620003c58262000140565b67ffffffffffffffff811115620003e157620003e06200014b565b5b620003ed8254620001a9565b620003fa8282856200031f565b600060209050601f8311600181146200043257600084156200041d578287015190505b6200042985826200039c565b86555062000499565b601f1984166200044286620001de565b60005b828110156200046c5784890151825560018201915060208501945060208101905062000445565b868310156200048c578489015162000488601f8916826200037c565b8355505b6001600288020188555050505b505050505050565b61548780620004b16000396000f3fe6080604052600436106101355760003560e01c806390c148f2116100ab578063b88d4fde1161006f578063b88d4fde14610442578063bd6624971461046b578063c7db36b914610494578063c87b56dd146104d5578063d425e99114610512578063e985e9c51461054f57610135565b806390c148f21461034b57806392ba905c1461038857806395d89b41146103b1578063a22cb465146103dc578063b075afef1461040557610135565b806323b872dd116100fd57806323b872dd1461023357806331163c661461025c5780633f68026c1461027857806342842e0e146102a85780636352211e146102d157806370a082311461030e57610135565b806301ffc9a71461013a57806306fdde0314610177578063081812fc146101a2578063095ea7b3146101df57806315751a1414610208575b600080fd5b34801561014657600080fd5b50610161600480360381019061015c919061385e565b61058c565b60405161016e91906138a6565b60405180910390f35b34801561018357600080fd5b5061018c61066e565b6040516101999190613951565b60405180910390f35b3480156101ae57600080fd5b506101c960048036038101906101c491906139a9565b610700565b6040516101d69190613a17565b60405180910390f35b3480156101eb57600080fd5b5061020660048036038101906102019190613a5e565b610746565b005b34801561021457600080fd5b5061021d61085d565b60405161022a9190613e01565b60405180910390f35b34801561023f57600080fd5b5061025a60048036038101906102559190613e23565b610c50565b005b61027660048036038101906102719190613ea2565b610cb0565b005b610292600480360381019061028d91906140f4565b611956565b60405161029f9190614172565b60405180910390f35b3480156102b457600080fd5b506102cf60048036038101906102ca9190613e23565b611b00565b005b3480156102dd57600080fd5b506102f860048036038101906102f391906139a9565b611b20565b6040516103059190613a17565b60405180910390f35b34801561031a57600080fd5b506103356004803603810190610330919061418d565b611ba6565b6040516103429190614172565b60405180910390f35b34801561035757600080fd5b50610372600480360381019061036d91906139a9565b611c5d565b60405161037f9190613a17565b60405180910390f35b34801561039457600080fd5b506103af60048036038101906103aa91906141ba565b611ca2565b005b3480156103bd57600080fd5b506103c6611cea565b6040516103d39190613951565b60405180910390f35b3480156103e857600080fd5b5061040360048036038101906103fe9190614229565b611d7c565b005b34801561041157600080fd5b5061042c6004803603810190610427919061418d565b611d92565b6040516104399190613a17565b60405180910390f35b34801561044e57600080fd5b506104696004803603810190610464919061430a565b611e0f565b005b34801561047757600080fd5b50610492600480360381019061048d919061438d565b611e71565b005b3480156104a057600080fd5b506104bb60048036038101906104b691906139a9565b611ef1565b6040516104cc959493929190614469565b60405180910390f35b3480156104e157600080fd5b506104fc60048036038101906104f791906139a9565b6120f1565b6040516105099190613951565b60405180910390f35b34801561051e57600080fd5b50610539600480360381019061053491906139a9565b612203565b604051610546919061457a565b60405180910390f35b34801561055b57600080fd5b506105766004803603810190610571919061459c565b61258e565b60405161058391906138a6565b60405180910390f35b60007f80ac58cd000000000000000000000000000000000000000000000000000000007bffffffffffffffffffffffffffffffffffffffffffffffffffffffff1916827bffffffffffffffffffffffffffffffffffffffffffffffffffffffff1916148061065757507f5b5e139f000000000000000000000000000000000000000000000000000000007bffffffffffffffffffffffffffffffffffffffffffffffffffffffff1916827bffffffffffffffffffffffffffffffffffffffffffffffffffffffff1916145b80610667575061066682612622565b5b9050919050565b60606000805461067d9061460b565b80601f01602080910402602001604051908101604052809291908181526020018280546106a99061460b565b80156106f65780601f106106cb576101008083540402835291602001916106f6565b820191906000526020600020905b8154815290600101906020018083116106d957829003601f168201915b5050505050905090565b600061070b8261268c565b6004600083815260200190815260200160002060009054906101000a900473ffffffffffffffffffffffffffffffffffffffff169050919050565b600061075182611b20565b90508073ffffffffffffffffffffffffffffffffffffffff168373ffffffffffffffffffffffffffffffffffffffff16036107c1576040517f08c379a00000000000000000000000000000000000000000000000000000000081526004016107b8906146ae565b60405180910390fd5b8073ffffffffffffffffffffffffffffffffffffffff166107e06126d7565b73ffffffffffffffffffffffffffffffffffffffff16148061080f575061080e816108096126d7565b61258e565b5b61084e576040517f08c379a000000000000000000000000000000000000000000000000000000000815260040161084590614740565b60405180910390fd5b61085883836126df565b505050565b6060600061086b6007612798565b90506000808267ffffffffffffffff81111561088a57610889613f13565b5b6040519080825280602002602001820160405280156108c357816020015b6108b06136f5565b8152602001906001900390816108a85790505b50905060005b83811015610c465760006001826108e0919061478f565b90506000600a60008381526020019081526020016000209050806040518061010001604052908160008201548152602001600182015481526020016002820160009054906101000a900473ffffffffffffffffffffffffffffffffffffffff1673ffffffffffffffffffffffffffffffffffffffff1673ffffffffffffffffffffffffffffffffffffffff1681526020016003820160009054906101000a900473ffffffffffffffffffffffffffffffffffffffff1673ffffffffffffffffffffffffffffffffffffffff1673ffffffffffffffffffffffffffffffffffffffff1681526020016003820160149054906101000a900460ff16151515158152602001600482015481526020016005820180546109fb9061460b565b80601f0160208091040260200160405190810160405280929190818152602001828054610a279061460b565b8015610a745780601f10610a4957610100808354040283529160200191610a74565b820191906000526020600020905b815481529060010190602001808311610a5757829003601f168201915b5050505050815260200160068201600480602002604051908101604052809291906000905b82821015610bfd578382600602016040518060e00160405290816000820160009054906101000a900473ffffffffffffffffffffffffffffffffffffffff1673ffffffffffffffffffffffffffffffffffffffff1673ffffffffffffffffffffffffffffffffffffffff1681526020016001820154815260200160028201548152602001600382018054610b2c9061460b565b80601f0160208091040260200160405190810160405280929190818152602001828054610b589061460b565b8015610ba55780601f10610b7a57610100808354040283529160200191610ba5565b820191906000526020600020905b815481529060010190602001808311610b8857829003601f168201915b50505050508152602001600482015481526020016005820160009054906101000a900460ff161515151581526020016005820160019054906101000a900460ff16151515158152505081526020019060010190610a99565b5050505081525050848681518110610c1857610c176147c3565b5b60200260200101819052508480610c2e906147f2565b95505050508080610c3e906147f2565b9150506108c9565b5080935050505090565b610c61610c5b6126d7565b826127a6565b610ca0576040517f08c379a0000000000000000000000000000000000000000000000000000000008152600401610c97906148ac565b60405180910390fd5b610cab83838361283b565b505050565b6000600a600084815260200190815260200160002090508060030160149054906101000a900460ff1615610d19576040517f08c379a0000000000000000000000000000000000000000000000000000000008152600401610d109061493e565b60405180910390fd5b6001850361101d5780600601600060048110610d3857610d376147c3565b5b6006020160000160009054906101000a900473ffffffffffffffffffffffffffffffffffffffff1673ffffffffffffffffffffffffffffffffffffffff163373ffffffffffffffffffffffffffffffffffffffff1614610dcd576040517f08c379a0000000000000000000000000000000000000000000000000000000008152600401610dc4906149aa565b60405180910390fd5b8181600601600060048110610de557610de46147c3565b5b6006020160050160006101000a81548160ff0219169083151502179055506001151581600601600060048110610e1e57610e1d6147c3565b5b6006020160050160009054906101000a900460ff1615150361101c57600181600601600060048110610e5357610e526147c3565b5b60060201600201819055504281600601600060048110610e7657610e756147c3565b5b600602016001018190555060008160030160009054906101000a900473ffffffffffffffffffffffffffffffffffffffff16905060008173ffffffffffffffffffffffffffffffffffffffff1683600601600060048110610eda57610ed96147c3565b5b6006020160000160009054906101000a900473ffffffffffffffffffffffffffffffffffffffff16604051602401610f129190613a17565b6040516020818303038152906040527f210cb8c3000000000000000000000000000000000000000000000000000000007bffffffffffffffffffffffffffffffffffffffffffffffffffffffff19166020820180517bffffffffffffffffffffffffffffffffffffffffffffffffffffffff8381831617835250505050604051610f9c9190614a11565b6000604051808303816000865af19150503d8060008114610fd9576040519150601f19603f3d011682016040523d82523d6000602084013e610fde565b606091505b50509050600183600601600060048110610ffb57610ffa6147c3565b5b6006020160050160016101000a81548160ff02191690831515021790555050505b5b60028503611321578060060160016004811061103c5761103b6147c3565b5b6006020160000160009054906101000a900473ffffffffffffffffffffffffffffffffffffffff1673ffffffffffffffffffffffffffffffffffffffff163373ffffffffffffffffffffffffffffffffffffffff16146110d1576040517f08c379a00000000000000000000000000000000000000000000000000000000081526004016110c8906149aa565b60405180910390fd5b81816006016001600481106110e9576110e86147c3565b5b6006020160050160006101000a81548160ff0219169083151502179055506001151581600601600160048110611122576111216147c3565b5b6006020160050160009054906101000a900460ff1615150361132057600281600601600160048110611157576111566147c3565b5b6006020160020181905550428160060160016004811061117a576111796147c3565b5b600602016001018190555060008160030160009054906101000a900473ffffffffffffffffffffffffffffffffffffffff16905060008173ffffffffffffffffffffffffffffffffffffffff16836006016001600481106111de576111dd6147c3565b5b6006020160000160009054906101000a900473ffffffffffffffffffffffffffffffffffffffff166040516024016112169190613a17565b6040516020818303038152906040527f210cb8c3000000000000000000000000000000000000000000000000000000007bffffffffffffffffffffffffffffffffffffffffffffffffffffffff19166020820180517bffffffffffffffffffffffffffffffffffffffffffffffffffffffff83818316178352505050506040516112a09190614a11565b6000604051808303816000865af19150503d80600081146112dd576040519150601f19603f3d011682016040523d82523d6000602084013e6112e2565b606091505b505090506001836006016001600481106112ff576112fe6147c3565b5b6006020160050160016101000a81548160ff02191690831515021790555050505b5b6003850361162557806006016002600481106113405761133f6147c3565b5b6006020160000160009054906101000a900473ffffffffffffffffffffffffffffffffffffffff1673ffffffffffffffffffffffffffffffffffffffff163373ffffffffffffffffffffffffffffffffffffffff16146113d5576040517f08c379a00000000000000000000000000000000000000000000000000000000081526004016113cc906149aa565b60405180910390fd5b81816006016002600481106113ed576113ec6147c3565b5b6006020160050160006101000a81548160ff0219169083151502179055506001151581600601600260048110611426576114256147c3565b5b6006020160050160009054906101000a900460ff161515036116245760038160060160026004811061145b5761145a6147c3565b5b6006020160020181905550428160060160026004811061147e5761147d6147c3565b5b600602016001018190555060008160030160009054906101000a900473ffffffffffffffffffffffffffffffffffffffff16905060008173ffffffffffffffffffffffffffffffffffffffff16836006016002600481106114e2576114e16147c3565b5b6006020160000160009054906101000a900473ffffffffffffffffffffffffffffffffffffffff1660405160240161151a9190613a17565b6040516020818303038152906040527f210cb8c3000000000000000000000000000000000000000000000000000000007bffffffffffffffffffffffffffffffffffffffffffffffffffffffff19166020820180517bffffffffffffffffffffffffffffffffffffffffffffffffffffffff83818316178352505050506040516115a49190614a11565b6000604051808303816000865af19150503d80600081146115e1576040519150601f19603f3d011682016040523d82523d6000602084013e6115e6565b606091505b50509050600183600601600260048110611603576116026147c3565b5b6006020160050160016101000a81548160ff02191690831515021790555050505b5b6004850361194f5780600601600360048110611644576116436147c3565b5b6006020160000160009054906101000a900473ffffffffffffffffffffffffffffffffffffffff1673ffffffffffffffffffffffffffffffffffffffff163373ffffffffffffffffffffffffffffffffffffffff16146116d9576040517f08c379a00000000000000000000000000000000000000000000000000000000081526004016116d0906149aa565b60405180910390fd5b81816006016003600481106116f1576116f06147c3565b5b6006020160050160006101000a81548160ff021916908315150217905550600115158160060160036004811061172a576117296147c3565b5b6006020160050160009054906101000a900460ff1615150361194e5760048160060160036004811061175f5761175e6147c3565b5b60060201600201819055504281600601600360048110611782576117816147c3565b5b600602016001018190555060008160030160009054906101000a900473ffffffffffffffffffffffffffffffffffffffff16905060008173ffffffffffffffffffffffffffffffffffffffff16836006016003600481106117e6576117e56147c3565b5b6006020160000160009054906101000a900473ffffffffffffffffffffffffffffffffffffffff1660405160240161181e9190613a17565b6040516020818303038152906040527f210cb8c3000000000000000000000000000000000000000000000000000000007bffffffffffffffffffffffffffffffffffffffffffffffffffffffff19166020820180517bffffffffffffffffffffffffffffffffffffffffffffffffffffffff83818316178352505050506040516118a89190614a11565b6000604051808303816000865af19150503d80600081146118e5576040519150601f19603f3d011682016040523d82523d6000602084013e6118ea565b606091505b505090504283600401819055506001836006016003600481106119105761190f6147c3565b5b6006020160050160016101000a81548160ff02191690831515021790555060018360030160146101000a81548160ff02191690831515021790555050505b5b5050505050565b6000600860009054906101000a900473ffffffffffffffffffffffffffffffffffffffff1673ffffffffffffffffffffffffffffffffffffffff163373ffffffffffffffffffffffffffffffffffffffff16146119e8576040517f08c379a00000000000000000000000000000000000000000000000000000000081526004016119df90614a74565b60405180910390fd5b6000611a15600960009054906101000a900473ffffffffffffffffffffffffffffffffffffffff16611d92565b9050611a216007612b34565b6000611a2d6007612798565b9050611a393382612b4a565b611a438187612d67565b60005b6004811015611ae757848160048110611a6257611a616147c3565b5b6020020151600a60008481526020019081526020016000206006018260048110611a8f57611a8e6147c3565b5b6006020160000160006101000a81548173ffffffffffffffffffffffffffffffffffffffff021916908373ffffffffffffffffffffffffffffffffffffffff1602179055508080611adf906147f2565b915050611a46565b50611af481600184612dd4565b80925050509392505050565b611b1b83838360405180602001604052806000815250611e0f565b505050565b600080611b2c83612f39565b9050600073ffffffffffffffffffffffffffffffffffffffff168173ffffffffffffffffffffffffffffffffffffffff1603611b9d576040517f08c379a0000000000000000000000000000000000000000000000000000000008152600401611b9490614ae0565b60405180910390fd5b80915050919050565b60008073ffffffffffffffffffffffffffffffffffffffff168273ffffffffffffffffffffffffffffffffffffffff1603611c16576040517f08c379a0000000000000000000000000000000000000000000000000000000008152600401611c0d90614b72565b60405180910390fd5b600360008373ffffffffffffffffffffffffffffffffffffffff1673ffffffffffffffffffffffffffffffffffffffff168152602001908152602001600020549050919050565b600080600a600084815260200190815260200160002090508060030160009054906101000a900473ffffffffffffffffffffffffffffffffffffffff16915050919050565b6000600a6000848152602001908152602001600020905083816006018360048110611cd057611ccf6147c3565b5b600602016003019081611ce39190614d3e565b5050505050565b606060018054611cf99061460b565b80601f0160208091040260200160405190810160405280929190818152602001828054611d259061460b565b8015611d725780601f10611d4757610100808354040283529160200191611d72565b820191906000526020600020905b815481529060010190602001808311611d5557829003601f168201915b5050505050905090565b611d8e611d876126d7565b8383612f76565b5050565b6000808290508073ffffffffffffffffffffffffffffffffffffffff16632587b4916040518163ffffffff1660e01b8152600401602060405180830381865afa158015611de3573d6000803e3d6000fd5b505050506040513d601f19601f82011682018060405250810190611e079190614e25565b915050919050565b611e20611e1a6126d7565b836127a6565b611e5f576040517f08c379a0000000000000000000000000000000000000000000000000000000008152600401611e56906148ac565b60405180910390fd5b611e6b848484846130e2565b50505050565b6000600a600083815260200190815260200160002090508060030160149054906101000a900460ff1615611eda576040517f08c379a0000000000000000000000000000000000000000000000000000000008152600401611ed19061493e565b60405180910390fd5b82816005019081611eeb9190614d3e565b50505050565b600080600080611eff61376e565b6000600a60008881526020019081526020016000209050806000015481600101548260030160009054906101000a900473ffffffffffffffffffffffffffffffffffffffff168360030160149054906101000a900460ff168460060180600480602002604051908101604052809291906000905b828210156120d7578382600602016040518060e00160405290816000820160009054906101000a900473ffffffffffffffffffffffffffffffffffffffff1673ffffffffffffffffffffffffffffffffffffffff1673ffffffffffffffffffffffffffffffffffffffff16815260200160018201548152602001600282015481526020016003820180546120069061460b565b80601f01602080910402602001604051908101604052809291908181526020018280546120329061460b565b801561207f5780601f106120545761010080835404028352916020019161207f565b820191906000526020600020905b81548152906001019060200180831161206257829003601f168201915b50505050508152602001600482015481526020016005820160009054906101000a900460ff161515151581526020016005820160019054906101000a900460ff16151515158152505081526020019060010190611f73565b505050509050955095509550955095505091939590929450565b60606120fc8261268c565b600060066000848152602001908152602001600020805461211c9061460b565b80601f01602080910402602001604051908101604052809291908181526020018280546121489061460b565b80156121955780601f1061216a57610100808354040283529160200191612195565b820191906000526020600020905b81548152906001019060200180831161217857829003601f168201915b5050505050905060006121a661313e565b905060008151036121bb5781925050506121fe565b6000825111156121f05780826040516020016121d8929190614e8e565b604051602081830303815290604052925050506121fe565b6121f984613155565b925050505b919050565b61220b6136f5565b6000600a60008481526020019081526020016000209050600115158160030160149054906101000a900460ff1615150361227a576040517f08c379a000000000000000000000000000000000000000000000000000000000815260040161227190614efe565b60405180910390fd5b806040518061010001604052908160008201548152602001600182015481526020016002820160009054906101000a900473ffffffffffffffffffffffffffffffffffffffff1673ffffffffffffffffffffffffffffffffffffffff1673ffffffffffffffffffffffffffffffffffffffff1681526020016003820160009054906101000a900473ffffffffffffffffffffffffffffffffffffffff1673ffffffffffffffffffffffffffffffffffffffff1673ffffffffffffffffffffffffffffffffffffffff1681526020016003820160149054906101000a900460ff161515151581526020016004820154815260200160058201805461237c9061460b565b80601f01602080910402602001604051908101604052809291908181526020018280546123a89061460b565b80156123f55780601f106123ca576101008083540402835291602001916123f5565b820191906000526020600020905b8154815290600101906020018083116123d857829003601f168201915b5050505050815260200160068201600480602002604051908101604052809291906000905b8282101561257e578382600602016040518060e00160405290816000820160009054906101000a900473ffffffffffffffffffffffffffffffffffffffff1673ffffffffffffffffffffffffffffffffffffffff1673ffffffffffffffffffffffffffffffffffffffff16815260200160018201548152602001600282015481526020016003820180546124ad9061460b565b80601f01602080910402602001604051908101604052809291908181526020018280546124d99061460b565b80156125265780601f106124fb57610100808354040283529160200191612526565b820191906000526020600020905b81548152906001019060200180831161250957829003601f168201915b50505050508152602001600482015481526020016005820160009054906101000a900460ff161515151581526020016005820160019054906101000a900460ff1615151515815250508152602001906001019061241a565b5050505081525050915050919050565b6000600560008473ffffffffffffffffffffffffffffffffffffffff1673ffffffffffffffffffffffffffffffffffffffff16815260200190815260200160002060008373ffffffffffffffffffffffffffffffffffffffff1673ffffffffffffffffffffffffffffffffffffffff16815260200190815260200160002060009054906101000a900460ff16905092915050565b60007f01ffc9a7000000000000000000000000000000000000000000000000000000007bffffffffffffffffffffffffffffffffffffffffffffffffffffffff1916827bffffffffffffffffffffffffffffffffffffffffffffffffffffffff1916149050919050565b612695816131bd565b6126d4576040517f08c379a00000000000000000000000000000000000000000000000000000000081526004016126cb90614ae0565b60405180910390fd5b50565b600033905090565b816004600083815260200190815260200160002060006101000a81548173ffffffffffffffffffffffffffffffffffffffff021916908373ffffffffffffffffffffffffffffffffffffffff160217905550808273ffffffffffffffffffffffffffffffffffffffff1661275283611b20565b73ffffffffffffffffffffffffffffffffffffffff167f8c5be1e5ebec7d5bd14f71427d1e84f3dd0314c0f7b2291e5b200ac8c7c3b92560405160405180910390a45050565b600081600001549050919050565b6000806127b283611b20565b90508073ffffffffffffffffffffffffffffffffffffffff168473ffffffffffffffffffffffffffffffffffffffff1614806127f457506127f3818561258e565b5b8061283257508373ffffffffffffffffffffffffffffffffffffffff1661281a84610700565b73ffffffffffffffffffffffffffffffffffffffff16145b91505092915050565b8273ffffffffffffffffffffffffffffffffffffffff1661285b82611b20565b73ffffffffffffffffffffffffffffffffffffffff16146128b1576040517f08c379a00000000000000000000000000000000000000000000000000000000081526004016128a890614f90565b60405180910390fd5b600073ffffffffffffffffffffffffffffffffffffffff168273ffffffffffffffffffffffffffffffffffffffff1603612920576040517f08c379a000000000000000000000000000000000000000000000000000000000815260040161291790615022565b60405180910390fd5b61292d83838360016131fe565b8273ffffffffffffffffffffffffffffffffffffffff1661294d82611b20565b73ffffffffffffffffffffffffffffffffffffffff16146129a3576040517f08c379a000000000000000000000000000000000000000000000000000000000815260040161299a90614f90565b60405180910390fd5b6004600082815260200190815260200160002060006101000a81549073ffffffffffffffffffffffffffffffffffffffff02191690556001600360008573ffffffffffffffffffffffffffffffffffffffff1673ffffffffffffffffffffffffffffffffffffffff168152602001908152602001600020600082825403925050819055506001600360008473ffffffffffffffffffffffffffffffffffffffff1673ffffffffffffffffffffffffffffffffffffffff16815260200190815260200160002060008282540192505081905550816002600083815260200190815260200160002060006101000a81548173ffffffffffffffffffffffffffffffffffffffff021916908373ffffffffffffffffffffffffffffffffffffffff160217905550808273ffffffffffffffffffffffffffffffffffffffff168473ffffffffffffffffffffffffffffffffffffffff167fddf252ad1be2c89b69c2b068fc378daa952ba7f163c4a11628f55a4df523b3ef60405160405180910390a4612b2f8383836001613324565b505050565b6001816000016000828254019250508190555050565b600073ffffffffffffffffffffffffffffffffffffffff168273ffffffffffffffffffffffffffffffffffffffff1603612bb9576040517f08c379a0000000000000000000000000000000000000000000000000000000008152600401612bb09061508e565b60405180910390fd5b612bc2816131bd565b15612c02576040517f08c379a0000000000000000000000000000000000000000000000000000000008152600401612bf9906150fa565b60405180910390fd5b612c106000838360016131fe565b612c19816131bd565b15612c59576040517f08c379a0000000000000000000000000000000000000000000000000000000008152600401612c50906150fa565b60405180910390fd5b6001600360008473ffffffffffffffffffffffffffffffffffffffff1673ffffffffffffffffffffffffffffffffffffffff16815260200190815260200160002060008282540192505081905550816002600083815260200190815260200160002060006101000a81548173ffffffffffffffffffffffffffffffffffffffff021916908373ffffffffffffffffffffffffffffffffffffffff160217905550808273ffffffffffffffffffffffffffffffffffffffff16600073ffffffffffffffffffffffffffffffffffffffff167fddf252ad1be2c89b69c2b068fc378daa952ba7f163c4a11628f55a4df523b3ef60405160405180910390a4612d63600083836001613324565b5050565b612d70826131bd565b612daf576040517f08c379a0000000000000000000000000000000000000000000000000000000008152600401612da69061518c565b60405180910390fd5b80600660008481526020019081526020016000209081612dcf9190614d3e565b505050565b60008211612e17576040517f08c379a0000000000000000000000000000000000000000000000000000000008152600401612e0e906151f8565b60405180910390fd5b82600a60008581526020019081526020016000206000018190555081600a60008581526020019081526020016000206001018190555042600a60008581526020019081526020016000206004018190555080600a600085815260200190815260200160002060030160006101000a81548173ffffffffffffffffffffffffffffffffffffffff021916908373ffffffffffffffffffffffffffffffffffffffff160217905550600860009054906101000a900473ffffffffffffffffffffffffffffffffffffffff16600a600085815260200190815260200160002060020160006101000a81548173ffffffffffffffffffffffffffffffffffffffff021916908373ffffffffffffffffffffffffffffffffffffffff160217905550505050565b60006002600083815260200190815260200160002060009054906101000a900473ffffffffffffffffffffffffffffffffffffffff169050919050565b8173ffffffffffffffffffffffffffffffffffffffff168373ffffffffffffffffffffffffffffffffffffffff1603612fe4576040517f08c379a0000000000000000000000000000000000000000000000000000000008152600401612fdb90615264565b60405180910390fd5b80600560008573ffffffffffffffffffffffffffffffffffffffff1673ffffffffffffffffffffffffffffffffffffffff16815260200190815260200160002060008473ffffffffffffffffffffffffffffffffffffffff1673ffffffffffffffffffffffffffffffffffffffff16815260200190815260200160002060006101000a81548160ff0219169083151502179055508173ffffffffffffffffffffffffffffffffffffffff168373ffffffffffffffffffffffffffffffffffffffff167f17307eab39ab6107e8899845ad3d59bd9653f200f220920489ca2b5937696c31836040516130d591906138a6565b60405180910390a3505050565b6130ed84848461283b565b6130f98484848461332a565b613138576040517f08c379a000000000000000000000000000000000000000000000000000000000815260040161312f906152f6565b60405180910390fd5b50505050565b606060405180602001604052806000815250905090565b60606131608261268c565b600061316a61313e565b9050600081511161318a57604051806020016040528060008152506131b5565b80613194846134b1565b6040516020016131a5929190614e8e565b6040516020818303038152906040525b915050919050565b60008073ffffffffffffffffffffffffffffffffffffffff166131df83612f39565b73ffffffffffffffffffffffffffffffffffffffff1614159050919050565b600181111561331e57600073ffffffffffffffffffffffffffffffffffffffff168473ffffffffffffffffffffffffffffffffffffffff16146132925780600360008673ffffffffffffffffffffffffffffffffffffffff1673ffffffffffffffffffffffffffffffffffffffff168152602001908152602001600020600082825461328a9190615316565b925050819055505b600073ffffffffffffffffffffffffffffffffffffffff168373ffffffffffffffffffffffffffffffffffffffff161461331d5780600360008573ffffffffffffffffffffffffffffffffffffffff1673ffffffffffffffffffffffffffffffffffffffff1681526020019081526020016000206000828254613315919061478f565b925050819055505b5b50505050565b50505050565b600061334b8473ffffffffffffffffffffffffffffffffffffffff1661357f565b156134a4578373ffffffffffffffffffffffffffffffffffffffff1663150b7a026133746126d7565b8786866040518563ffffffff1660e01b81526004016133969493929190615394565b6020604051808303816000875af19250505080156133d257506040513d601f19601f820116820180604052508101906133cf91906153f5565b60015b613454573d8060008114613402576040519150601f19603f3d011682016040523d82523d6000602084013e613407565b606091505b50600081510361344c576040517f08c379a0000000000000000000000000000000000000000000000000000000008152600401613443906152f6565b60405180910390fd5b805181602001fd5b63150b7a0260e01b7bffffffffffffffffffffffffffffffffffffffffffffffffffffffff1916817bffffffffffffffffffffffffffffffffffffffffffffffffffffffff1916149150506134a9565b600190505b949350505050565b6060600060016134c0846135a2565b01905060008167ffffffffffffffff8111156134df576134de613f13565b5b6040519080825280601f01601f1916602001820160405280156135115781602001600182028036833780820191505090505b509050600082602001820190505b600115613574578080600190039150507f3031323334353637383961626364656600000000000000000000000000000000600a86061a8153600a858161356857613567615422565b5b0494506000850361351f575b819350505050919050565b6000808273ffffffffffffffffffffffffffffffffffffffff163b119050919050565b600080600090507a184f03e93ff9f4daa797ed6e38ed64bf6a1f0100000000000000008310613600577a184f03e93ff9f4daa797ed6e38ed64bf6a1f01000000000000000083816135f6576135f5615422565b5b0492506040810190505b6d04ee2d6d415b85acef8100000000831061363d576d04ee2d6d415b85acef8100000000838161363357613632615422565b5b0492506020810190505b662386f26fc10000831061366c57662386f26fc10000838161366257613661615422565b5b0492506010810190505b6305f5e1008310613695576305f5e100838161368b5761368a615422565b5b0492506008810190505b61271083106136ba5761271083816136b0576136af615422565b5b0492506004810190505b606483106136dd57606483816136d3576136d2615422565b5b0492506002810190505b600a83106136ec576001810190505b80915050919050565b6040518061010001604052806000815260200160008152602001600073ffffffffffffffffffffffffffffffffffffffff168152602001600073ffffffffffffffffffffffffffffffffffffffff168152602001600015158152602001600081526020016060815260200161376861376e565b81525090565b60405180608001604052806004905b61378561379b565b81526020019060019003908161377d5790505090565b6040518060e00160405280600073ffffffffffffffffffffffffffffffffffffffff168152602001600081526020016000815260200160608152602001600081526020016000151581526020016000151581525090565b6000604051905090565b600080fd5b600080fd5b60007fffffffff0000000000000000000000000000000000000000000000000000000082169050919050565b61383b81613806565b811461384657600080fd5b50565b60008135905061385881613832565b92915050565b600060208284031215613874576138736137fc565b5b600061388284828501613849565b91505092915050565b60008115159050919050565b6138a08161388b565b82525050565b60006020820190506138bb6000830184613897565b92915050565b600081519050919050565b600082825260208201905092915050565b60005b838110156138fb5780820151818401526020810190506138e0565b60008484015250505050565b6000601f19601f8301169050919050565b6000613923826138c1565b61392d81856138cc565b935061393d8185602086016138dd565b61394681613907565b840191505092915050565b6000602082019050818103600083015261396b8184613918565b905092915050565b6000819050919050565b61398681613973565b811461399157600080fd5b50565b6000813590506139a38161397d565b92915050565b6000602082840312156139bf576139be6137fc565b5b60006139cd84828501613994565b91505092915050565b600073ffffffffffffffffffffffffffffffffffffffff82169050919050565b6000613a01826139d6565b9050919050565b613a11816139f6565b82525050565b6000602082019050613a2c6000830184613a08565b92915050565b613a3b816139f6565b8114613a4657600080fd5b50565b600081359050613a5881613a32565b92915050565b60008060408385031215613a7557613a746137fc565b5b6000613a8385828601613a49565b9250506020613a9485828601613994565b9150509250929050565b600081519050919050565b600082825260208201905092915050565b6000819050602082019050919050565b613ad381613973565b82525050565b6000613ae4826139d6565b9050919050565b613af481613ad9565b82525050565b613b03816139f6565b82525050565b613b128161388b565b82525050565b600082825260208201905092915050565b6000613b34826138c1565b613b3e8185613b18565b9350613b4e8185602086016138dd565b613b5781613907565b840191505092915050565b600060049050919050565b600081905092915050565b6000819050919050565b600060e083016000830151613b9a6000860182613afa565b506020830151613bad6020860182613aca565b506040830151613bc06040860182613aca565b5060608301518482036060860152613bd88282613b29565b9150506080830151613bed6080860182613aca565b5060a0830151613c0060a0860182613b09565b5060c0830151613c1360c0860182613b09565b508091505092915050565b6000613c2a8383613b82565b905092915050565b6000602082019050919050565b6000613c4a82613b62565b613c548185613b6d565b935083602082028501613c6685613b78565b8060005b85811015613ca25784840389528151613c838582613c1e565b9450613c8e83613c32565b925060208a01995050600181019050613c6a565b50829750879550505050505092915050565b600061010083016000830151613ccd6000860182613aca565b506020830151613ce06020860182613aca565b506040830151613cf36040860182613aeb565b506060830151613d066060860182613afa565b506080830151613d196080860182613b09565b5060a0830151613d2c60a0860182613aca565b5060c083015184820360c0860152613d448282613b29565b91505060e083015184820360e0860152613d5e8282613c3f565b9150508091505092915050565b6000613d778383613cb4565b905092915050565b6000602082019050919050565b6000613d9782613a9e565b613da18185613aa9565b935083602082028501613db385613aba565b8060005b85811015613def5784840389528151613dd08582613d6b565b9450613ddb83613d7f565b925060208a01995050600181019050613db7565b50829750879550505050505092915050565b60006020820190508181036000830152613e1b8184613d8c565b905092915050565b600080600060608486031215613e3c57613e3b6137fc565b5b6000613e4a86828701613a49565b9350506020613e5b86828701613a49565b9250506040613e6c86828701613994565b9150509250925092565b613e7f8161388b565b8114613e8a57600080fd5b50565b600081359050613e9c81613e76565b92915050565b60008060008060808587031215613ebc57613ebb6137fc565b5b6000613eca87828801613994565b9450506020613edb87828801613994565b9350506040613eec87828801613994565b9250506060613efd87828801613e8d565b91505092959194509250565b600080fd5b600080fd5b7f4e487b7100000000000000000000000000000000000000000000000000000000600052604160045260246000fd5b613f4b82613907565b810181811067ffffffffffffffff82111715613f6a57613f69613f13565b5b80604052505050565b6000613f7d6137f2565b9050613f898282613f42565b919050565b600067ffffffffffffffff821115613fa957613fa8613f13565b5b613fb282613907565b9050602081019050919050565b82818337600083830152505050565b6000613fe1613fdc84613f8e565b613f73565b905082815260208101848484011115613ffd57613ffc613f0e565b5b614008848285613fbf565b509392505050565b600082601f83011261402557614024613f09565b5b8135614035848260208601613fce565b91505092915050565b600067ffffffffffffffff82111561405957614058613f13565b5b602082029050919050565b600080fd5b600061407c6140778461403e565b613f73565b9050806020840283018581111561409657614095614064565b5b835b818110156140bf57806140ab8882613a49565b845260208401935050602081019050614098565b5050509392505050565b600082601f8301126140de576140dd613f09565b5b60046140eb848285614069565b91505092915050565b600080600060c0848603121561410d5761410c6137fc565b5b600084013567ffffffffffffffff81111561412b5761412a613801565b5b61413786828701614010565b935050602061414886828701613994565b9250506040614159868287016140c9565b9150509250925092565b61416c81613973565b82525050565b60006020820190506141876000830184614163565b92915050565b6000602082840312156141a3576141a26137fc565b5b60006141b184828501613a49565b91505092915050565b6000806000606084860312156141d3576141d26137fc565b5b600084013567ffffffffffffffff8111156141f1576141f0613801565b5b6141fd86828701614010565b935050602061420e86828701613994565b925050604061421f86828701613994565b9150509250925092565b600080604083850312156142405761423f6137fc565b5b600061424e85828601613a49565b925050602061425f85828601613e8d565b9150509250929050565b600067ffffffffffffffff82111561428457614283613f13565b5b61428d82613907565b9050602081019050919050565b60006142ad6142a884614269565b613f73565b9050828152602081018484840111156142c9576142c8613f0e565b5b6142d4848285613fbf565b509392505050565b600082601f8301126142f1576142f0613f09565b5b813561430184826020860161429a565b91505092915050565b60008060008060808587031215614324576143236137fc565b5b600061433287828801613a49565b945050602061434387828801613a49565b935050604061435487828801613994565b925050606085013567ffffffffffffffff81111561437557614374613801565b5b614381878288016142dc565b91505092959194509250565b600080604083850312156143a4576143a36137fc565b5b600083013567ffffffffffffffff8111156143c2576143c1613801565b5b6143ce85828601614010565b92505060206143df85828601613994565b9150509250929050565b600081905092915050565b60006143ff82613b62565b61440981856143e9565b93508360208202850161441b85613b78565b8060005b8581101561445757848403895281516144388582613c1e565b945061444383613c32565b925060208a0199505060018101905061441f565b50829750879550505050505092915050565b600060a08201905061447e6000830188614163565b61448b6020830187614163565b6144986040830186613a08565b6144a56060830185613897565b81810360808301526144b781846143f4565b90509695505050505050565b6000610100830160008301516144dc6000860182613aca565b5060208301516144ef6020860182613aca565b5060408301516145026040860182613aeb565b5060608301516145156060860182613afa565b5060808301516145286080860182613b09565b5060a083015161453b60a0860182613aca565b5060c083015184820360c08601526145538282613b29565b91505060e083015184820360e086015261456d8282613c3f565b9150508091505092915050565b6000602082019050818103600083015261459481846144c3565b905092915050565b600080604083850312156145b3576145b26137fc565b5b60006145c185828601613a49565b92505060206145d285828601613a49565b9150509250929050565b7f4e487b7100000000000000000000000000000000000000000000000000000000600052602260045260246000fd5b6000600282049050600182168061462357607f821691505b602082108103614636576146356145dc565b5b50919050565b7f4552433732313a20617070726f76616c20746f2063757272656e74206f776e6560008201527f7200000000000000000000000000000000000000000000000000000000000000602082015250565b60006146986021836138cc565b91506146a38261463c565b604082019050919050565b600060208201905081810360008301526146c78161468b565b9050919050565b7f4552433732313a20617070726f76652063616c6c6572206973206e6f7420746f60008201527f6b656e206f776e6572206f7220617070726f76656420666f7220616c6c000000602082015250565b600061472a603d836138cc565b9150614735826146ce565b604082019050919050565b600060208201905081810360008301526147598161471d565b9050919050565b7f4e487b7100000000000000000000000000000000000000000000000000000000600052601160045260246000fd5b600061479a82613973565b91506147a583613973565b92508282019050808211156147bd576147bc614760565b5b92915050565b7f4e487b7100000000000000000000000000000000000000000000000000000000600052603260045260246000fd5b60006147fd82613973565b91507fffffffffffffffffffffffffffffffffffffffffffffffffffffffffffffffff820361482f5761482e614760565b5b600182019050919050565b7f4552433732313a2063616c6c6572206973206e6f7420746f6b656e206f776e6560008201527f72206f7220617070726f76656400000000000000000000000000000000000000602082015250565b6000614896602d836138cc565b91506148a18261483a565b604082019050919050565b600060208201905081810360008301526148c581614889565b9050919050565b7f46696e616c20696e766f69636520697320616c72656164792067656e6572617460008201527f65642e0000000000000000000000000000000000000000000000000000000000602082015250565b60006149286023836138cc565b9150614933826148cc565b604082019050919050565b600060208201905081810360008301526149578161491b565b9050919050565b7f61646472657373206973206e6f7420617070726f7665722e0000000000000000600082015250565b60006149946018836138cc565b915061499f8261495e565b602082019050919050565b600060208201905081810360008301526149c381614987565b9050919050565b600081519050919050565b600081905092915050565b60006149eb826149ca565b6149f581856149d5565b9350614a058185602086016138dd565b80840191505092915050565b6000614a1d82846149e0565b915081905092915050565b7f4e6f74206f776e65720000000000000000000000000000000000000000000000600082015250565b6000614a5e6009836138cc565b9150614a6982614a28565b602082019050919050565b60006020820190508181036000830152614a8d81614a51565b9050919050565b7f4552433732313a20696e76616c696420746f6b656e2049440000000000000000600082015250565b6000614aca6018836138cc565b9150614ad582614a94565b602082019050919050565b60006020820190508181036000830152614af981614abd565b9050919050565b7f4552433732313a2061646472657373207a65726f206973206e6f74206120766160008201527f6c6964206f776e65720000000000000000000000000000000000000000000000602082015250565b6000614b5c6029836138cc565b9150614b6782614b00565b604082019050919050565b60006020820190508181036000830152614b8b81614b4f565b9050919050565b60008190508160005260206000209050919050565b60006020601f8301049050919050565b600082821b905092915050565b600060088302614bf47fffffffffffffffffffffffffffffffffffffffffffffffffffffffffffffffff82614bb7565b614bfe8683614bb7565b95508019841693508086168417925050509392505050565b6000819050919050565b6000614c3b614c36614c3184613973565b614c16565b613973565b9050919050565b6000819050919050565b614c5583614c20565b614c69614c6182614c42565b848454614bc4565b825550505050565b600090565b614c7e614c71565b614c89818484614c4c565b505050565b5b81811015614cad57614ca2600082614c76565b600181019050614c8f565b5050565b601f821115614cf257614cc381614b92565b614ccc84614ba7565b81016020851015614cdb578190505b614cef614ce785614ba7565b830182614c8e565b50505b505050565b600082821c905092915050565b6000614d1560001984600802614cf7565b1980831691505092915050565b6000614d2e8383614d04565b9150826002028217905092915050565b614d47826138c1565b67ffffffffffffffff811115614d6057614d5f613f13565b5b614d6a825461460b565b614d75828285614cb1565b600060209050601f831160018114614da85760008415614d96578287015190505b614da08582614d22565b865550614e08565b601f198416614db686614b92565b60005b82811015614dde57848901518255600182019150602085019450602081019050614db9565b86831015614dfb5784890151614df7601f891682614d04565b8355505b6001600288020188555050505b505050505050565b600081519050614e1f81613a32565b92915050565b600060208284031215614e3b57614e3a6137fc565b5b6000614e4984828501614e10565b91505092915050565b600081905092915050565b6000614e68826138c1565b614e728185614e52565b9350614e828185602086016138dd565b80840191505092915050565b6000614e9a8285614e5d565b9150614ea68284614e5d565b91508190509392505050565b7f496e766f696365206973206e6f742066756c6c7920636f6d706c657465642e00600082015250565b6000614ee8601f836138cc565b9150614ef382614eb2565b602082019050919050565b60006020820190508181036000830152614f1781614edb565b9050919050565b7f4552433732313a207472616e736665722066726f6d20696e636f72726563742060008201527f6f776e6572000000000000000000000000000000000000000000000000000000602082015250565b6000614f7a6025836138cc565b9150614f8582614f1e565b604082019050919050565b60006020820190508181036000830152614fa981614f6d565b9050919050565b7f4552433732313a207472616e7366657220746f20746865207a65726f2061646460008201527f7265737300000000000000000000000000000000000000000000000000000000602082015250565b600061500c6024836138cc565b915061501782614fb0565b604082019050919050565b6000602082019050818103600083015261503b81614fff565b9050919050565b7f4552433732313a206d696e7420746f20746865207a65726f2061646472657373600082015250565b60006150786020836138cc565b915061508382615042565b602082019050919050565b600060208201905081810360008301526150a78161506b565b9050919050565b7f4552433732313a20746f6b656e20616c7265616479206d696e74656400000000600082015250565b60006150e4601c836138cc565b91506150ef826150ae565b602082019050919050565b60006020820190508181036000830152615113816150d7565b9050919050565b7f45524337323155524953746f726167653a2055524920736574206f66206e6f6e60008201527f6578697374656e7420746f6b656e000000000000000000000000000000000000602082015250565b6000615176602e836138cc565b91506151818261511a565b604082019050919050565b600060208201905081810360008301526151a581615169565b9050919050565b7f73686970696e67466565206973207a65726f2e00000000000000000000000000600082015250565b60006151e26013836138cc565b91506151ed826151ac565b602082019050919050565b60006020820190508181036000830152615211816151d5565b9050919050565b7f4552433732313a20617070726f766520746f2063616c6c657200000000000000600082015250565b600061524e6019836138cc565b915061525982615218565b602082019050919050565b6000602082019050818103600083015261527d81615241565b9050919050565b7f4552433732313a207472616e7366657220746f206e6f6e20455243373231526560008201527f63656976657220696d706c656d656e7465720000000000000000000000000000602082015250565b60006152e06032836138cc565b91506152eb82615284565b604082019050919050565b6000602082019050818103600083015261530f816152d3565b9050919050565b600061532182613973565b915061532c83613973565b925082820390508181111561534457615343614760565b5b92915050565b600082825260208201905092915050565b6000615366826149ca565b615370818561534a565b93506153808185602086016138dd565b61538981613907565b840191505092915050565b60006080820190506153a96000830187613a08565b6153b66020830186613a08565b6153c36040830185614163565b81810360608301526153d5818461535b565b905095945050505050565b6000815190506153ef81613832565b92915050565b60006020828403121561540b5761540a6137fc565b5b6000615419848285016153e0565b91505092915050565b7f4e487b7100000000000000000000000000000000000000000000000000000000600052601260045260246000fdfea2646970667358221220f40c3e3dfcaf837fb2db4e71d1ba587d167dcd93c439911c184a7f3dfe68732464736f6c63430008110033",
  "linkReferences": {},
  "deployedLinkReferences": {}
}