{
  "_format": "hh-sol-artifact-1",
  "contractName": "Escrow",
  "sourceName": "contracts/Escrow.sol",
  "abi": [
    {
      "inputs": [
        {
          "internalType": "address",
          "name": "approver",
          "type": "address"
        }
      ],
      "name": "sendAmount",
      "outputs": [],
      "stateMutability": "nonpayable",
      "type": "function"
    }
  ],
  "bytecode": "0x60806040527322b6dd4d6d818e2ebce3d2e009a249f8fbf4e9656000806101000a81548173ffffffffffffffffffffffffffffffffffffffff021916908373ffffffffffffffffffffffffffffffffffffffff1602179055506127108047610067919061015e565b610071919061018f565b6001556001546127108047610086919061015e565b610090919061018f565b61009a91906101d1565b60025560025461271080476100af919061015e565b6100b9919061018f565b6100c391906101d1565b6003556002546001546100d69190610205565b476100e191906101d1565b6004553480156100f057600080fd5b50610239565b6000819050919050565b7f4e487b7100000000000000000000000000000000000000000000000000000000600052601260045260246000fd5b7f4e487b7100000000000000000000000000000000000000000000000000000000600052601160045260246000fd5b6000610169826100f6565b9150610174836100f6565b92508261018457610183610100565b5b828204905092915050565b600061019a826100f6565b91506101a5836100f6565b92508282026101b3816100f6565b915082820484148315176101ca576101c961012f565b5b5092915050565b60006101dc826100f6565b91506101e7836100f6565b92508282039050818111156101ff576101fe61012f565b5b92915050565b6000610210826100f6565b915061021b836100f6565b92508282019050808211156102335761023261012f565b5b92915050565b6103d9806102486000396000f3fe608060405234801561001057600080fd5b506004361061002b5760003560e01c8063210cb8c314610030575b600080fd5b61004a60048036038101906100459190610376565b61004c565b005b73962d7832934d77b925a9ee3274b81a86c183ee0573ffffffffffffffffffffffffffffffffffffffff168173ffffffffffffffffffffffffffffffffffffffff16036100fd5760008054906101000a900473ffffffffffffffffffffffffffffffffffffffff1673ffffffffffffffffffffffffffffffffffffffff166108fc6001549081150290604051600060405180830381858888f193505050501580156100fb573d6000803e3d6000fd5b505b73a716ebb89e78f909001c2cc49d740beca028abb573ffffffffffffffffffffffffffffffffffffffff168173ffffffffffffffffffffffffffffffffffffffff16036101ae5760008054906101000a900473ffffffffffffffffffffffffffffffffffffffff1673ffffffffffffffffffffffffffffffffffffffff166108fc6002549081150290604051600060405180830381858888f193505050501580156101ac573d6000803e3d6000fd5b505b73df4b4e74700644b68c0926ae20950ed0f55a38af73ffffffffffffffffffffffffffffffffffffffff168173ffffffffffffffffffffffffffffffffffffffff160361025f5760008054906101000a900473ffffffffffffffffffffffffffffffffffffffff1673ffffffffffffffffffffffffffffffffffffffff166108fc6003549081150290604051600060405180830381858888f1935050505015801561025d573d6000803e3d6000fd5b505b73d1bbf1292f759b5c75b9b0cc2deae89bd9408cb773ffffffffffffffffffffffffffffffffffffffff168173ffffffffffffffffffffffffffffffffffffffff16036103105760008054906101000a900473ffffffffffffffffffffffffffffffffffffffff1673ffffffffffffffffffffffffffffffffffffffff166108fc6004549081150290604051600060405180830381858888f1935050505015801561030e573d6000803e3d6000fd5b505b50565b600080fd5b600073ffffffffffffffffffffffffffffffffffffffff82169050919050565b600061034382610318565b9050919050565b61035381610338565b811461035e57600080fd5b50565b6000813590506103708161034a565b92915050565b60006020828403121561038c5761038b610313565b5b600061039a84828501610361565b9150509291505056fea2646970667358221220188b85a1f9c4646039a3e818ee69469b491f937f05f2d2aa04d218349b27d8a864736f6c63430008110033",
  "linkReferences": {},
  "deployedLinkReferences": {}
}