{
  "_format": "hh-sol-artifact-1",
  "contractName": "Escrow",
  "sourceName": "contracts/Escrow.sol",
  "abi": [
    {
      "inputs": [
        {
          "internalType": "uint256",
          "name": "amount",
          "type": "uint256"
        }
      ],
      "name": "sendAmount",
      "outputs": [],
      "stateMutability": "payable",
      "type": "function"
    }
  ],
  "bytecode": "0x60806040527322b6dd4d6d818e2ebce3d2e009a249f8fbf4e9656000806101000a81548173ffffffffffffffffffffffffffffffffffffffff021916908373ffffffffffffffffffffffffffffffffffffffff16021790555034801561006457600080fd5b50610147806100746000396000f3fe60806040526004361061001e5760003560e01c8063fd72b6e914610023575b600080fd5b61003d600480360381019061003891906100e4565b61003f565b005b60008054906101000a900473ffffffffffffffffffffffffffffffffffffffff1673ffffffffffffffffffffffffffffffffffffffff166108fc829081150290604051600060405180830381858888f193505050501580156100a5573d6000803e3d6000fd5b5050565b600080fd5b6000819050919050565b6100c1816100ae565b81146100cc57600080fd5b50565b6000813590506100de816100b8565b92915050565b6000602082840312156100fa576100f96100a9565b5b6000610108848285016100cf565b9150509291505056fea2646970667358221220a0c75722b70a7cfa226c2a1aa5e5afe41985828409997955aec6abafdc202fb364736f6c63430008110033",
  "linkReferences": {},
  "deployedLinkReferences": {}
}